{
	"BankAccount.sol": {
		"BankAccount": {
			"abi": [
				{
					"inputs": [
						{
							"internalType": "string",
							"name": "_depositorName",
							"type": "string"
						},
						{
							"internalType": "uint256",
							"name": "_accountNumber",
							"type": "uint256"
						},
						{
							"internalType": "string",
							"name": "_accountType",
							"type": "string"
						}
					],
					"stateMutability": "nonpayable",
					"type": "constructor"
				},
				{
					"inputs": [],
					"name": "accountNumber",
					"outputs": [
						{
							"internalType": "uint256",
							"name": "",
							"type": "uint256"
						}
					],
					"stateMutability": "view",
					"type": "function"
				},
				{
					"inputs": [],
					"name": "accountType",
					"outputs": [
						{
							"internalType": "string",
							"name": "",
							"type": "string"
						}
					],
					"stateMutability": "view",
					"type": "function"
				},
				{
					"inputs": [],
					"name": "balance",
					"outputs": [
						{
							"internalType": "uint256",
							"name": "",
							"type": "uint256"
						}
					],
					"stateMutability": "view",
					"type": "function"
				},
				{
					"inputs": [
						{
							"internalType": "uint256",
							"name": "amount",
							"type": "uint256"
						}
					],
					"name": "deposit",
					"outputs": [],
					"stateMutability": "nonpayable",
					"type": "function"
				},
				{
					"inputs": [],
					"name": "depositorName",
					"outputs": [
						{
							"internalType": "string",
							"name": "",
							"type": "string"
						}
					],
					"stateMutability": "view",
					"type": "function"
				},
				{
					"inputs": [],
					"name": "displayBalance",
					"outputs": [
						{
							"internalType": "uint256",
							"name": "",
							"type": "uint256"
						}
					],
					"stateMutability": "view",
					"type": "function"
				},
				{
					"inputs": [],
					"name": "displayNameAndBalance",
					"outputs": [
						{
							"internalType": "string",
							"name": "",
							"type": "string"
						},
						{
							"internalType": "uint256",
							"name": "",
							"type": "uint256"
						}
					],
					"stateMutability": "view",
					"type": "function"
				},
				{
					"inputs": [
						{
							"internalType": "uint256",
							"name": "amount",
							"type": "uint256"
						}
					],
					"name": "withdraw",
					"outputs": [],
					"stateMutability": "nonpayable",
					"type": "function"
				}
			],
			"devdoc": {
				"kind": "dev",
				"methods": {},
				"version": 1
			},
			"evm": {
				"assembly": "    /* \"BankAccount.sol\":58:921  contract BankAccount {\r... */\n  mstore(0x40, 0x80)\n    /* \"BankAccount.sol\":196:406  constructor(string memory _depositorName, uint256 _accountNumber, string memory\r... */\n  callvalue\n  dup1\n  iszero\n  tag_1\n  jumpi\n  0x00\n  dup1\n  revert\ntag_1:\n  pop\n  mload(0x40)\n  sub(codesize, bytecodeSize)\n  dup1\n  bytecodeSize\n  dup4\n  codecopy\n  dup2\n  dup2\n  add\n  0x40\n  mstore\n  dup2\n  add\n  swap1\n  tag_2\n  swap2\n  swap1\n  tag_3\n  jump\t// in\ntag_2:\n    /* \"BankAccount.sol\":310:324  _depositorName */\n  dup3\n    /* \"BankAccount.sol\":294:307  depositorName */\n  0x00\n    /* \"BankAccount.sol\":294:324  depositorName = _depositorName */\n  swap1\n  dup1\n  mload\n  swap1\n  0x20\n  add\n  swap1\n  tag_6\n  swap3\n  swap2\n  swap1\n  tag_7\n  jump\t// in\ntag_6:\n  pop\n    /* \"BankAccount.sol\":343:357  _accountNumber */\n  dup2\n    /* \"BankAccount.sol\":327:340  accountNumber */\n  0x01\n    /* \"BankAccount.sol\":327:357  accountNumber = _accountNumber */\n  dup2\n  swap1\n  sstore\n  pop\n    /* \"BankAccount.sol\":374:386  _accountType */\n  dup1\n    /* \"BankAccount.sol\":360:371  accountType */\n  0x02\n    /* \"BankAccount.sol\":360:386  accountType = _accountType */\n  swap1\n  dup1\n  mload\n  swap1\n  0x20\n  add\n  swap1\n  tag_8\n  swap3\n  swap2\n  swap1\n  tag_7\n  jump\t// in\ntag_8:\n  pop\n    /* \"BankAccount.sol\":399:400  0 */\n  0x00\n    /* \"BankAccount.sol\":389:396  balance */\n  0x03\n    /* \"BankAccount.sol\":389:400  balance = 0 */\n  dup2\n  swap1\n  sstore\n  pop\n    /* \"BankAccount.sol\":196:406  constructor(string memory _depositorName, uint256 _accountNumber, string memory\r... */\n  pop\n  pop\n  pop\n    /* \"BankAccount.sol\":58:921  contract BankAccount {\r... */\n  jump(tag_9)\ntag_7:\n  dup3\n  dup1\n  sload\n  tag_10\n  swap1\n  tag_11\n  jump\t// in\ntag_10:\n  swap1\n  0x00\n  mstore\n  keccak256(0x00, 0x20)\n  swap1\n  0x1f\n  add\n  0x20\n  swap1\n  div\n  dup2\n  add\n  swap3\n  dup3\n  tag_13\n  jumpi\n  0x00\n  dup6\n  sstore\n  jump(tag_12)\ntag_13:\n  dup3\n  0x1f\n  lt\n  tag_14\n  jumpi\n  dup1\n  mload\n  not(0xff)\n  and\n  dup4\n  dup1\n  add\n  or\n  dup6\n  sstore\n  jump(tag_12)\ntag_14:\n  dup3\n  dup1\n  add\n  0x01\n  add\n  dup6\n  sstore\n  dup3\n  iszero\n  tag_12\n  jumpi\n  swap2\n  dup3\n  add\ntag_15:\n  dup3\n  dup2\n  gt\n  iszero\n  tag_16\n  jumpi\n  dup3\n  mload\n  dup3\n  sstore\n  swap2\n  0x20\n  add\n  swap2\n  swap1\n  0x01\n  add\n  swap1\n  jump(tag_15)\ntag_16:\ntag_12:\n  pop\n  swap1\n  pop\n  tag_17\n  swap2\n  swap1\n  tag_18\n  jump\t// in\ntag_17:\n  pop\n  swap1\n  jump\t// out\ntag_18:\ntag_19:\n  dup1\n  dup3\n  gt\n  iszero\n  tag_20\n  jumpi\n  0x00\n  dup2\n  0x00\n  swap1\n  sstore\n  pop\n  0x01\n  add\n  jump(tag_19)\ntag_20:\n  pop\n  swap1\n  jump\t// out\n    /* \"#utility.yul\":7:360   */\ntag_22:\n  0x00\n    /* \"#utility.yul\":121:186   */\n  tag_24\n    /* \"#utility.yul\":136:185   */\n  tag_25\n    /* \"#utility.yul\":178:184   */\n  dup5\n    /* \"#utility.yul\":136:185   */\n  tag_26\n  jump\t// in\ntag_25:\n    /* \"#utility.yul\":121:186   */\n  tag_27\n  jump\t// in\ntag_24:\n    /* \"#utility.yul\":112:186   */\n  swap1\n  pop\n    /* \"#utility.yul\":209:215   */\n  dup3\n    /* \"#utility.yul\":202:207   */\n  dup2\n    /* \"#utility.yul\":195:216   */\n  mstore\n    /* \"#utility.yul\":247:251   */\n  0x20\n    /* \"#utility.yul\":240:245   */\n  dup2\n    /* \"#utility.yul\":236:252   */\n  add\n    /* \"#utility.yul\":285:288   */\n  dup5\n    /* \"#utility.yul\":276:282   */\n  dup5\n    /* \"#utility.yul\":271:274   */\n  dup5\n    /* \"#utility.yul\":267:283   */\n  add\n    /* \"#utility.yul\":264:289   */\n  gt\n    /* \"#utility.yul\":261:263   */\n  iszero\n  tag_28\n  jumpi\n    /* \"#utility.yul\":302:303   */\n  0x00\n    /* \"#utility.yul\":299:300   */\n  dup1\n    /* \"#utility.yul\":292:304   */\n  revert\n    /* \"#utility.yul\":261:263   */\ntag_28:\n    /* \"#utility.yul\":315:354   */\n  tag_29\n    /* \"#utility.yul\":347:353   */\n  dup5\n    /* \"#utility.yul\":342:345   */\n  dup3\n    /* \"#utility.yul\":337:340   */\n  dup6\n    /* \"#utility.yul\":315:354   */\n  tag_30\n  jump\t// in\ntag_29:\n    /* \"#utility.yul\":102:360   */\n  pop\n  swap4\n  swap3\n  pop\n  pop\n  pop\n  jump\t// out\n    /* \"#utility.yul\":380:668   */\ntag_31:\n  0x00\n    /* \"#utility.yul\":496:499   */\n  dup3\n    /* \"#utility.yul\":489:493   */\n  0x1f\n    /* \"#utility.yul\":481:487   */\n  dup4\n    /* \"#utility.yul\":477:494   */\n  add\n    /* \"#utility.yul\":473:500   */\n  slt\n    /* \"#utility.yul\":463:465   */\n  tag_33\n  jumpi\n    /* \"#utility.yul\":514:515   */\n  0x00\n    /* \"#utility.yul\":511:512   */\n  dup1\n    /* \"#utility.yul\":504:516   */\n  revert\n    /* \"#utility.yul\":463:465   */\ntag_33:\n    /* \"#utility.yul\":547:553   */\n  dup2\n    /* \"#utility.yul\":541:554   */\n  mload\n    /* \"#utility.yul\":572:662   */\n  tag_34\n    /* \"#utility.yul\":658:661   */\n  dup5\n    /* \"#utility.yul\":650:656   */\n  dup3\n    /* \"#utility.yul\":643:647   */\n  0x20\n    /* \"#utility.yul\":635:641   */\n  dup7\n    /* \"#utility.yul\":631:648   */\n  add\n    /* \"#utility.yul\":572:662   */\n  tag_22\n  jump\t// in\ntag_34:\n    /* \"#utility.yul\":563:662   */\n  swap2\n  pop\n    /* \"#utility.yul\":453:668   */\n  pop\n  swap3\n  swap2\n  pop\n  pop\n  jump\t// out\n    /* \"#utility.yul\":674:817   */\ntag_35:\n  0x00\n    /* \"#utility.yul\":762:768   */\n  dup2\n    /* \"#utility.yul\":756:769   */\n  mload\n    /* \"#utility.yul\":747:769   */\n  swap1\n  pop\n    /* \"#utility.yul\":778:811   */\n  tag_37\n    /* \"#utility.yul\":805:810   */\n  dup2\n    /* \"#utility.yul\":778:811   */\n  tag_38\n  jump\t// in\ntag_37:\n    /* \"#utility.yul\":737:817   */\n  swap3\n  swap2\n  pop\n  pop\n  jump\t// out\n    /* \"#utility.yul\":823:1631   */\ntag_3:\n  0x00\n  dup1\n  0x00\n    /* \"#utility.yul\":996:998   */\n  0x60\n    /* \"#utility.yul\":984:993   */\n  dup5\n    /* \"#utility.yul\":975:982   */\n  dup7\n    /* \"#utility.yul\":971:994   */\n  sub\n    /* \"#utility.yul\":967:999   */\n  slt\n    /* \"#utility.yul\":964:966   */\n  iszero\n  tag_40\n  jumpi\n    /* \"#utility.yul\":1012:1013   */\n  0x00\n    /* \"#utility.yul\":1009:1010   */\n  dup1\n    /* \"#utility.yul\":1002:1014   */\n  revert\n    /* \"#utility.yul\":964:966   */\ntag_40:\n    /* \"#utility.yul\":1076:1077   */\n  0x00\n    /* \"#utility.yul\":1065:1074   */\n  dup5\n    /* \"#utility.yul\":1061:1078   */\n  add\n    /* \"#utility.yul\":1055:1079   */\n  mload\n    /* \"#utility.yul\":1106:1124   */\n  0xffffffffffffffff\n    /* \"#utility.yul\":1098:1104   */\n  dup2\n    /* \"#utility.yul\":1095:1125   */\n  gt\n    /* \"#utility.yul\":1092:1094   */\n  iszero\n  tag_41\n  jumpi\n    /* \"#utility.yul\":1138:1139   */\n  0x00\n    /* \"#utility.yul\":1135:1136   */\n  dup1\n    /* \"#utility.yul\":1128:1140   */\n  revert\n    /* \"#utility.yul\":1092:1094   */\ntag_41:\n    /* \"#utility.yul\":1166:1240   */\n  tag_42\n    /* \"#utility.yul\":1232:1239   */\n  dup7\n    /* \"#utility.yul\":1223:1229   */\n  dup3\n    /* \"#utility.yul\":1212:1221   */\n  dup8\n    /* \"#utility.yul\":1208:1230   */\n  add\n    /* \"#utility.yul\":1166:1240   */\n  tag_31\n  jump\t// in\ntag_42:\n    /* \"#utility.yul\":1156:1240   */\n  swap4\n  pop\n    /* \"#utility.yul\":1026:1250   */\n  pop\n    /* \"#utility.yul\":1289:1291   */\n  0x20\n    /* \"#utility.yul\":1315:1379   */\n  tag_43\n    /* \"#utility.yul\":1371:1378   */\n  dup7\n    /* \"#utility.yul\":1362:1368   */\n  dup3\n    /* \"#utility.yul\":1351:1360   */\n  dup8\n    /* \"#utility.yul\":1347:1369   */\n  add\n    /* \"#utility.yul\":1315:1379   */\n  tag_35\n  jump\t// in\ntag_43:\n    /* \"#utility.yul\":1305:1379   */\n  swap3\n  pop\n    /* \"#utility.yul\":1260:1389   */\n  pop\n    /* \"#utility.yul\":1449:1451   */\n  0x40\n    /* \"#utility.yul\":1438:1447   */\n  dup5\n    /* \"#utility.yul\":1434:1452   */\n  add\n    /* \"#utility.yul\":1428:1453   */\n  mload\n    /* \"#utility.yul\":1480:1498   */\n  0xffffffffffffffff\n    /* \"#utility.yul\":1472:1478   */\n  dup2\n    /* \"#utility.yul\":1469:1499   */\n  gt\n    /* \"#utility.yul\":1466:1468   */\n  iszero\n  tag_44\n  jumpi\n    /* \"#utility.yul\":1512:1513   */\n  0x00\n    /* \"#utility.yul\":1509:1510   */\n  dup1\n    /* \"#utility.yul\":1502:1514   */\n  revert\n    /* \"#utility.yul\":1466:1468   */\ntag_44:\n    /* \"#utility.yul\":1540:1614   */\n  tag_45\n    /* \"#utility.yul\":1606:1613   */\n  dup7\n    /* \"#utility.yul\":1597:1603   */\n  dup3\n    /* \"#utility.yul\":1586:1595   */\n  dup8\n    /* \"#utility.yul\":1582:1604   */\n  add\n    /* \"#utility.yul\":1540:1614   */\n  tag_31\n  jump\t// in\ntag_45:\n    /* \"#utility.yul\":1530:1614   */\n  swap2\n  pop\n    /* \"#utility.yul\":1399:1624   */\n  pop\n    /* \"#utility.yul\":954:1631   */\n  swap3\n  pop\n  swap3\n  pop\n  swap3\n  jump\t// out\n    /* \"#utility.yul\":1637:1920   */\ntag_27:\n  0x00\n    /* \"#utility.yul\":1703:1705   */\n  0x40\n    /* \"#utility.yul\":1697:1706   */\n  mload\n    /* \"#utility.yul\":1687:1706   */\n  swap1\n  pop\n    /* \"#utility.yul\":1745:1749   */\n  dup2\n    /* \"#utility.yul\":1737:1743   */\n  dup2\n    /* \"#utility.yul\":1733:1750   */\n  add\n    /* \"#utility.yul\":1852:1858   */\n  dup2\n    /* \"#utility.yul\":1840:1850   */\n  dup2\n    /* \"#utility.yul\":1837:1859   */\n  lt\n    /* \"#utility.yul\":1816:1834   */\n  0xffffffffffffffff\n    /* \"#utility.yul\":1804:1814   */\n  dup3\n    /* \"#utility.yul\":1801:1835   */\n  gt\n    /* \"#utility.yul\":1798:1860   */\n  or\n    /* \"#utility.yul\":1795:1797   */\n  iszero\n  tag_47\n  jumpi\n    /* \"#utility.yul\":1863:1881   */\n  tag_48\n  tag_49\n  jump\t// in\ntag_48:\n    /* \"#utility.yul\":1795:1797   */\ntag_47:\n    /* \"#utility.yul\":1903:1913   */\n  dup1\n    /* \"#utility.yul\":1899:1901   */\n  0x40\n    /* \"#utility.yul\":1892:1914   */\n  mstore\n    /* \"#utility.yul\":1677:1920   */\n  pop\n  swap2\n  swap1\n  pop\n  jump\t// out\n    /* \"#utility.yul\":1926:2258   */\ntag_26:\n  0x00\n    /* \"#utility.yul\":2078:2096   */\n  0xffffffffffffffff\n    /* \"#utility.yul\":2070:2076   */\n  dup3\n    /* \"#utility.yul\":2067:2097   */\n  gt\n    /* \"#utility.yul\":2064:2066   */\n  iszero\n  tag_51\n  jumpi\n    /* \"#utility.yul\":2100:2118   */\n  tag_52\n  tag_49\n  jump\t// in\ntag_52:\n    /* \"#utility.yul\":2064:2066   */\ntag_51:\n    /* \"#utility.yul\":2185:2189   */\n  0x1f\n    /* \"#utility.yul\":2181:2190   */\n  not\n    /* \"#utility.yul\":2174:2178   */\n  0x1f\n    /* \"#utility.yul\":2166:2172   */\n  dup4\n    /* \"#utility.yul\":2162:2179   */\n  add\n    /* \"#utility.yul\":2158:2191   */\n  and\n    /* \"#utility.yul\":2150:2191   */\n  swap1\n  pop\n    /* \"#utility.yul\":2246:2250   */\n  0x20\n    /* \"#utility.yul\":2240:2244   */\n  dup2\n    /* \"#utility.yul\":2236:2251   */\n  add\n    /* \"#utility.yul\":2228:2251   */\n  swap1\n  pop\n    /* \"#utility.yul\":1993:2258   */\n  swap2\n  swap1\n  pop\n  jump\t// out\n    /* \"#utility.yul\":2264:2341   */\ntag_53:\n  0x00\n    /* \"#utility.yul\":2330:2335   */\n  dup2\n    /* \"#utility.yul\":2319:2335   */\n  swap1\n  pop\n    /* \"#utility.yul\":2309:2341   */\n  swap2\n  swap1\n  pop\n  jump\t// out\n    /* \"#utility.yul\":2347:2654   */\ntag_30:\n    /* \"#utility.yul\":2415:2416   */\n  0x00\n    /* \"#utility.yul\":2425:2538   */\ntag_56:\n    /* \"#utility.yul\":2439:2445   */\n  dup4\n    /* \"#utility.yul\":2436:2437   */\n  dup2\n    /* \"#utility.yul\":2433:2446   */\n  lt\n    /* \"#utility.yul\":2425:2538   */\n  iszero\n  tag_58\n  jumpi\n    /* \"#utility.yul\":2524:2525   */\n  dup1\n    /* \"#utility.yul\":2519:2522   */\n  dup3\n    /* \"#utility.yul\":2515:2526   */\n  add\n    /* \"#utility.yul\":2509:2527   */\n  mload\n    /* \"#utility.yul\":2505:2506   */\n  dup2\n    /* \"#utility.yul\":2500:2503   */\n  dup5\n    /* \"#utility.yul\":2496:2507   */\n  add\n    /* \"#utility.yul\":2489:2528   */\n  mstore\n    /* \"#utility.yul\":2461:2463   */\n  0x20\n    /* \"#utility.yul\":2458:2459   */\n  dup2\n    /* \"#utility.yul\":2454:2464   */\n  add\n    /* \"#utility.yul\":2449:2464   */\n  swap1\n  pop\n    /* \"#utility.yul\":2425:2538   */\n  jump(tag_56)\ntag_58:\n    /* \"#utility.yul\":2556:2562   */\n  dup4\n    /* \"#utility.yul\":2553:2554   */\n  dup2\n    /* \"#utility.yul\":2550:2563   */\n  gt\n    /* \"#utility.yul\":2547:2549   */\n  iszero\n  tag_59\n  jumpi\n    /* \"#utility.yul\":2636:2637   */\n  0x00\n    /* \"#utility.yul\":2627:2633   */\n  dup5\n    /* \"#utility.yul\":2622:2625   */\n  dup5\n    /* \"#utility.yul\":2618:2634   */\n  add\n    /* \"#utility.yul\":2611:2638   */\n  mstore\n    /* \"#utility.yul\":2547:2549   */\ntag_59:\n    /* \"#utility.yul\":2396:2654   */\n  pop\n  pop\n  pop\n  pop\n  jump\t// out\n    /* \"#utility.yul\":2660:2980   */\ntag_11:\n  0x00\n    /* \"#utility.yul\":2741:2742   */\n  0x02\n    /* \"#utility.yul\":2735:2739   */\n  dup3\n    /* \"#utility.yul\":2731:2743   */\n  div\n    /* \"#utility.yul\":2721:2743   */\n  swap1\n  pop\n    /* \"#utility.yul\":2788:2789   */\n  0x01\n    /* \"#utility.yul\":2782:2786   */\n  dup3\n    /* \"#utility.yul\":2778:2790   */\n  and\n    /* \"#utility.yul\":2809:2827   */\n  dup1\n    /* \"#utility.yul\":2799:2801   */\n  tag_61\n  jumpi\n    /* \"#utility.yul\":2865:2869   */\n  0x7f\n    /* \"#utility.yul\":2857:2863   */\n  dup3\n    /* \"#utility.yul\":2853:2870   */\n  and\n    /* \"#utility.yul\":2843:2870   */\n  swap2\n  pop\n    /* \"#utility.yul\":2799:2801   */\ntag_61:\n    /* \"#utility.yul\":2927:2929   */\n  0x20\n    /* \"#utility.yul\":2919:2925   */\n  dup3\n    /* \"#utility.yul\":2916:2930   */\n  lt\n    /* \"#utility.yul\":2896:2914   */\n  dup2\n    /* \"#utility.yul\":2893:2931   */\n  eq\n    /* \"#utility.yul\":2890:2892   */\n  iszero\n  tag_62\n  jumpi\n    /* \"#utility.yul\":2946:2964   */\n  tag_63\n  tag_64\n  jump\t// in\ntag_63:\n    /* \"#utility.yul\":2890:2892   */\ntag_62:\n    /* \"#utility.yul\":2711:2980   */\n  pop\n  swap2\n  swap1\n  pop\n  jump\t// out\n    /* \"#utility.yul\":2986:3166   */\ntag_64:\n    /* \"#utility.yul\":3034:3111   */\n  0x4e487b7100000000000000000000000000000000000000000000000000000000\n    /* \"#utility.yul\":3031:3032   */\n  0x00\n    /* \"#utility.yul\":3024:3112   */\n  mstore\n    /* \"#utility.yul\":3131:3135   */\n  0x22\n    /* \"#utility.yul\":3128:3129   */\n  0x04\n    /* \"#utility.yul\":3121:3136   */\n  mstore\n    /* \"#utility.yul\":3155:3159   */\n  0x24\n    /* \"#utility.yul\":3152:3153   */\n  0x00\n    /* \"#utility.yul\":3145:3160   */\n  revert\n    /* \"#utility.yul\":3172:3352   */\ntag_49:\n    /* \"#utility.yul\":3220:3297   */\n  0x4e487b7100000000000000000000000000000000000000000000000000000000\n    /* \"#utility.yul\":3217:3218   */\n  0x00\n    /* \"#utility.yul\":3210:3298   */\n  mstore\n    /* \"#utility.yul\":3317:3321   */\n  0x41\n    /* \"#utility.yul\":3314:3315   */\n  0x04\n    /* \"#utility.yul\":3307:3322   */\n  mstore\n    /* \"#utility.yul\":3341:3345   */\n  0x24\n    /* \"#utility.yul\":3338:3339   */\n  0x00\n    /* \"#utility.yul\":3331:3346   */\n  revert\n    /* \"#utility.yul\":3358:3480   */\ntag_38:\n    /* \"#utility.yul\":3431:3455   */\n  tag_68\n    /* \"#utility.yul\":3449:3454   */\n  dup2\n    /* \"#utility.yul\":3431:3455   */\n  tag_53\n  jump\t// in\ntag_68:\n    /* \"#utility.yul\":3424:3429   */\n  dup2\n    /* \"#utility.yul\":3421:3456   */\n  eq\n    /* \"#utility.yul\":3411:3413   */\n  tag_69\n  jumpi\n    /* \"#utility.yul\":3470:3471   */\n  0x00\n    /* \"#utility.yul\":3467:3468   */\n  dup1\n    /* \"#utility.yul\":3460:3472   */\n  revert\n    /* \"#utility.yul\":3411:3413   */\ntag_69:\n    /* \"#utility.yul\":3401:3480   */\n  pop\n  jump\t// out\n    /* \"BankAccount.sol\":58:921  contract BankAccount {\r... */\ntag_9:\n  dataSize(sub_0)\n  dup1\n  dataOffset(sub_0)\n  0x00\n  codecopy\n  0x00\n  return\nstop\n\nsub_0: assembly {\n        /* \"BankAccount.sol\":58:921  contract BankAccount {\r... */\n      mstore(0x40, 0x80)\n      callvalue\n      dup1\n      iszero\n      tag_1\n      jumpi\n      0x00\n      dup1\n      revert\n    tag_1:\n      pop\n      jumpi(tag_2, lt(calldatasize, 0x04))\n      shr(0xe0, calldataload(0x00))\n      dup1\n      0x95eec3c9\n      gt\n      tag_11\n      jumpi\n      dup1\n      0x95eec3c9\n      eq\n      tag_7\n      jumpi\n      dup1\n      0xa348475e\n      eq\n      tag_8\n      jumpi\n      dup1\n      0xb69ef8a8\n      eq\n      tag_9\n      jumpi\n      dup1\n      0xb6b55f25\n      eq\n      tag_10\n      jumpi\n      jump(tag_2)\n    tag_11:\n      dup1\n      0x01dca686\n      eq\n      tag_3\n      jumpi\n      dup1\n      0x2e1a7d4d\n      eq\n      tag_4\n      jumpi\n      dup1\n      0x375974eb\n      eq\n      tag_5\n      jumpi\n      dup1\n      0x3c7d73d8\n      eq\n      tag_6\n      jumpi\n    tag_2:\n      0x00\n      dup1\n      revert\n        /* \"BankAccount.sol\":82:109  string public depositorName */\n    tag_3:\n      tag_12\n      tag_13\n      jump\t// in\n    tag_12:\n      mload(0x40)\n      tag_14\n      swap2\n      swap1\n      tag_15\n      jump\t// in\n    tag_14:\n      mload(0x40)\n      dup1\n      swap2\n      sub\n      swap1\n      return\n        /* \"BankAccount.sol\":537:721  function withdraw(uint256 amount) public {\r... */\n    tag_4:\n      tag_16\n      0x04\n      dup1\n      calldatasize\n      sub\n      dup2\n      add\n      swap1\n      tag_17\n      swap2\n      swap1\n      tag_18\n      jump\t// in\n    tag_17:\n      tag_19\n      jump\t// in\n    tag_16:\n      stop\n        /* \"BankAccount.sol\":112:140  uint256 public accountNumber */\n    tag_5:\n      tag_20\n      tag_21\n      jump\t// in\n    tag_20:\n      mload(0x40)\n      tag_22\n      swap2\n      swap1\n      tag_23\n      jump\t// in\n    tag_22:\n      mload(0x40)\n      dup1\n      swap2\n      sub\n      swap1\n      return\n        /* \"BankAccount.sol\":723:800  function displayBalance() public view returns (uint256) {\r... */\n    tag_6:\n      tag_24\n      tag_25\n      jump\t// in\n    tag_24:\n      mload(0x40)\n      tag_26\n      swap2\n      swap1\n      tag_23\n      jump\t// in\n    tag_26:\n      mload(0x40)\n      dup1\n      swap2\n      sub\n      swap1\n      return\n        /* \"BankAccount.sol\":143:168  string public accountType */\n    tag_7:\n      tag_27\n      tag_28\n      jump\t// in\n    tag_27:\n      mload(0x40)\n      tag_29\n      swap2\n      swap1\n      tag_15\n      jump\t// in\n    tag_29:\n      mload(0x40)\n      dup1\n      swap2\n      sub\n      swap1\n      return\n        /* \"BankAccount.sol\":802:918  function displayNameAndBalance() public view returns (string memory, uint256) {\r... */\n    tag_8:\n      tag_30\n      tag_31\n      jump\t// in\n    tag_30:\n      mload(0x40)\n      tag_32\n      swap3\n      swap2\n      swap1\n      tag_33\n      jump\t// in\n    tag_32:\n      mload(0x40)\n      dup1\n      swap2\n      sub\n      swap1\n      return\n        /* \"BankAccount.sol\":171:193  uint256 public balance */\n    tag_9:\n      tag_34\n      tag_35\n      jump\t// in\n    tag_34:\n      mload(0x40)\n      tag_36\n      swap2\n      swap1\n      tag_23\n      jump\t// in\n    tag_36:\n      mload(0x40)\n      dup1\n      swap2\n      sub\n      swap1\n      return\n        /* \"BankAccount.sol\":408:535  function deposit(uint256 amount) public {\r... */\n    tag_10:\n      tag_37\n      0x04\n      dup1\n      calldatasize\n      sub\n      dup2\n      add\n      swap1\n      tag_38\n      swap2\n      swap1\n      tag_18\n      jump\t// in\n    tag_38:\n      tag_39\n      jump\t// in\n    tag_37:\n      stop\n        /* \"BankAccount.sol\":82:109  string public depositorName */\n    tag_13:\n      0x00\n      dup1\n      sload\n      tag_40\n      swap1\n      tag_41\n      jump\t// in\n    tag_40:\n      dup1\n      0x1f\n      add\n      0x20\n      dup1\n      swap2\n      div\n      mul\n      0x20\n      add\n      mload(0x40)\n      swap1\n      dup2\n      add\n      0x40\n      mstore\n      dup1\n      swap3\n      swap2\n      swap1\n      dup2\n      dup2\n      mstore\n      0x20\n      add\n      dup3\n      dup1\n      sload\n      tag_42\n      swap1\n      tag_41\n      jump\t// in\n    tag_42:\n      dup1\n      iszero\n      tag_43\n      jumpi\n      dup1\n      0x1f\n      lt\n      tag_44\n      jumpi\n      0x0100\n      dup1\n      dup4\n      sload\n      div\n      mul\n      dup4\n      mstore\n      swap2\n      0x20\n      add\n      swap2\n      jump(tag_43)\n    tag_44:\n      dup3\n      add\n      swap2\n      swap1\n      0x00\n      mstore\n      keccak256(0x00, 0x20)\n      swap1\n    tag_45:\n      dup2\n      sload\n      dup2\n      mstore\n      swap1\n      0x01\n      add\n      swap1\n      0x20\n      add\n      dup1\n      dup4\n      gt\n      tag_45\n      jumpi\n      dup3\n      swap1\n      sub\n      0x1f\n      and\n      dup3\n      add\n      swap2\n    tag_43:\n      pop\n      pop\n      pop\n      pop\n      pop\n      dup2\n      jump\t// out\n        /* \"BankAccount.sol\":537:721  function withdraw(uint256 amount) public {\r... */\n    tag_19:\n        /* \"BankAccount.sol\":598:599  0 */\n      0x00\n        /* \"BankAccount.sol\":589:595  amount */\n      dup2\n        /* \"BankAccount.sol\":589:599  amount > 0 */\n      gt\n        /* \"BankAccount.sol\":581:644  require(amount > 0, \"Withdrawal amount must be greater than 0\") */\n      tag_47\n      jumpi\n      mload(0x40)\n      0x08c379a000000000000000000000000000000000000000000000000000000000\n      dup2\n      mstore\n      0x04\n      add\n      tag_48\n      swap1\n      tag_49\n      jump\t// in\n    tag_48:\n      mload(0x40)\n      dup1\n      swap2\n      sub\n      swap1\n      revert\n    tag_47:\n        /* \"BankAccount.sol\":665:672  balance */\n      sload(0x03)\n        /* \"BankAccount.sol\":655:661  amount */\n      dup2\n        /* \"BankAccount.sol\":655:672  amount <= balance */\n      gt\n      iszero\n        /* \"BankAccount.sol\":647:697  require(amount <= balance, \"Insufficient balance\") */\n      tag_50\n      jumpi\n      mload(0x40)\n      0x08c379a000000000000000000000000000000000000000000000000000000000\n      dup2\n      mstore\n      0x04\n      add\n      tag_51\n      swap1\n      tag_52\n      jump\t// in\n    tag_51:\n      mload(0x40)\n      dup1\n      swap2\n      sub\n      swap1\n      revert\n    tag_50:\n        /* \"BankAccount.sol\":711:717  amount */\n      dup1\n        /* \"BankAccount.sol\":700:707  balance */\n      0x03\n      0x00\n        /* \"BankAccount.sol\":700:717  balance -= amount */\n      dup3\n      dup3\n      sload\n      tag_53\n      swap2\n      swap1\n      tag_54\n      jump\t// in\n    tag_53:\n      swap3\n      pop\n      pop\n      dup2\n      swap1\n      sstore\n      pop\n        /* \"BankAccount.sol\":537:721  function withdraw(uint256 amount) public {\r... */\n      pop\n      jump\t// out\n        /* \"BankAccount.sol\":112:140  uint256 public accountNumber */\n    tag_21:\n      sload(0x01)\n      dup2\n      jump\t// out\n        /* \"BankAccount.sol\":723:800  function displayBalance() public view returns (uint256) {\r... */\n    tag_25:\n        /* \"BankAccount.sol\":770:777  uint256 */\n      0x00\n        /* \"BankAccount.sol\":789:796  balance */\n      sload(0x03)\n        /* \"BankAccount.sol\":782:796  return balance */\n      swap1\n      pop\n        /* \"BankAccount.sol\":723:800  function displayBalance() public view returns (uint256) {\r... */\n      swap1\n      jump\t// out\n        /* \"BankAccount.sol\":143:168  string public accountType */\n    tag_28:\n      0x02\n      dup1\n      sload\n      tag_56\n      swap1\n      tag_41\n      jump\t// in\n    tag_56:\n      dup1\n      0x1f\n      add\n      0x20\n      dup1\n      swap2\n      div\n      mul\n      0x20\n      add\n      mload(0x40)\n      swap1\n      dup2\n      add\n      0x40\n      mstore\n      dup1\n      swap3\n      swap2\n      swap1\n      dup2\n      dup2\n      mstore\n      0x20\n      add\n      dup3\n      dup1\n      sload\n      tag_57\n      swap1\n      tag_41\n      jump\t// in\n    tag_57:\n      dup1\n      iszero\n      tag_58\n      jumpi\n      dup1\n      0x1f\n      lt\n      tag_59\n      jumpi\n      0x0100\n      dup1\n      dup4\n      sload\n      div\n      mul\n      dup4\n      mstore\n      swap2\n      0x20\n      add\n      swap2\n      jump(tag_58)\n    tag_59:\n      dup3\n      add\n      swap2\n      swap1\n      0x00\n      mstore\n      keccak256(0x00, 0x20)\n      swap1\n    tag_60:\n      dup2\n      sload\n      dup2\n      mstore\n      swap1\n      0x01\n      add\n      swap1\n      0x20\n      add\n      dup1\n      dup4\n      gt\n      tag_60\n      jumpi\n      dup3\n      swap1\n      sub\n      0x1f\n      and\n      dup3\n      add\n      swap2\n    tag_58:\n      pop\n      pop\n      pop\n      pop\n      pop\n      dup2\n      jump\t// out\n        /* \"BankAccount.sol\":802:918  function displayNameAndBalance() public view returns (string memory, uint256) {\r... */\n    tag_31:\n        /* \"BankAccount.sol\":856:869  string memory */\n      0x60\n        /* \"BankAccount.sol\":871:878  uint256 */\n      0x00\n        /* \"BankAccount.sol\":891:904  depositorName */\n      dup1\n        /* \"BankAccount.sol\":906:913  balance */\n      sload(0x03)\n        /* \"BankAccount.sol\":883:914  return (depositorName, balance) */\n      dup2\n      dup1\n      sload\n      tag_62\n      swap1\n      tag_41\n      jump\t// in\n    tag_62:\n      dup1\n      0x1f\n      add\n      0x20\n      dup1\n      swap2\n      div\n      mul\n      0x20\n      add\n      mload(0x40)\n      swap1\n      dup2\n      add\n      0x40\n      mstore\n      dup1\n      swap3\n      swap2\n      swap1\n      dup2\n      dup2\n      mstore\n      0x20\n      add\n      dup3\n      dup1\n      sload\n      tag_63\n      swap1\n      tag_41\n      jump\t// in\n    tag_63:\n      dup1\n      iszero\n      tag_64\n      jumpi\n      dup1\n      0x1f\n      lt\n      tag_65\n      jumpi\n      0x0100\n      dup1\n      dup4\n      sload\n      div\n      mul\n      dup4\n      mstore\n      swap2\n      0x20\n      add\n      swap2\n      jump(tag_64)\n    tag_65:\n      dup3\n      add\n      swap2\n      swap1\n      0x00\n      mstore\n      keccak256(0x00, 0x20)\n      swap1\n    tag_66:\n      dup2\n      sload\n      dup2\n      mstore\n      swap1\n      0x01\n      add\n      swap1\n      0x20\n      add\n      dup1\n      dup4\n      gt\n      tag_66\n      jumpi\n      dup3\n      swap1\n      sub\n      0x1f\n      and\n      dup3\n      add\n      swap2\n    tag_64:\n      pop\n      pop\n      pop\n      pop\n      pop\n      swap2\n      pop\n      swap2\n      pop\n      swap2\n      pop\n        /* \"BankAccount.sol\":802:918  function displayNameAndBalance() public view returns (string memory, uint256) {\r... */\n      swap1\n      swap2\n      jump\t// out\n        /* \"BankAccount.sol\":171:193  uint256 public balance */\n    tag_35:\n      sload(0x03)\n      dup2\n      jump\t// out\n        /* \"BankAccount.sol\":408:535  function deposit(uint256 amount) public {\r... */\n    tag_39:\n        /* \"BankAccount.sol\":468:469  0 */\n      0x00\n        /* \"BankAccount.sol\":459:465  amount */\n      dup2\n        /* \"BankAccount.sol\":459:469  amount > 0 */\n      gt\n        /* \"BankAccount.sol\":451:511  require(amount > 0, \"Deposit amount must be greater than 0\") */\n      tag_68\n      jumpi\n      mload(0x40)\n      0x08c379a000000000000000000000000000000000000000000000000000000000\n      dup2\n      mstore\n      0x04\n      add\n      tag_69\n      swap1\n      tag_70\n      jump\t// in\n    tag_69:\n      mload(0x40)\n      dup1\n      swap2\n      sub\n      swap1\n      revert\n    tag_68:\n        /* \"BankAccount.sol\":525:531  amount */\n      dup1\n        /* \"BankAccount.sol\":514:521  balance */\n      0x03\n      0x00\n        /* \"BankAccount.sol\":514:531  balance += amount */\n      dup3\n      dup3\n      sload\n      tag_71\n      swap2\n      swap1\n      tag_72\n      jump\t// in\n    tag_71:\n      swap3\n      pop\n      pop\n      dup2\n      swap1\n      sstore\n      pop\n        /* \"BankAccount.sol\":408:535  function deposit(uint256 amount) public {\r... */\n      pop\n      jump\t// out\n        /* \"#utility.yul\":7:146   */\n    tag_74:\n      0x00\n        /* \"#utility.yul\":91:97   */\n      dup2\n        /* \"#utility.yul\":78:98   */\n      calldataload\n        /* \"#utility.yul\":69:98   */\n      swap1\n      pop\n        /* \"#utility.yul\":107:140   */\n      tag_76\n        /* \"#utility.yul\":134:139   */\n      dup2\n        /* \"#utility.yul\":107:140   */\n      tag_77\n      jump\t// in\n    tag_76:\n        /* \"#utility.yul\":59:146   */\n      swap3\n      swap2\n      pop\n      pop\n      jump\t// out\n        /* \"#utility.yul\":152:414   */\n    tag_18:\n      0x00\n        /* \"#utility.yul\":260:262   */\n      0x20\n        /* \"#utility.yul\":248:257   */\n      dup3\n        /* \"#utility.yul\":239:246   */\n      dup5\n        /* \"#utility.yul\":235:258   */\n      sub\n        /* \"#utility.yul\":231:263   */\n      slt\n        /* \"#utility.yul\":228:230   */\n      iszero\n      tag_79\n      jumpi\n        /* \"#utility.yul\":276:277   */\n      0x00\n        /* \"#utility.yul\":273:274   */\n      dup1\n        /* \"#utility.yul\":266:278   */\n      revert\n        /* \"#utility.yul\":228:230   */\n    tag_79:\n        /* \"#utility.yul\":319:320   */\n      0x00\n        /* \"#utility.yul\":344:397   */\n      tag_80\n        /* \"#utility.yul\":389:396   */\n      dup5\n        /* \"#utility.yul\":380:386   */\n      dup3\n        /* \"#utility.yul\":369:378   */\n      dup6\n        /* \"#utility.yul\":365:387   */\n      add\n        /* \"#utility.yul\":344:397   */\n      tag_74\n      jump\t// in\n    tag_80:\n        /* \"#utility.yul\":334:397   */\n      swap2\n      pop\n        /* \"#utility.yul\":290:407   */\n      pop\n        /* \"#utility.yul\":218:414   */\n      swap3\n      swap2\n      pop\n      pop\n      jump\t// out\n        /* \"#utility.yul\":420:784   */\n    tag_81:\n      0x00\n        /* \"#utility.yul\":536:575   */\n      tag_83\n        /* \"#utility.yul\":569:574   */\n      dup3\n        /* \"#utility.yul\":536:575   */\n      tag_84\n      jump\t// in\n    tag_83:\n        /* \"#utility.yul\":591:662   */\n      tag_85\n        /* \"#utility.yul\":655:661   */\n      dup2\n        /* \"#utility.yul\":650:653   */\n      dup6\n        /* \"#utility.yul\":591:662   */\n      tag_86\n      jump\t// in\n    tag_85:\n        /* \"#utility.yul\":584:662   */\n      swap4\n      pop\n        /* \"#utility.yul\":671:723   */\n      tag_87\n        /* \"#utility.yul\":716:722   */\n      dup2\n        /* \"#utility.yul\":711:714   */\n      dup6\n        /* \"#utility.yul\":704:708   */\n      0x20\n        /* \"#utility.yul\":697:702   */\n      dup7\n        /* \"#utility.yul\":693:709   */\n      add\n        /* \"#utility.yul\":671:723   */\n      tag_88\n      jump\t// in\n    tag_87:\n        /* \"#utility.yul\":748:777   */\n      tag_89\n        /* \"#utility.yul\":770:776   */\n      dup2\n        /* \"#utility.yul\":748:777   */\n      tag_90\n      jump\t// in\n    tag_89:\n        /* \"#utility.yul\":743:746   */\n      dup5\n        /* \"#utility.yul\":739:778   */\n      add\n        /* \"#utility.yul\":732:778   */\n      swap2\n      pop\n        /* \"#utility.yul\":512:784   */\n      pop\n      swap3\n      swap2\n      pop\n      pop\n      jump\t// out\n        /* \"#utility.yul\":790:1159   */\n    tag_91:\n      0x00\n        /* \"#utility.yul\":953:1020   */\n      tag_93\n        /* \"#utility.yul\":1017:1019   */\n      0x25\n        /* \"#utility.yul\":1012:1015   */\n      dup4\n        /* \"#utility.yul\":953:1020   */\n      tag_86\n      jump\t// in\n    tag_93:\n        /* \"#utility.yul\":946:1020   */\n      swap2\n      pop\n        /* \"#utility.yul\":1050:1084   */\n      0x4465706f73697420616d6f756e74206d75737420626520677265617465722074\n        /* \"#utility.yul\":1046:1047   */\n      0x00\n        /* \"#utility.yul\":1041:1044   */\n      dup4\n        /* \"#utility.yul\":1037:1048   */\n      add\n        /* \"#utility.yul\":1030:1085   */\n      mstore\n        /* \"#utility.yul\":1116:1123   */\n      0x68616e2030000000000000000000000000000000000000000000000000000000\n        /* \"#utility.yul\":1111:1113   */\n      0x20\n        /* \"#utility.yul\":1106:1109   */\n      dup4\n        /* \"#utility.yul\":1102:1114   */\n      add\n        /* \"#utility.yul\":1095:1124   */\n      mstore\n        /* \"#utility.yul\":1150:1152   */\n      0x40\n        /* \"#utility.yul\":1145:1148   */\n      dup3\n        /* \"#utility.yul\":1141:1153   */\n      add\n        /* \"#utility.yul\":1134:1153   */\n      swap1\n      pop\n        /* \"#utility.yul\":936:1159   */\n      swap2\n      swap1\n      pop\n      jump\t// out\n        /* \"#utility.yul\":1165:1483   */\n    tag_94:\n      0x00\n        /* \"#utility.yul\":1328:1395   */\n      tag_96\n        /* \"#utility.yul\":1392:1394   */\n      0x14\n        /* \"#utility.yul\":1387:1390   */\n      dup4\n        /* \"#utility.yul\":1328:1395   */\n      tag_86\n      jump\t// in\n    tag_96:\n        /* \"#utility.yul\":1321:1395   */\n      swap2\n      pop\n        /* \"#utility.yul\":1425:1447   */\n      0x496e73756666696369656e742062616c616e6365000000000000000000000000\n        /* \"#utility.yul\":1421:1422   */\n      0x00\n        /* \"#utility.yul\":1416:1419   */\n      dup4\n        /* \"#utility.yul\":1412:1423   */\n      add\n        /* \"#utility.yul\":1405:1448   */\n      mstore\n        /* \"#utility.yul\":1474:1476   */\n      0x20\n        /* \"#utility.yul\":1469:1472   */\n      dup3\n        /* \"#utility.yul\":1465:1477   */\n      add\n        /* \"#utility.yul\":1458:1477   */\n      swap1\n      pop\n        /* \"#utility.yul\":1311:1483   */\n      swap2\n      swap1\n      pop\n      jump\t// out\n        /* \"#utility.yul\":1489:1861   */\n    tag_97:\n      0x00\n        /* \"#utility.yul\":1652:1719   */\n      tag_99\n        /* \"#utility.yul\":1716:1718   */\n      0x28\n        /* \"#utility.yul\":1711:1714   */\n      dup4\n        /* \"#utility.yul\":1652:1719   */\n      tag_86\n      jump\t// in\n    tag_99:\n        /* \"#utility.yul\":1645:1719   */\n      swap2\n      pop\n        /* \"#utility.yul\":1749:1783   */\n      0x5769746864726177616c20616d6f756e74206d75737420626520677265617465\n        /* \"#utility.yul\":1745:1746   */\n      0x00\n        /* \"#utility.yul\":1740:1743   */\n      dup4\n        /* \"#utility.yul\":1736:1747   */\n      add\n        /* \"#utility.yul\":1729:1784   */\n      mstore\n        /* \"#utility.yul\":1815:1825   */\n      0x72207468616e2030000000000000000000000000000000000000000000000000\n        /* \"#utility.yul\":1810:1812   */\n      0x20\n        /* \"#utility.yul\":1805:1808   */\n      dup4\n        /* \"#utility.yul\":1801:1813   */\n      add\n        /* \"#utility.yul\":1794:1826   */\n      mstore\n        /* \"#utility.yul\":1852:1854   */\n      0x40\n        /* \"#utility.yul\":1847:1850   */\n      dup3\n        /* \"#utility.yul\":1843:1855   */\n      add\n        /* \"#utility.yul\":1836:1855   */\n      swap1\n      pop\n        /* \"#utility.yul\":1635:1861   */\n      swap2\n      swap1\n      pop\n      jump\t// out\n        /* \"#utility.yul\":1867:1985   */\n    tag_100:\n        /* \"#utility.yul\":1954:1978   */\n      tag_102\n        /* \"#utility.yul\":1972:1977   */\n      dup2\n        /* \"#utility.yul\":1954:1978   */\n      tag_103\n      jump\t// in\n    tag_102:\n        /* \"#utility.yul\":1949:1952   */\n      dup3\n        /* \"#utility.yul\":1942:1979   */\n      mstore\n        /* \"#utility.yul\":1932:1985   */\n      pop\n      pop\n      jump\t// out\n        /* \"#utility.yul\":1991:2304   */\n    tag_15:\n      0x00\n        /* \"#utility.yul\":2142:2144   */\n      0x20\n        /* \"#utility.yul\":2131:2140   */\n      dup3\n        /* \"#utility.yul\":2127:2145   */\n      add\n        /* \"#utility.yul\":2119:2145   */\n      swap1\n      pop\n        /* \"#utility.yul\":2191:2200   */\n      dup2\n        /* \"#utility.yul\":2185:2189   */\n      dup2\n        /* \"#utility.yul\":2181:2201   */\n      sub\n        /* \"#utility.yul\":2177:2178   */\n      0x00\n        /* \"#utility.yul\":2166:2175   */\n      dup4\n        /* \"#utility.yul\":2162:2179   */\n      add\n        /* \"#utility.yul\":2155:2202   */\n      mstore\n        /* \"#utility.yul\":2219:2297   */\n      tag_105\n        /* \"#utility.yul\":2292:2296   */\n      dup2\n        /* \"#utility.yul\":2283:2289   */\n      dup5\n        /* \"#utility.yul\":2219:2297   */\n      tag_81\n      jump\t// in\n    tag_105:\n        /* \"#utility.yul\":2211:2297   */\n      swap1\n      pop\n        /* \"#utility.yul\":2109:2304   */\n      swap3\n      swap2\n      pop\n      pop\n      jump\t// out\n        /* \"#utility.yul\":2310:2733   */\n    tag_33:\n      0x00\n        /* \"#utility.yul\":2489:2491   */\n      0x40\n        /* \"#utility.yul\":2478:2487   */\n      dup3\n        /* \"#utility.yul\":2474:2492   */\n      add\n        /* \"#utility.yul\":2466:2492   */\n      swap1\n      pop\n        /* \"#utility.yul\":2538:2547   */\n      dup2\n        /* \"#utility.yul\":2532:2536   */\n      dup2\n        /* \"#utility.yul\":2528:2548   */\n      sub\n        /* \"#utility.yul\":2524:2525   */\n      0x00\n        /* \"#utility.yul\":2513:2522   */\n      dup4\n        /* \"#utility.yul\":2509:2526   */\n      add\n        /* \"#utility.yul\":2502:2549   */\n      mstore\n        /* \"#utility.yul\":2566:2644   */\n      tag_107\n        /* \"#utility.yul\":2639:2643   */\n      dup2\n        /* \"#utility.yul\":2630:2636   */\n      dup6\n        /* \"#utility.yul\":2566:2644   */\n      tag_81\n      jump\t// in\n    tag_107:\n        /* \"#utility.yul\":2558:2644   */\n      swap1\n      pop\n        /* \"#utility.yul\":2654:2726   */\n      tag_108\n        /* \"#utility.yul\":2722:2724   */\n      0x20\n        /* \"#utility.yul\":2711:2720   */\n      dup4\n        /* \"#utility.yul\":2707:2725   */\n      add\n        /* \"#utility.yul\":2698:2704   */\n      dup5\n        /* \"#utility.yul\":2654:2726   */\n      tag_100\n      jump\t// in\n    tag_108:\n        /* \"#utility.yul\":2456:2733   */\n      swap4\n      swap3\n      pop\n      pop\n      pop\n      jump\t// out\n        /* \"#utility.yul\":2739:3158   */\n    tag_70:\n      0x00\n        /* \"#utility.yul\":2943:2945   */\n      0x20\n        /* \"#utility.yul\":2932:2941   */\n      dup3\n        /* \"#utility.yul\":2928:2946   */\n      add\n        /* \"#utility.yul\":2920:2946   */\n      swap1\n      pop\n        /* \"#utility.yul\":2992:3001   */\n      dup2\n        /* \"#utility.yul\":2986:2990   */\n      dup2\n        /* \"#utility.yul\":2982:3002   */\n      sub\n        /* \"#utility.yul\":2978:2979   */\n      0x00\n        /* \"#utility.yul\":2967:2976   */\n      dup4\n        /* \"#utility.yul\":2963:2980   */\n      add\n        /* \"#utility.yul\":2956:3003   */\n      mstore\n        /* \"#utility.yul\":3020:3151   */\n      tag_110\n        /* \"#utility.yul\":3146:3150   */\n      dup2\n        /* \"#utility.yul\":3020:3151   */\n      tag_91\n      jump\t// in\n    tag_110:\n        /* \"#utility.yul\":3012:3151   */\n      swap1\n      pop\n        /* \"#utility.yul\":2910:3158   */\n      swap2\n      swap1\n      pop\n      jump\t// out\n        /* \"#utility.yul\":3164:3583   */\n    tag_52:\n      0x00\n        /* \"#utility.yul\":3368:3370   */\n      0x20\n        /* \"#utility.yul\":3357:3366   */\n      dup3\n        /* \"#utility.yul\":3353:3371   */\n      add\n        /* \"#utility.yul\":3345:3371   */\n      swap1\n      pop\n        /* \"#utility.yul\":3417:3426   */\n      dup2\n        /* \"#utility.yul\":3411:3415   */\n      dup2\n        /* \"#utility.yul\":3407:3427   */\n      sub\n        /* \"#utility.yul\":3403:3404   */\n      0x00\n        /* \"#utility.yul\":3392:3401   */\n      dup4\n        /* \"#utility.yul\":3388:3405   */\n      add\n        /* \"#utility.yul\":3381:3428   */\n      mstore\n        /* \"#utility.yul\":3445:3576   */\n      tag_112\n        /* \"#utility.yul\":3571:3575   */\n      dup2\n        /* \"#utility.yul\":3445:3576   */\n      tag_94\n      jump\t// in\n    tag_112:\n        /* \"#utility.yul\":3437:3576   */\n      swap1\n      pop\n        /* \"#utility.yul\":3335:3583   */\n      swap2\n      swap1\n      pop\n      jump\t// out\n        /* \"#utility.yul\":3589:4008   */\n    tag_49:\n      0x00\n        /* \"#utility.yul\":3793:3795   */\n      0x20\n        /* \"#utility.yul\":3782:3791   */\n      dup3\n        /* \"#utility.yul\":3778:3796   */\n      add\n        /* \"#utility.yul\":3770:3796   */\n      swap1\n      pop\n        /* \"#utility.yul\":3842:3851   */\n      dup2\n        /* \"#utility.yul\":3836:3840   */\n      dup2\n        /* \"#utility.yul\":3832:3852   */\n      sub\n        /* \"#utility.yul\":3828:3829   */\n      0x00\n        /* \"#utility.yul\":3817:3826   */\n      dup4\n        /* \"#utility.yul\":3813:3830   */\n      add\n        /* \"#utility.yul\":3806:3853   */\n      mstore\n        /* \"#utility.yul\":3870:4001   */\n      tag_114\n        /* \"#utility.yul\":3996:4000   */\n      dup2\n        /* \"#utility.yul\":3870:4001   */\n      tag_97\n      jump\t// in\n    tag_114:\n        /* \"#utility.yul\":3862:4001   */\n      swap1\n      pop\n        /* \"#utility.yul\":3760:4008   */\n      swap2\n      swap1\n      pop\n      jump\t// out\n        /* \"#utility.yul\":4014:4236   */\n    tag_23:\n      0x00\n        /* \"#utility.yul\":4145:4147   */\n      0x20\n        /* \"#utility.yul\":4134:4143   */\n      dup3\n        /* \"#utility.yul\":4130:4148   */\n      add\n        /* \"#utility.yul\":4122:4148   */\n      swap1\n      pop\n        /* \"#utility.yul\":4158:4229   */\n      tag_116\n        /* \"#utility.yul\":4226:4227   */\n      0x00\n        /* \"#utility.yul\":4215:4224   */\n      dup4\n        /* \"#utility.yul\":4211:4228   */\n      add\n        /* \"#utility.yul\":4202:4208   */\n      dup5\n        /* \"#utility.yul\":4158:4229   */\n      tag_100\n      jump\t// in\n    tag_116:\n        /* \"#utility.yul\":4112:4236   */\n      swap3\n      swap2\n      pop\n      pop\n      jump\t// out\n        /* \"#utility.yul\":4242:4341   */\n    tag_84:\n      0x00\n        /* \"#utility.yul\":4328:4333   */\n      dup2\n        /* \"#utility.yul\":4322:4334   */\n      mload\n        /* \"#utility.yul\":4312:4334   */\n      swap1\n      pop\n        /* \"#utility.yul\":4301:4341   */\n      swap2\n      swap1\n      pop\n      jump\t// out\n        /* \"#utility.yul\":4347:4516   */\n    tag_86:\n      0x00\n        /* \"#utility.yul\":4465:4471   */\n      dup3\n        /* \"#utility.yul\":4460:4463   */\n      dup3\n        /* \"#utility.yul\":4453:4472   */\n      mstore\n        /* \"#utility.yul\":4505:4509   */\n      0x20\n        /* \"#utility.yul\":4500:4503   */\n      dup3\n        /* \"#utility.yul\":4496:4510   */\n      add\n        /* \"#utility.yul\":4481:4510   */\n      swap1\n      pop\n        /* \"#utility.yul\":4443:4516   */\n      swap3\n      swap2\n      pop\n      pop\n      jump\t// out\n        /* \"#utility.yul\":4522:4827   */\n    tag_72:\n      0x00\n        /* \"#utility.yul\":4581:4601   */\n      tag_120\n        /* \"#utility.yul\":4599:4600   */\n      dup3\n        /* \"#utility.yul\":4581:4601   */\n      tag_103\n      jump\t// in\n    tag_120:\n        /* \"#utility.yul\":4576:4601   */\n      swap2\n      pop\n        /* \"#utility.yul\":4615:4635   */\n      tag_121\n        /* \"#utility.yul\":4633:4634   */\n      dup4\n        /* \"#utility.yul\":4615:4635   */\n      tag_103\n      jump\t// in\n    tag_121:\n        /* \"#utility.yul\":4610:4635   */\n      swap3\n      pop\n        /* \"#utility.yul\":4769:4770   */\n      dup3\n        /* \"#utility.yul\":4701:4767   */\n      0xffffffffffffffffffffffffffffffffffffffffffffffffffffffffffffffff\n        /* \"#utility.yul\":4697:4771   */\n      sub\n        /* \"#utility.yul\":4694:4695   */\n      dup3\n        /* \"#utility.yul\":4691:4772   */\n      gt\n        /* \"#utility.yul\":4688:4690   */\n      iszero\n      tag_122\n      jumpi\n        /* \"#utility.yul\":4775:4793   */\n      tag_123\n      tag_124\n      jump\t// in\n    tag_123:\n        /* \"#utility.yul\":4688:4690   */\n    tag_122:\n        /* \"#utility.yul\":4819:4820   */\n      dup3\n        /* \"#utility.yul\":4816:4817   */\n      dup3\n        /* \"#utility.yul\":4812:4821   */\n      add\n        /* \"#utility.yul\":4805:4821   */\n      swap1\n      pop\n        /* \"#utility.yul\":4566:4827   */\n      swap3\n      swap2\n      pop\n      pop\n      jump\t// out\n        /* \"#utility.yul\":4833:5024   */\n    tag_54:\n      0x00\n        /* \"#utility.yul\":4893:4913   */\n      tag_126\n        /* \"#utility.yul\":4911:4912   */\n      dup3\n        /* \"#utility.yul\":4893:4913   */\n      tag_103\n      jump\t// in\n    tag_126:\n        /* \"#utility.yul\":4888:4913   */\n      swap2\n      pop\n        /* \"#utility.yul\":4927:4947   */\n      tag_127\n        /* \"#utility.yul\":4945:4946   */\n      dup4\n        /* \"#utility.yul\":4927:4947   */\n      tag_103\n      jump\t// in\n    tag_127:\n        /* \"#utility.yul\":4922:4947   */\n      swap3\n      pop\n        /* \"#utility.yul\":4966:4967   */\n      dup3\n        /* \"#utility.yul\":4963:4964   */\n      dup3\n        /* \"#utility.yul\":4960:4968   */\n      lt\n        /* \"#utility.yul\":4957:4959   */\n      iszero\n      tag_128\n      jumpi\n        /* \"#utility.yul\":4971:4989   */\n      tag_129\n      tag_124\n      jump\t// in\n    tag_129:\n        /* \"#utility.yul\":4957:4959   */\n    tag_128:\n        /* \"#utility.yul\":5016:5017   */\n      dup3\n        /* \"#utility.yul\":5013:5014   */\n      dup3\n        /* \"#utility.yul\":5009:5018   */\n      sub\n        /* \"#utility.yul\":5001:5018   */\n      swap1\n      pop\n        /* \"#utility.yul\":4878:5024   */\n      swap3\n      swap2\n      pop\n      pop\n      jump\t// out\n        /* \"#utility.yul\":5030:5107   */\n    tag_103:\n      0x00\n        /* \"#utility.yul\":5096:5101   */\n      dup2\n        /* \"#utility.yul\":5085:5101   */\n      swap1\n      pop\n        /* \"#utility.yul\":5075:5107   */\n      swap2\n      swap1\n      pop\n      jump\t// out\n        /* \"#utility.yul\":5113:5420   */\n    tag_88:\n        /* \"#utility.yul\":5181:5182   */\n      0x00\n        /* \"#utility.yul\":5191:5304   */\n    tag_132:\n        /* \"#utility.yul\":5205:5211   */\n      dup4\n        /* \"#utility.yul\":5202:5203   */\n      dup2\n        /* \"#utility.yul\":5199:5212   */\n      lt\n        /* \"#utility.yul\":5191:5304   */\n      iszero\n      tag_134\n      jumpi\n        /* \"#utility.yul\":5290:5291   */\n      dup1\n        /* \"#utility.yul\":5285:5288   */\n      dup3\n        /* \"#utility.yul\":5281:5292   */\n      add\n        /* \"#utility.yul\":5275:5293   */\n      mload\n        /* \"#utility.yul\":5271:5272   */\n      dup2\n        /* \"#utility.yul\":5266:5269   */\n      dup5\n        /* \"#utility.yul\":5262:5273   */\n      add\n        /* \"#utility.yul\":5255:5294   */\n      mstore\n        /* \"#utility.yul\":5227:5229   */\n      0x20\n        /* \"#utility.yul\":5224:5225   */\n      dup2\n        /* \"#utility.yul\":5220:5230   */\n      add\n        /* \"#utility.yul\":5215:5230   */\n      swap1\n      pop\n        /* \"#utility.yul\":5191:5304   */\n      jump(tag_132)\n    tag_134:\n        /* \"#utility.yul\":5322:5328   */\n      dup4\n        /* \"#utility.yul\":5319:5320   */\n      dup2\n        /* \"#utility.yul\":5316:5329   */\n      gt\n        /* \"#utility.yul\":5313:5315   */\n      iszero\n      tag_135\n      jumpi\n        /* \"#utility.yul\":5402:5403   */\n      0x00\n        /* \"#utility.yul\":5393:5399   */\n      dup5\n        /* \"#utility.yul\":5388:5391   */\n      dup5\n        /* \"#utility.yul\":5384:5400   */\n      add\n        /* \"#utility.yul\":5377:5404   */\n      mstore\n        /* \"#utility.yul\":5313:5315   */\n    tag_135:\n        /* \"#utility.yul\":5162:5420   */\n      pop\n      pop\n      pop\n      pop\n      jump\t// out\n        /* \"#utility.yul\":5426:5746   */\n    tag_41:\n      0x00\n        /* \"#utility.yul\":5507:5508   */\n      0x02\n        /* \"#utility.yul\":5501:5505   */\n      dup3\n        /* \"#utility.yul\":5497:5509   */\n      div\n        /* \"#utility.yul\":5487:5509   */\n      swap1\n      pop\n        /* \"#utility.yul\":5554:5555   */\n      0x01\n        /* \"#utility.yul\":5548:5552   */\n      dup3\n        /* \"#utility.yul\":5544:5556   */\n      and\n        /* \"#utility.yul\":5575:5593   */\n      dup1\n        /* \"#utility.yul\":5565:5567   */\n      tag_137\n      jumpi\n        /* \"#utility.yul\":5631:5635   */\n      0x7f\n        /* \"#utility.yul\":5623:5629   */\n      dup3\n        /* \"#utility.yul\":5619:5636   */\n      and\n        /* \"#utility.yul\":5609:5636   */\n      swap2\n      pop\n        /* \"#utility.yul\":5565:5567   */\n    tag_137:\n        /* \"#utility.yul\":5693:5695   */\n      0x20\n        /* \"#utility.yul\":5685:5691   */\n      dup3\n        /* \"#utility.yul\":5682:5696   */\n      lt\n        /* \"#utility.yul\":5662:5680   */\n      dup2\n        /* \"#utility.yul\":5659:5697   */\n      eq\n        /* \"#utility.yul\":5656:5658   */\n      iszero\n      tag_138\n      jumpi\n        /* \"#utility.yul\":5712:5730   */\n      tag_139\n      tag_140\n      jump\t// in\n    tag_139:\n        /* \"#utility.yul\":5656:5658   */\n    tag_138:\n        /* \"#utility.yul\":5477:5746   */\n      pop\n      swap2\n      swap1\n      pop\n      jump\t// out\n        /* \"#utility.yul\":5752:5932   */\n    tag_124:\n        /* \"#utility.yul\":5800:5877   */\n      0x4e487b7100000000000000000000000000000000000000000000000000000000\n        /* \"#utility.yul\":5797:5798   */\n      0x00\n        /* \"#utility.yul\":5790:5878   */\n      mstore\n        /* \"#utility.yul\":5897:5901   */\n      0x11\n        /* \"#utility.yul\":5894:5895   */\n      0x04\n        /* \"#utility.yul\":5887:5902   */\n      mstore\n        /* \"#utility.yul\":5921:5925   */\n      0x24\n        /* \"#utility.yul\":5918:5919   */\n      0x00\n        /* \"#utility.yul\":5911:5926   */\n      revert\n        /* \"#utility.yul\":5938:6118   */\n    tag_140:\n        /* \"#utility.yul\":5986:6063   */\n      0x4e487b7100000000000000000000000000000000000000000000000000000000\n        /* \"#utility.yul\":5983:5984   */\n      0x00\n        /* \"#utility.yul\":5976:6064   */\n      mstore\n        /* \"#utility.yul\":6083:6087   */\n      0x22\n        /* \"#utility.yul\":6080:6081   */\n      0x04\n        /* \"#utility.yul\":6073:6088   */\n      mstore\n        /* \"#utility.yul\":6107:6111   */\n      0x24\n        /* \"#utility.yul\":6104:6105   */\n      0x00\n        /* \"#utility.yul\":6097:6112   */\n      revert\n        /* \"#utility.yul\":6124:6226   */\n    tag_90:\n      0x00\n        /* \"#utility.yul\":6216:6218   */\n      0x1f\n        /* \"#utility.yul\":6212:6219   */\n      not\n        /* \"#utility.yul\":6207:6209   */\n      0x1f\n        /* \"#utility.yul\":6200:6205   */\n      dup4\n        /* \"#utility.yul\":6196:6210   */\n      add\n        /* \"#utility.yul\":6192:6220   */\n      and\n        /* \"#utility.yul\":6182:6220   */\n      swap1\n      pop\n        /* \"#utility.yul\":6172:6226   */\n      swap2\n      swap1\n      pop\n      jump\t// out\n        /* \"#utility.yul\":6232:6354   */\n    tag_77:\n        /* \"#utility.yul\":6305:6329   */\n      tag_145\n        /* \"#utility.yul\":6323:6328   */\n      dup2\n        /* \"#utility.yul\":6305:6329   */\n      tag_103\n      jump\t// in\n    tag_145:\n        /* \"#utility.yul\":6298:6303   */\n      dup2\n        /* \"#utility.yul\":6295:6330   */\n      eq\n        /* \"#utility.yul\":6285:6287   */\n      tag_146\n      jumpi\n        /* \"#utility.yul\":6344:6345   */\n      0x00\n        /* \"#utility.yul\":6341:6342   */\n      dup1\n        /* \"#utility.yul\":6334:6346   */\n      revert\n        /* \"#utility.yul\":6285:6287   */\n    tag_146:\n        /* \"#utility.yul\":6275:6354   */\n      pop\n      jump\t// out\n\n    auxdata: 0xa26469706673582212200152328703eb70eaf44b7e17075c78260654e12bdf7a2bd115e73827e3b0d6f164736f6c63430008000033\n}\n",
				"bytecode": {
					"linkReferences": {},
					"object": "60806040523480156200001157600080fd5b5060405162000c2238038062000c228339818101604052810190620000379190620001ba565b82600090805190602001906200004f92919062000081565b508160018190555080600290805190602001906200006f92919062000081565b50600060038190555050505062000397565b8280546200008f90620002e9565b90600052602060002090601f016020900481019282620000b35760008555620000ff565b82601f10620000ce57805160ff1916838001178555620000ff565b82800160010185558215620000ff579182015b82811115620000fe578251825591602001919060010190620000e1565b5b5090506200010e919062000112565b5090565b5b808211156200012d57600081600090555060010162000113565b5090565b600062000148620001428462000276565b62000242565b9050828152602081018484840111156200016157600080fd5b6200016e848285620002b3565b509392505050565b600082601f8301126200018857600080fd5b81516200019a84826020860162000131565b91505092915050565b600081519050620001b4816200037d565b92915050565b600080600060608486031215620001d057600080fd5b600084015167ffffffffffffffff811115620001eb57600080fd5b620001f98682870162000176565b93505060206200020c86828701620001a3565b925050604084015167ffffffffffffffff8111156200022a57600080fd5b620002388682870162000176565b9150509250925092565b6000604051905081810181811067ffffffffffffffff821117156200026c576200026b6200034e565b5b8060405250919050565b600067ffffffffffffffff8211156200029457620002936200034e565b5b601f19601f8301169050602081019050919050565b6000819050919050565b60005b83811015620002d3578082015181840152602081019050620002b6565b83811115620002e3576000848401525b50505050565b600060028204905060018216806200030257607f821691505b602082108114156200031957620003186200031f565b5b50919050565b7f4e487b7100000000000000000000000000000000000000000000000000000000600052602260045260246000fd5b7f4e487b7100000000000000000000000000000000000000000000000000000000600052604160045260246000fd5b6200038881620002a9565b81146200039457600080fd5b50565b61087b80620003a76000396000f3fe608060405234801561001057600080fd5b50600436106100885760003560e01c806395eec3c91161005b57806395eec3c914610103578063a348475e14610121578063b69ef8a814610140578063b6b55f251461015e57610088565b806301dca6861461008d5780632e1a7d4d146100ab578063375974eb146100c75780633c7d73d8146100e5575b600080fd5b61009561017a565b6040516100a291906105dd565b60405180910390f35b6100c560048036038101906100c09190610460565b610208565b005b6100cf6102ac565b6040516100dc919061068f565b60405180910390f35b6100ed6102b2565b6040516100fa919061068f565b60405180910390f35b61010b6102bc565b60405161011891906105dd565b60405180910390f35b61012961034a565b6040516101379291906105ff565b60405180910390f35b6101486103e6565b604051610155919061068f565b60405180910390f35b61017860048036038101906101739190610460565b6103ec565b005b600080546101879061078d565b80601f01602080910402602001604051908101604052809291908181526020018280546101b39061078d565b80156102005780601f106101d557610100808354040283529160200191610200565b820191906000526020600020905b8154815290600101906020018083116101e357829003601f168201915b505050505081565b6000811161024b576040517f08c379a00000000000000000000000000000000000000000000000000000000081526004016102429061066f565b60405180910390fd5b600354811115610290576040517f08c379a00000000000000000000000000000000000000000000000000000000081526004016102879061064f565b60405180910390fd5b80600360008282546102a2919061071c565b9250508190555050565b60015481565b6000600354905090565b600280546102c99061078d565b80601f01602080910402602001604051908101604052809291908181526020018280546102f59061078d565b80156103425780601f1061031757610100808354040283529160200191610342565b820191906000526020600020905b81548152906001019060200180831161032557829003601f168201915b505050505081565b606060008060035481805461035e9061078d565b80601f016020809104026020016040519081016040528092919081815260200182805461038a9061078d565b80156103d75780601f106103ac576101008083540402835291602001916103d7565b820191906000526020600020905b8154815290600101906020018083116103ba57829003601f168201915b50505050509150915091509091565b60035481565b6000811161042f576040517f08c379a00000000000000000000000000000000000000000000000000000000081526004016104269061062f565b60405180910390fd5b806003600082825461044191906106c6565b9250508190555050565b60008135905061045a8161082e565b92915050565b60006020828403121561047257600080fd5b60006104808482850161044b565b91505092915050565b6000610494826106aa565b61049e81856106b5565b93506104ae81856020860161075a565b6104b78161081d565b840191505092915050565b60006104cf6025836106b5565b91507f4465706f73697420616d6f756e74206d7573742062652067726561746572207460008301527f68616e20300000000000000000000000000000000000000000000000000000006020830152604082019050919050565b60006105356014836106b5565b91507f496e73756666696369656e742062616c616e63650000000000000000000000006000830152602082019050919050565b60006105756028836106b5565b91507f5769746864726177616c20616d6f756e74206d7573742062652067726561746560008301527f72207468616e20300000000000000000000000000000000000000000000000006020830152604082019050919050565b6105d781610750565b82525050565b600060208201905081810360008301526105f78184610489565b905092915050565b600060408201905081810360008301526106198185610489565b905061062860208301846105ce565b9392505050565b60006020820190508181036000830152610648816104c2565b9050919050565b6000602082019050818103600083015261066881610528565b9050919050565b6000602082019050818103600083015261068881610568565b9050919050565b60006020820190506106a460008301846105ce565b92915050565b600081519050919050565b600082825260208201905092915050565b60006106d182610750565b91506106dc83610750565b9250827fffffffffffffffffffffffffffffffffffffffffffffffffffffffffffffffff03821115610711576107106107bf565b5b828201905092915050565b600061072782610750565b915061073283610750565b925082821015610745576107446107bf565b5b828203905092915050565b6000819050919050565b60005b8381101561077857808201518184015260208101905061075d565b83811115610787576000848401525b50505050565b600060028204905060018216806107a557607f821691505b602082108114156107b9576107b86107ee565b5b50919050565b7f4e487b7100000000000000000000000000000000000000000000000000000000600052601160045260246000fd5b7f4e487b7100000000000000000000000000000000000000000000000000000000600052602260045260246000fd5b6000601f19601f8301169050919050565b61083781610750565b811461084257600080fd5b5056fea26469706673582212200152328703eb70eaf44b7e17075c78260654e12bdf7a2bd115e73827e3b0d6f164736f6c63430008000033",
					"opcodes": "PUSH1 0x80 PUSH1 0x40 MSTORE CALLVALUE DUP1 ISZERO PUSH3 0x11 JUMPI PUSH1 0x0 DUP1 REVERT JUMPDEST POP PUSH1 0x40 MLOAD PUSH3 0xC22 CODESIZE SUB DUP1 PUSH3 0xC22 DUP4 CODECOPY DUP2 DUP2 ADD PUSH1 0x40 MSTORE DUP2 ADD SWAP1 PUSH3 0x37 SWAP2 SWAP1 PUSH3 0x1BA JUMP JUMPDEST DUP3 PUSH1 0x0 SWAP1 DUP1 MLOAD SWAP1 PUSH1 0x20 ADD SWAP1 PUSH3 0x4F SWAP3 SWAP2 SWAP1 PUSH3 0x81 JUMP JUMPDEST POP DUP2 PUSH1 0x1 DUP2 SWAP1 SSTORE POP DUP1 PUSH1 0x2 SWAP1 DUP1 MLOAD SWAP1 PUSH1 0x20 ADD SWAP1 PUSH3 0x6F SWAP3 SWAP2 SWAP1 PUSH3 0x81 JUMP JUMPDEST POP PUSH1 0x0 PUSH1 0x3 DUP2 SWAP1 SSTORE POP POP POP POP PUSH3 0x397 JUMP JUMPDEST DUP3 DUP1 SLOAD PUSH3 0x8F SWAP1 PUSH3 0x2E9 JUMP JUMPDEST SWAP1 PUSH1 0x0 MSTORE PUSH1 0x20 PUSH1 0x0 KECCAK256 SWAP1 PUSH1 0x1F ADD PUSH1 0x20 SWAP1 DIV DUP2 ADD SWAP3 DUP3 PUSH3 0xB3 JUMPI PUSH1 0x0 DUP6 SSTORE PUSH3 0xFF JUMP JUMPDEST DUP3 PUSH1 0x1F LT PUSH3 0xCE JUMPI DUP1 MLOAD PUSH1 0xFF NOT AND DUP4 DUP1 ADD OR DUP6 SSTORE PUSH3 0xFF JUMP JUMPDEST DUP3 DUP1 ADD PUSH1 0x1 ADD DUP6 SSTORE DUP3 ISZERO PUSH3 0xFF JUMPI SWAP2 DUP3 ADD JUMPDEST DUP3 DUP2 GT ISZERO PUSH3 0xFE JUMPI DUP3 MLOAD DUP3 SSTORE SWAP2 PUSH1 0x20 ADD SWAP2 SWAP1 PUSH1 0x1 ADD SWAP1 PUSH3 0xE1 JUMP JUMPDEST JUMPDEST POP SWAP1 POP PUSH3 0x10E SWAP2 SWAP1 PUSH3 0x112 JUMP JUMPDEST POP SWAP1 JUMP JUMPDEST JUMPDEST DUP1 DUP3 GT ISZERO PUSH3 0x12D JUMPI PUSH1 0x0 DUP2 PUSH1 0x0 SWAP1 SSTORE POP PUSH1 0x1 ADD PUSH3 0x113 JUMP JUMPDEST POP SWAP1 JUMP JUMPDEST PUSH1 0x0 PUSH3 0x148 PUSH3 0x142 DUP5 PUSH3 0x276 JUMP JUMPDEST PUSH3 0x242 JUMP JUMPDEST SWAP1 POP DUP3 DUP2 MSTORE PUSH1 0x20 DUP2 ADD DUP5 DUP5 DUP5 ADD GT ISZERO PUSH3 0x161 JUMPI PUSH1 0x0 DUP1 REVERT JUMPDEST PUSH3 0x16E DUP5 DUP3 DUP6 PUSH3 0x2B3 JUMP JUMPDEST POP SWAP4 SWAP3 POP POP POP JUMP JUMPDEST PUSH1 0x0 DUP3 PUSH1 0x1F DUP4 ADD SLT PUSH3 0x188 JUMPI PUSH1 0x0 DUP1 REVERT JUMPDEST DUP2 MLOAD PUSH3 0x19A DUP5 DUP3 PUSH1 0x20 DUP7 ADD PUSH3 0x131 JUMP JUMPDEST SWAP2 POP POP SWAP3 SWAP2 POP POP JUMP JUMPDEST PUSH1 0x0 DUP2 MLOAD SWAP1 POP PUSH3 0x1B4 DUP2 PUSH3 0x37D JUMP JUMPDEST SWAP3 SWAP2 POP POP JUMP JUMPDEST PUSH1 0x0 DUP1 PUSH1 0x0 PUSH1 0x60 DUP5 DUP7 SUB SLT ISZERO PUSH3 0x1D0 JUMPI PUSH1 0x0 DUP1 REVERT JUMPDEST PUSH1 0x0 DUP5 ADD MLOAD PUSH8 0xFFFFFFFFFFFFFFFF DUP2 GT ISZERO PUSH3 0x1EB JUMPI PUSH1 0x0 DUP1 REVERT JUMPDEST PUSH3 0x1F9 DUP7 DUP3 DUP8 ADD PUSH3 0x176 JUMP JUMPDEST SWAP4 POP POP PUSH1 0x20 PUSH3 0x20C DUP7 DUP3 DUP8 ADD PUSH3 0x1A3 JUMP JUMPDEST SWAP3 POP POP PUSH1 0x40 DUP5 ADD MLOAD PUSH8 0xFFFFFFFFFFFFFFFF DUP2 GT ISZERO PUSH3 0x22A JUMPI PUSH1 0x0 DUP1 REVERT JUMPDEST PUSH3 0x238 DUP7 DUP3 DUP8 ADD PUSH3 0x176 JUMP JUMPDEST SWAP2 POP POP SWAP3 POP SWAP3 POP SWAP3 JUMP JUMPDEST PUSH1 0x0 PUSH1 0x40 MLOAD SWAP1 POP DUP2 DUP2 ADD DUP2 DUP2 LT PUSH8 0xFFFFFFFFFFFFFFFF DUP3 GT OR ISZERO PUSH3 0x26C JUMPI PUSH3 0x26B PUSH3 0x34E JUMP JUMPDEST JUMPDEST DUP1 PUSH1 0x40 MSTORE POP SWAP2 SWAP1 POP JUMP JUMPDEST PUSH1 0x0 PUSH8 0xFFFFFFFFFFFFFFFF DUP3 GT ISZERO PUSH3 0x294 JUMPI PUSH3 0x293 PUSH3 0x34E JUMP JUMPDEST JUMPDEST PUSH1 0x1F NOT PUSH1 0x1F DUP4 ADD AND SWAP1 POP PUSH1 0x20 DUP2 ADD SWAP1 POP SWAP2 SWAP1 POP JUMP JUMPDEST PUSH1 0x0 DUP2 SWAP1 POP SWAP2 SWAP1 POP JUMP JUMPDEST PUSH1 0x0 JUMPDEST DUP4 DUP2 LT ISZERO PUSH3 0x2D3 JUMPI DUP1 DUP3 ADD MLOAD DUP2 DUP5 ADD MSTORE PUSH1 0x20 DUP2 ADD SWAP1 POP PUSH3 0x2B6 JUMP JUMPDEST DUP4 DUP2 GT ISZERO PUSH3 0x2E3 JUMPI PUSH1 0x0 DUP5 DUP5 ADD MSTORE JUMPDEST POP POP POP POP JUMP JUMPDEST PUSH1 0x0 PUSH1 0x2 DUP3 DIV SWAP1 POP PUSH1 0x1 DUP3 AND DUP1 PUSH3 0x302 JUMPI PUSH1 0x7F DUP3 AND SWAP2 POP JUMPDEST PUSH1 0x20 DUP3 LT DUP2 EQ ISZERO PUSH3 0x319 JUMPI PUSH3 0x318 PUSH3 0x31F JUMP JUMPDEST JUMPDEST POP SWAP2 SWAP1 POP JUMP JUMPDEST PUSH32 0x4E487B7100000000000000000000000000000000000000000000000000000000 PUSH1 0x0 MSTORE PUSH1 0x22 PUSH1 0x4 MSTORE PUSH1 0x24 PUSH1 0x0 REVERT JUMPDEST PUSH32 0x4E487B7100000000000000000000000000000000000000000000000000000000 PUSH1 0x0 MSTORE PUSH1 0x41 PUSH1 0x4 MSTORE PUSH1 0x24 PUSH1 0x0 REVERT JUMPDEST PUSH3 0x388 DUP2 PUSH3 0x2A9 JUMP JUMPDEST DUP2 EQ PUSH3 0x394 JUMPI PUSH1 0x0 DUP1 REVERT JUMPDEST POP JUMP JUMPDEST PUSH2 0x87B DUP1 PUSH3 0x3A7 PUSH1 0x0 CODECOPY PUSH1 0x0 RETURN INVALID PUSH1 0x80 PUSH1 0x40 MSTORE CALLVALUE DUP1 ISZERO PUSH2 0x10 JUMPI PUSH1 0x0 DUP1 REVERT JUMPDEST POP PUSH1 0x4 CALLDATASIZE LT PUSH2 0x88 JUMPI PUSH1 0x0 CALLDATALOAD PUSH1 0xE0 SHR DUP1 PUSH4 0x95EEC3C9 GT PUSH2 0x5B JUMPI DUP1 PUSH4 0x95EEC3C9 EQ PUSH2 0x103 JUMPI DUP1 PUSH4 0xA348475E EQ PUSH2 0x121 JUMPI DUP1 PUSH4 0xB69EF8A8 EQ PUSH2 0x140 JUMPI DUP1 PUSH4 0xB6B55F25 EQ PUSH2 0x15E JUMPI PUSH2 0x88 JUMP JUMPDEST DUP1 PUSH4 0x1DCA686 EQ PUSH2 0x8D JUMPI DUP1 PUSH4 0x2E1A7D4D EQ PUSH2 0xAB JUMPI DUP1 PUSH4 0x375974EB EQ PUSH2 0xC7 JUMPI DUP1 PUSH4 0x3C7D73D8 EQ PUSH2 0xE5 JUMPI JUMPDEST PUSH1 0x0 DUP1 REVERT JUMPDEST PUSH2 0x95 PUSH2 0x17A JUMP JUMPDEST PUSH1 0x40 MLOAD PUSH2 0xA2 SWAP2 SWAP1 PUSH2 0x5DD JUMP JUMPDEST PUSH1 0x40 MLOAD DUP1 SWAP2 SUB SWAP1 RETURN JUMPDEST PUSH2 0xC5 PUSH1 0x4 DUP1 CALLDATASIZE SUB DUP2 ADD SWAP1 PUSH2 0xC0 SWAP2 SWAP1 PUSH2 0x460 JUMP JUMPDEST PUSH2 0x208 JUMP JUMPDEST STOP JUMPDEST PUSH2 0xCF PUSH2 0x2AC JUMP JUMPDEST PUSH1 0x40 MLOAD PUSH2 0xDC SWAP2 SWAP1 PUSH2 0x68F JUMP JUMPDEST PUSH1 0x40 MLOAD DUP1 SWAP2 SUB SWAP1 RETURN JUMPDEST PUSH2 0xED PUSH2 0x2B2 JUMP JUMPDEST PUSH1 0x40 MLOAD PUSH2 0xFA SWAP2 SWAP1 PUSH2 0x68F JUMP JUMPDEST PUSH1 0x40 MLOAD DUP1 SWAP2 SUB SWAP1 RETURN JUMPDEST PUSH2 0x10B PUSH2 0x2BC JUMP JUMPDEST PUSH1 0x40 MLOAD PUSH2 0x118 SWAP2 SWAP1 PUSH2 0x5DD JUMP JUMPDEST PUSH1 0x40 MLOAD DUP1 SWAP2 SUB SWAP1 RETURN JUMPDEST PUSH2 0x129 PUSH2 0x34A JUMP JUMPDEST PUSH1 0x40 MLOAD PUSH2 0x137 SWAP3 SWAP2 SWAP1 PUSH2 0x5FF JUMP JUMPDEST PUSH1 0x40 MLOAD DUP1 SWAP2 SUB SWAP1 RETURN JUMPDEST PUSH2 0x148 PUSH2 0x3E6 JUMP JUMPDEST PUSH1 0x40 MLOAD PUSH2 0x155 SWAP2 SWAP1 PUSH2 0x68F JUMP JUMPDEST PUSH1 0x40 MLOAD DUP1 SWAP2 SUB SWAP1 RETURN JUMPDEST PUSH2 0x178 PUSH1 0x4 DUP1 CALLDATASIZE SUB DUP2 ADD SWAP1 PUSH2 0x173 SWAP2 SWAP1 PUSH2 0x460 JUMP JUMPDEST PUSH2 0x3EC JUMP JUMPDEST STOP JUMPDEST PUSH1 0x0 DUP1 SLOAD PUSH2 0x187 SWAP1 PUSH2 0x78D JUMP JUMPDEST DUP1 PUSH1 0x1F ADD PUSH1 0x20 DUP1 SWAP2 DIV MUL PUSH1 0x20 ADD PUSH1 0x40 MLOAD SWAP1 DUP2 ADD PUSH1 0x40 MSTORE DUP1 SWAP3 SWAP2 SWAP1 DUP2 DUP2 MSTORE PUSH1 0x20 ADD DUP3 DUP1 SLOAD PUSH2 0x1B3 SWAP1 PUSH2 0x78D JUMP JUMPDEST DUP1 ISZERO PUSH2 0x200 JUMPI DUP1 PUSH1 0x1F LT PUSH2 0x1D5 JUMPI PUSH2 0x100 DUP1 DUP4 SLOAD DIV MUL DUP4 MSTORE SWAP2 PUSH1 0x20 ADD SWAP2 PUSH2 0x200 JUMP JUMPDEST DUP3 ADD SWAP2 SWAP1 PUSH1 0x0 MSTORE PUSH1 0x20 PUSH1 0x0 KECCAK256 SWAP1 JUMPDEST DUP2 SLOAD DUP2 MSTORE SWAP1 PUSH1 0x1 ADD SWAP1 PUSH1 0x20 ADD DUP1 DUP4 GT PUSH2 0x1E3 JUMPI DUP3 SWAP1 SUB PUSH1 0x1F AND DUP3 ADD SWAP2 JUMPDEST POP POP POP POP POP DUP2 JUMP JUMPDEST PUSH1 0x0 DUP2 GT PUSH2 0x24B JUMPI PUSH1 0x40 MLOAD PUSH32 0x8C379A000000000000000000000000000000000000000000000000000000000 DUP2 MSTORE PUSH1 0x4 ADD PUSH2 0x242 SWAP1 PUSH2 0x66F JUMP JUMPDEST PUSH1 0x40 MLOAD DUP1 SWAP2 SUB SWAP1 REVERT JUMPDEST PUSH1 0x3 SLOAD DUP2 GT ISZERO PUSH2 0x290 JUMPI PUSH1 0x40 MLOAD PUSH32 0x8C379A000000000000000000000000000000000000000000000000000000000 DUP2 MSTORE PUSH1 0x4 ADD PUSH2 0x287 SWAP1 PUSH2 0x64F JUMP JUMPDEST PUSH1 0x40 MLOAD DUP1 SWAP2 SUB SWAP1 REVERT JUMPDEST DUP1 PUSH1 0x3 PUSH1 0x0 DUP3 DUP3 SLOAD PUSH2 0x2A2 SWAP2 SWAP1 PUSH2 0x71C JUMP JUMPDEST SWAP3 POP POP DUP2 SWAP1 SSTORE POP POP JUMP JUMPDEST PUSH1 0x1 SLOAD DUP2 JUMP JUMPDEST PUSH1 0x0 PUSH1 0x3 SLOAD SWAP1 POP SWAP1 JUMP JUMPDEST PUSH1 0x2 DUP1 SLOAD PUSH2 0x2C9 SWAP1 PUSH2 0x78D JUMP JUMPDEST DUP1 PUSH1 0x1F ADD PUSH1 0x20 DUP1 SWAP2 DIV MUL PUSH1 0x20 ADD PUSH1 0x40 MLOAD SWAP1 DUP2 ADD PUSH1 0x40 MSTORE DUP1 SWAP3 SWAP2 SWAP1 DUP2 DUP2 MSTORE PUSH1 0x20 ADD DUP3 DUP1 SLOAD PUSH2 0x2F5 SWAP1 PUSH2 0x78D JUMP JUMPDEST DUP1 ISZERO PUSH2 0x342 JUMPI DUP1 PUSH1 0x1F LT PUSH2 0x317 JUMPI PUSH2 0x100 DUP1 DUP4 SLOAD DIV MUL DUP4 MSTORE SWAP2 PUSH1 0x20 ADD SWAP2 PUSH2 0x342 JUMP JUMPDEST DUP3 ADD SWAP2 SWAP1 PUSH1 0x0 MSTORE PUSH1 0x20 PUSH1 0x0 KECCAK256 SWAP1 JUMPDEST DUP2 SLOAD DUP2 MSTORE SWAP1 PUSH1 0x1 ADD SWAP1 PUSH1 0x20 ADD DUP1 DUP4 GT PUSH2 0x325 JUMPI DUP3 SWAP1 SUB PUSH1 0x1F AND DUP3 ADD SWAP2 JUMPDEST POP POP POP POP POP DUP2 JUMP JUMPDEST PUSH1 0x60 PUSH1 0x0 DUP1 PUSH1 0x3 SLOAD DUP2 DUP1 SLOAD PUSH2 0x35E SWAP1 PUSH2 0x78D JUMP JUMPDEST DUP1 PUSH1 0x1F ADD PUSH1 0x20 DUP1 SWAP2 DIV MUL PUSH1 0x20 ADD PUSH1 0x40 MLOAD SWAP1 DUP2 ADD PUSH1 0x40 MSTORE DUP1 SWAP3 SWAP2 SWAP1 DUP2 DUP2 MSTORE PUSH1 0x20 ADD DUP3 DUP1 SLOAD PUSH2 0x38A SWAP1 PUSH2 0x78D JUMP JUMPDEST DUP1 ISZERO PUSH2 0x3D7 JUMPI DUP1 PUSH1 0x1F LT PUSH2 0x3AC JUMPI PUSH2 0x100 DUP1 DUP4 SLOAD DIV MUL DUP4 MSTORE SWAP2 PUSH1 0x20 ADD SWAP2 PUSH2 0x3D7 JUMP JUMPDEST DUP3 ADD SWAP2 SWAP1 PUSH1 0x0 MSTORE PUSH1 0x20 PUSH1 0x0 KECCAK256 SWAP1 JUMPDEST DUP2 SLOAD DUP2 MSTORE SWAP1 PUSH1 0x1 ADD SWAP1 PUSH1 0x20 ADD DUP1 DUP4 GT PUSH2 0x3BA JUMPI DUP3 SWAP1 SUB PUSH1 0x1F AND DUP3 ADD SWAP2 JUMPDEST POP POP POP POP POP SWAP2 POP SWAP2 POP SWAP2 POP SWAP1 SWAP2 JUMP JUMPDEST PUSH1 0x3 SLOAD DUP2 JUMP JUMPDEST PUSH1 0x0 DUP2 GT PUSH2 0x42F JUMPI PUSH1 0x40 MLOAD PUSH32 0x8C379A000000000000000000000000000000000000000000000000000000000 DUP2 MSTORE PUSH1 0x4 ADD PUSH2 0x426 SWAP1 PUSH2 0x62F JUMP JUMPDEST PUSH1 0x40 MLOAD DUP1 SWAP2 SUB SWAP1 REVERT JUMPDEST DUP1 PUSH1 0x3 PUSH1 0x0 DUP3 DUP3 SLOAD PUSH2 0x441 SWAP2 SWAP1 PUSH2 0x6C6 JUMP JUMPDEST SWAP3 POP POP DUP2 SWAP1 SSTORE POP POP JUMP JUMPDEST PUSH1 0x0 DUP2 CALLDATALOAD SWAP1 POP PUSH2 0x45A DUP2 PUSH2 0x82E JUMP JUMPDEST SWAP3 SWAP2 POP POP JUMP JUMPDEST PUSH1 0x0 PUSH1 0x20 DUP3 DUP5 SUB SLT ISZERO PUSH2 0x472 JUMPI PUSH1 0x0 DUP1 REVERT JUMPDEST PUSH1 0x0 PUSH2 0x480 DUP5 DUP3 DUP6 ADD PUSH2 0x44B JUMP JUMPDEST SWAP2 POP POP SWAP3 SWAP2 POP POP JUMP JUMPDEST PUSH1 0x0 PUSH2 0x494 DUP3 PUSH2 0x6AA JUMP JUMPDEST PUSH2 0x49E DUP2 DUP6 PUSH2 0x6B5 JUMP JUMPDEST SWAP4 POP PUSH2 0x4AE DUP2 DUP6 PUSH1 0x20 DUP7 ADD PUSH2 0x75A JUMP JUMPDEST PUSH2 0x4B7 DUP2 PUSH2 0x81D JUMP JUMPDEST DUP5 ADD SWAP2 POP POP SWAP3 SWAP2 POP POP JUMP JUMPDEST PUSH1 0x0 PUSH2 0x4CF PUSH1 0x25 DUP4 PUSH2 0x6B5 JUMP JUMPDEST SWAP2 POP PUSH32 0x4465706F73697420616D6F756E74206D75737420626520677265617465722074 PUSH1 0x0 DUP4 ADD MSTORE PUSH32 0x68616E2030000000000000000000000000000000000000000000000000000000 PUSH1 0x20 DUP4 ADD MSTORE PUSH1 0x40 DUP3 ADD SWAP1 POP SWAP2 SWAP1 POP JUMP JUMPDEST PUSH1 0x0 PUSH2 0x535 PUSH1 0x14 DUP4 PUSH2 0x6B5 JUMP JUMPDEST SWAP2 POP PUSH32 0x496E73756666696369656E742062616C616E6365000000000000000000000000 PUSH1 0x0 DUP4 ADD MSTORE PUSH1 0x20 DUP3 ADD SWAP1 POP SWAP2 SWAP1 POP JUMP JUMPDEST PUSH1 0x0 PUSH2 0x575 PUSH1 0x28 DUP4 PUSH2 0x6B5 JUMP JUMPDEST SWAP2 POP PUSH32 0x5769746864726177616C20616D6F756E74206D75737420626520677265617465 PUSH1 0x0 DUP4 ADD MSTORE PUSH32 0x72207468616E2030000000000000000000000000000000000000000000000000 PUSH1 0x20 DUP4 ADD MSTORE PUSH1 0x40 DUP3 ADD SWAP1 POP SWAP2 SWAP1 POP JUMP JUMPDEST PUSH2 0x5D7 DUP2 PUSH2 0x750 JUMP JUMPDEST DUP3 MSTORE POP POP JUMP JUMPDEST PUSH1 0x0 PUSH1 0x20 DUP3 ADD SWAP1 POP DUP2 DUP2 SUB PUSH1 0x0 DUP4 ADD MSTORE PUSH2 0x5F7 DUP2 DUP5 PUSH2 0x489 JUMP JUMPDEST SWAP1 POP SWAP3 SWAP2 POP POP JUMP JUMPDEST PUSH1 0x0 PUSH1 0x40 DUP3 ADD SWAP1 POP DUP2 DUP2 SUB PUSH1 0x0 DUP4 ADD MSTORE PUSH2 0x619 DUP2 DUP6 PUSH2 0x489 JUMP JUMPDEST SWAP1 POP PUSH2 0x628 PUSH1 0x20 DUP4 ADD DUP5 PUSH2 0x5CE JUMP JUMPDEST SWAP4 SWAP3 POP POP POP JUMP JUMPDEST PUSH1 0x0 PUSH1 0x20 DUP3 ADD SWAP1 POP DUP2 DUP2 SUB PUSH1 0x0 DUP4 ADD MSTORE PUSH2 0x648 DUP2 PUSH2 0x4C2 JUMP JUMPDEST SWAP1 POP SWAP2 SWAP1 POP JUMP JUMPDEST PUSH1 0x0 PUSH1 0x20 DUP3 ADD SWAP1 POP DUP2 DUP2 SUB PUSH1 0x0 DUP4 ADD MSTORE PUSH2 0x668 DUP2 PUSH2 0x528 JUMP JUMPDEST SWAP1 POP SWAP2 SWAP1 POP JUMP JUMPDEST PUSH1 0x0 PUSH1 0x20 DUP3 ADD SWAP1 POP DUP2 DUP2 SUB PUSH1 0x0 DUP4 ADD MSTORE PUSH2 0x688 DUP2 PUSH2 0x568 JUMP JUMPDEST SWAP1 POP SWAP2 SWAP1 POP JUMP JUMPDEST PUSH1 0x0 PUSH1 0x20 DUP3 ADD SWAP1 POP PUSH2 0x6A4 PUSH1 0x0 DUP4 ADD DUP5 PUSH2 0x5CE JUMP JUMPDEST SWAP3 SWAP2 POP POP JUMP JUMPDEST PUSH1 0x0 DUP2 MLOAD SWAP1 POP SWAP2 SWAP1 POP JUMP JUMPDEST PUSH1 0x0 DUP3 DUP3 MSTORE PUSH1 0x20 DUP3 ADD SWAP1 POP SWAP3 SWAP2 POP POP JUMP JUMPDEST PUSH1 0x0 PUSH2 0x6D1 DUP3 PUSH2 0x750 JUMP JUMPDEST SWAP2 POP PUSH2 0x6DC DUP4 PUSH2 0x750 JUMP JUMPDEST SWAP3 POP DUP3 PUSH32 0xFFFFFFFFFFFFFFFFFFFFFFFFFFFFFFFFFFFFFFFFFFFFFFFFFFFFFFFFFFFFFFFF SUB DUP3 GT ISZERO PUSH2 0x711 JUMPI PUSH2 0x710 PUSH2 0x7BF JUMP JUMPDEST JUMPDEST DUP3 DUP3 ADD SWAP1 POP SWAP3 SWAP2 POP POP JUMP JUMPDEST PUSH1 0x0 PUSH2 0x727 DUP3 PUSH2 0x750 JUMP JUMPDEST SWAP2 POP PUSH2 0x732 DUP4 PUSH2 0x750 JUMP JUMPDEST SWAP3 POP DUP3 DUP3 LT ISZERO PUSH2 0x745 JUMPI PUSH2 0x744 PUSH2 0x7BF JUMP JUMPDEST JUMPDEST DUP3 DUP3 SUB SWAP1 POP SWAP3 SWAP2 POP POP JUMP JUMPDEST PUSH1 0x0 DUP2 SWAP1 POP SWAP2 SWAP1 POP JUMP JUMPDEST PUSH1 0x0 JUMPDEST DUP4 DUP2 LT ISZERO PUSH2 0x778 JUMPI DUP1 DUP3 ADD MLOAD DUP2 DUP5 ADD MSTORE PUSH1 0x20 DUP2 ADD SWAP1 POP PUSH2 0x75D JUMP JUMPDEST DUP4 DUP2 GT ISZERO PUSH2 0x787 JUMPI PUSH1 0x0 DUP5 DUP5 ADD MSTORE JUMPDEST POP POP POP POP JUMP JUMPDEST PUSH1 0x0 PUSH1 0x2 DUP3 DIV SWAP1 POP PUSH1 0x1 DUP3 AND DUP1 PUSH2 0x7A5 JUMPI PUSH1 0x7F DUP3 AND SWAP2 POP JUMPDEST PUSH1 0x20 DUP3 LT DUP2 EQ ISZERO PUSH2 0x7B9 JUMPI PUSH2 0x7B8 PUSH2 0x7EE JUMP JUMPDEST JUMPDEST POP SWAP2 SWAP1 POP JUMP JUMPDEST PUSH32 0x4E487B7100000000000000000000000000000000000000000000000000000000 PUSH1 0x0 MSTORE PUSH1 0x11 PUSH1 0x4 MSTORE PUSH1 0x24 PUSH1 0x0 REVERT JUMPDEST PUSH32 0x4E487B7100000000000000000000000000000000000000000000000000000000 PUSH1 0x0 MSTORE PUSH1 0x22 PUSH1 0x4 MSTORE PUSH1 0x24 PUSH1 0x0 REVERT JUMPDEST PUSH1 0x0 PUSH1 0x1F NOT PUSH1 0x1F DUP4 ADD AND SWAP1 POP SWAP2 SWAP1 POP JUMP JUMPDEST PUSH2 0x837 DUP2 PUSH2 0x750 JUMP JUMPDEST DUP2 EQ PUSH2 0x842 JUMPI PUSH1 0x0 DUP1 REVERT JUMPDEST POP JUMP INVALID LOG2 PUSH5 0x6970667358 0x22 SLT KECCAK256 ADD MSTORE ORIGIN DUP8 SUB 0xEB PUSH17 0xEAF44B7E17075C78260654E12BDF7A2BD1 ISZERO 0xE7 CODESIZE 0x27 0xE3 0xB0 0xD6 CALL PUSH5 0x736F6C6343 STOP ADDMOD STOP STOP CALLER "
				},
				"gasEstimates": {
					"creation": {
						"codeDepositCost": "434200",
						"executionCost": "infinite",
						"totalCost": "infinite"
					},
					"external": {
						"accountNumber()": "1174",
						"accountType()": "infinite",
						"balance()": "1173",
						"deposit(uint256)": "infinite",
						"depositorName()": "infinite",
						"displayBalance()": "1204",
						"displayNameAndBalance()": "infinite",
						"withdraw(uint256)": "infinite"
					}
				},
				"methodIdentifiers": {
					"accountNumber()": "375974eb",
					"accountType()": "95eec3c9",
					"balance()": "b69ef8a8",
					"deposit(uint256)": "b6b55f25",
					"depositorName()": "01dca686",
					"displayBalance()": "3c7d73d8",
					"displayNameAndBalance()": "a348475e",
					"withdraw(uint256)": "2e1a7d4d"
				}
			},
			"storageLayout": {
				"storage": [
					{
						"astId": 3,
						"contract": "BankAccount.sol:BankAccount",
						"label": "depositorName",
						"offset": 0,
						"slot": "0",
						"type": "t_string_storage"
					},
					{
						"astId": 5,
						"contract": "BankAccount.sol:BankAccount",
						"label": "accountNumber",
						"offset": 0,
						"slot": "1",
						"type": "t_uint256"
					},
					{
						"astId": 7,
						"contract": "BankAccount.sol:BankAccount",
						"label": "accountType",
						"offset": 0,
						"slot": "2",
						"type": "t_string_storage"
					},
					{
						"astId": 9,
						"contract": "BankAccount.sol:BankAccount",
						"label": "balance",
						"offset": 0,
						"slot": "3",
						"type": "t_uint256"
					}
				],
				"types": {
					"t_string_storage": {
						"encoding": "bytes",
						"label": "string",
						"numberOfBytes": "32"
					},
					"t_uint256": {
						"encoding": "inplace",
						"label": "uint256",
						"numberOfBytes": "32"
					}
				}
			},
			"userdoc": {
				"kind": "user",
				"methods": {},
				"version": 1
			}
		}
	}
}