{
	"StudentInformation1.sol": {
		"StudentInformation": {
			"abi": [
				{
					"inputs": [
						{
							"internalType": "string",
							"name": "_name",
							"type": "string"
						},
						{
							"internalType": "uint256",
							"name": "_rollNo",
							"type": "uint256"
						},
						{
							"internalType": "uint256",
							"name": "_percentage",
							"type": "uint256"
						},
						{
							"internalType": "string",
							"name": "_email",
							"type": "string"
						},
						{
							"internalType": "uint256",
							"name": "_dob",
							"type": "uint256"
						},
						{
							"internalType": "string",
							"name": "_studentClass",
							"type": "string"
						},
						{
							"internalType": "uint256",
							"name": "_admissionYear",
							"type": "uint256"
						}
					],
					"name": "storeStudentData",
					"outputs": [],
					"stateMutability": "nonpayable",
					"type": "function"
				},
				{
					"inputs": [
						{
							"internalType": "address",
							"name": "",
							"type": "address"
						}
					],
					"name": "students",
					"outputs": [
						{
							"internalType": "string",
							"name": "name",
							"type": "string"
						},
						{
							"internalType": "uint256",
							"name": "rollNo",
							"type": "uint256"
						},
						{
							"internalType": "uint256",
							"name": "percentage",
							"type": "uint256"
						},
						{
							"internalType": "string",
							"name": "email",
							"type": "string"
						},
						{
							"internalType": "uint256",
							"name": "dob",
							"type": "uint256"
						},
						{
							"internalType": "string",
							"name": "studentClass",
							"type": "string"
						},
						{
							"internalType": "uint256",
							"name": "admissionYear",
							"type": "uint256"
						}
					],
					"stateMutability": "view",
					"type": "function"
				}
			],
			"devdoc": {
				"kind": "dev",
				"methods": {},
				"version": 1
			},
			"evm": {
				"assembly": "    /* \"StudentInformation1.sol\":60:711  contract StudentInformation {\r... */\n  mstore(0x40, 0x80)\n  callvalue\n  dup1\n  iszero\n  tag_1\n  jumpi\n  0x00\n  dup1\n  revert\ntag_1:\n  pop\n  dataSize(sub_0)\n  dup1\n  dataOffset(sub_0)\n  0x00\n  codecopy\n  0x00\n  return\nstop\n\nsub_0: assembly {\n        /* \"StudentInformation1.sol\":60:711  contract StudentInformation {\r... */\n      mstore(0x40, 0x80)\n      callvalue\n      dup1\n      iszero\n      tag_1\n      jumpi\n      0x00\n      dup1\n      revert\n    tag_1:\n      pop\n      jumpi(tag_2, lt(calldatasize, 0x04))\n      shr(0xe0, calldataload(0x00))\n      dup1\n      0x70f220d7\n      eq\n      tag_3\n      jumpi\n      dup1\n      0xa6c807a9\n      eq\n      tag_4\n      jumpi\n    tag_2:\n      0x00\n      dup1\n      revert\n        /* \"StudentInformation1.sol\":325:708  function storeStudentData(\r... */\n    tag_3:\n      tag_5\n      0x04\n      dup1\n      calldatasize\n      sub\n      dup2\n      add\n      swap1\n      tag_6\n      swap2\n      swap1\n      tag_7\n      jump\t// in\n    tag_6:\n      tag_8\n      jump\t// in\n    tag_5:\n      stop\n        /* \"StudentInformation1.sol\":278:320  mapping(address =>Student) public students */\n    tag_4:\n      tag_9\n      0x04\n      dup1\n      calldatasize\n      sub\n      dup2\n      add\n      swap1\n      tag_10\n      swap2\n      swap1\n      tag_11\n      jump\t// in\n    tag_10:\n      tag_12\n      jump\t// in\n    tag_9:\n      mload(0x40)\n      tag_13\n      swap8\n      swap7\n      swap6\n      swap5\n      swap4\n      swap3\n      swap2\n      swap1\n      tag_14\n      jump\t// in\n    tag_13:\n      mload(0x40)\n      dup1\n      swap2\n      sub\n      swap1\n      return\n        /* \"StudentInformation1.sol\":325:708  function storeStudentData(\r... */\n    tag_8:\n        /* \"StudentInformation1.sol\":542:704  Student({\r... */\n      mload(0x40)\n      dup1\n      0xe0\n      add\n      0x40\n      mstore\n      dup1\n        /* \"StudentInformation1.sol\":559:564  _name */\n      dup9\n        /* \"StudentInformation1.sol\":542:704  Student({\r... */\n      dup2\n      mstore\n      0x20\n      add\n        /* \"StudentInformation1.sol\":575:582  _rollNo */\n      dup8\n        /* \"StudentInformation1.sol\":542:704  Student({\r... */\n      dup2\n      mstore\n      0x20\n      add\n        /* \"StudentInformation1.sol\":597:608  _percentage */\n      dup7\n        /* \"StudentInformation1.sol\":542:704  Student({\r... */\n      dup2\n      mstore\n      0x20\n      add\n        /* \"StudentInformation1.sol\":618:624  _email */\n      dup6\n        /* \"StudentInformation1.sol\":542:704  Student({\r... */\n      dup2\n      mstore\n      0x20\n      add\n        /* \"StudentInformation1.sol\":634:638  _dob */\n      dup5\n        /* \"StudentInformation1.sol\":542:704  Student({\r... */\n      dup2\n      mstore\n      0x20\n      add\n        /* \"StudentInformation1.sol\":655:668  _studentClass */\n      dup4\n        /* \"StudentInformation1.sol\":542:704  Student({\r... */\n      dup2\n      mstore\n      0x20\n      add\n        /* \"StudentInformation1.sol\":686:700  _admissionYear */\n      dup3\n        /* \"StudentInformation1.sol\":542:704  Student({\r... */\n      dup2\n      mstore\n      pop\n        /* \"StudentInformation1.sol\":519:527  students */\n      0x00\n        /* \"StudentInformation1.sol\":519:539  students[msg.sender] */\n      dup1\n        /* \"StudentInformation1.sol\":528:538  msg.sender */\n      caller\n        /* \"StudentInformation1.sol\":519:539  students[msg.sender] */\n      0xffffffffffffffffffffffffffffffffffffffff\n      and\n      0xffffffffffffffffffffffffffffffffffffffff\n      and\n      dup2\n      mstore\n      0x20\n      add\n      swap1\n      dup2\n      mstore\n      0x20\n      add\n      0x00\n      keccak256\n        /* \"StudentInformation1.sol\":519:704  students[msg.sender] = Student({\r... */\n      0x00\n      dup3\n      add\n      mload\n      dup2\n      0x00\n      add\n      swap1\n      dup1\n      mload\n      swap1\n      0x20\n      add\n      swap1\n      tag_16\n      swap3\n      swap2\n      swap1\n      tag_17\n      jump\t// in\n    tag_16:\n      pop\n      0x20\n      dup3\n      add\n      mload\n      dup2\n      0x01\n      add\n      sstore\n      0x40\n      dup3\n      add\n      mload\n      dup2\n      0x02\n      add\n      sstore\n      0x60\n      dup3\n      add\n      mload\n      dup2\n      0x03\n      add\n      swap1\n      dup1\n      mload\n      swap1\n      0x20\n      add\n      swap1\n      tag_18\n      swap3\n      swap2\n      swap1\n      tag_17\n      jump\t// in\n    tag_18:\n      pop\n      0x80\n      dup3\n      add\n      mload\n      dup2\n      0x04\n      add\n      sstore\n      0xa0\n      dup3\n      add\n      mload\n      dup2\n      0x05\n      add\n      swap1\n      dup1\n      mload\n      swap1\n      0x20\n      add\n      swap1\n      tag_19\n      swap3\n      swap2\n      swap1\n      tag_17\n      jump\t// in\n    tag_19:\n      pop\n      0xc0\n      dup3\n      add\n      mload\n      dup2\n      0x06\n      add\n      sstore\n      swap1\n      pop\n      pop\n        /* \"StudentInformation1.sol\":325:708  function storeStudentData(\r... */\n      pop\n      pop\n      pop\n      pop\n      pop\n      pop\n      pop\n      jump\t// out\n        /* \"StudentInformation1.sol\":278:320  mapping(address =>Student) public students */\n    tag_12:\n      mstore(0x20, 0x00)\n      dup1\n      0x00\n      mstore\n      keccak256(0x00, 0x40)\n      0x00\n      swap2\n      pop\n      swap1\n      pop\n      dup1\n      0x00\n      add\n      dup1\n      sload\n      tag_20\n      swap1\n      tag_21\n      jump\t// in\n    tag_20:\n      dup1\n      0x1f\n      add\n      0x20\n      dup1\n      swap2\n      div\n      mul\n      0x20\n      add\n      mload(0x40)\n      swap1\n      dup2\n      add\n      0x40\n      mstore\n      dup1\n      swap3\n      swap2\n      swap1\n      dup2\n      dup2\n      mstore\n      0x20\n      add\n      dup3\n      dup1\n      sload\n      tag_22\n      swap1\n      tag_21\n      jump\t// in\n    tag_22:\n      dup1\n      iszero\n      tag_23\n      jumpi\n      dup1\n      0x1f\n      lt\n      tag_24\n      jumpi\n      0x0100\n      dup1\n      dup4\n      sload\n      div\n      mul\n      dup4\n      mstore\n      swap2\n      0x20\n      add\n      swap2\n      jump(tag_23)\n    tag_24:\n      dup3\n      add\n      swap2\n      swap1\n      0x00\n      mstore\n      keccak256(0x00, 0x20)\n      swap1\n    tag_25:\n      dup2\n      sload\n      dup2\n      mstore\n      swap1\n      0x01\n      add\n      swap1\n      0x20\n      add\n      dup1\n      dup4\n      gt\n      tag_25\n      jumpi\n      dup3\n      swap1\n      sub\n      0x1f\n      and\n      dup3\n      add\n      swap2\n    tag_23:\n      pop\n      pop\n      pop\n      pop\n      pop\n      swap1\n      dup1\n      0x01\n      add\n      sload\n      swap1\n      dup1\n      0x02\n      add\n      sload\n      swap1\n      dup1\n      0x03\n      add\n      dup1\n      sload\n      tag_26\n      swap1\n      tag_21\n      jump\t// in\n    tag_26:\n      dup1\n      0x1f\n      add\n      0x20\n      dup1\n      swap2\n      div\n      mul\n      0x20\n      add\n      mload(0x40)\n      swap1\n      dup2\n      add\n      0x40\n      mstore\n      dup1\n      swap3\n      swap2\n      swap1\n      dup2\n      dup2\n      mstore\n      0x20\n      add\n      dup3\n      dup1\n      sload\n      tag_27\n      swap1\n      tag_21\n      jump\t// in\n    tag_27:\n      dup1\n      iszero\n      tag_28\n      jumpi\n      dup1\n      0x1f\n      lt\n      tag_29\n      jumpi\n      0x0100\n      dup1\n      dup4\n      sload\n      div\n      mul\n      dup4\n      mstore\n      swap2\n      0x20\n      add\n      swap2\n      jump(tag_28)\n    tag_29:\n      dup3\n      add\n      swap2\n      swap1\n      0x00\n      mstore\n      keccak256(0x00, 0x20)\n      swap1\n    tag_30:\n      dup2\n      sload\n      dup2\n      mstore\n      swap1\n      0x01\n      add\n      swap1\n      0x20\n      add\n      dup1\n      dup4\n      gt\n      tag_30\n      jumpi\n      dup3\n      swap1\n      sub\n      0x1f\n      and\n      dup3\n      add\n      swap2\n    tag_28:\n      pop\n      pop\n      pop\n      pop\n      pop\n      swap1\n      dup1\n      0x04\n      add\n      sload\n      swap1\n      dup1\n      0x05\n      add\n      dup1\n      sload\n      tag_31\n      swap1\n      tag_21\n      jump\t// in\n    tag_31:\n      dup1\n      0x1f\n      add\n      0x20\n      dup1\n      swap2\n      div\n      mul\n      0x20\n      add\n      mload(0x40)\n      swap1\n      dup2\n      add\n      0x40\n      mstore\n      dup1\n      swap3\n      swap2\n      swap1\n      dup2\n      dup2\n      mstore\n      0x20\n      add\n      dup3\n      dup1\n      sload\n      tag_32\n      swap1\n      tag_21\n      jump\t// in\n    tag_32:\n      dup1\n      iszero\n      tag_33\n      jumpi\n      dup1\n      0x1f\n      lt\n      tag_34\n      jumpi\n      0x0100\n      dup1\n      dup4\n      sload\n      div\n      mul\n      dup4\n      mstore\n      swap2\n      0x20\n      add\n      swap2\n      jump(tag_33)\n    tag_34:\n      dup3\n      add\n      swap2\n      swap1\n      0x00\n      mstore\n      keccak256(0x00, 0x20)\n      swap1\n    tag_35:\n      dup2\n      sload\n      dup2\n      mstore\n      swap1\n      0x01\n      add\n      swap1\n      0x20\n      add\n      dup1\n      dup4\n      gt\n      tag_35\n      jumpi\n      dup3\n      swap1\n      sub\n      0x1f\n      and\n      dup3\n      add\n      swap2\n    tag_33:\n      pop\n      pop\n      pop\n      pop\n      pop\n      swap1\n      dup1\n      0x06\n      add\n      sload\n      swap1\n      pop\n      dup8\n      jump\t// out\n    tag_17:\n      dup3\n      dup1\n      sload\n      tag_36\n      swap1\n      tag_21\n      jump\t// in\n    tag_36:\n      swap1\n      0x00\n      mstore\n      keccak256(0x00, 0x20)\n      swap1\n      0x1f\n      add\n      0x20\n      swap1\n      div\n      dup2\n      add\n      swap3\n      dup3\n      tag_38\n      jumpi\n      0x00\n      dup6\n      sstore\n      jump(tag_37)\n    tag_38:\n      dup3\n      0x1f\n      lt\n      tag_39\n      jumpi\n      dup1\n      mload\n      not(0xff)\n      and\n      dup4\n      dup1\n      add\n      or\n      dup6\n      sstore\n      jump(tag_37)\n    tag_39:\n      dup3\n      dup1\n      add\n      0x01\n      add\n      dup6\n      sstore\n      dup3\n      iszero\n      tag_37\n      jumpi\n      swap2\n      dup3\n      add\n    tag_40:\n      dup3\n      dup2\n      gt\n      iszero\n      tag_41\n      jumpi\n      dup3\n      mload\n      dup3\n      sstore\n      swap2\n      0x20\n      add\n      swap2\n      swap1\n      0x01\n      add\n      swap1\n      jump(tag_40)\n    tag_41:\n    tag_37:\n      pop\n      swap1\n      pop\n      tag_42\n      swap2\n      swap1\n      tag_43\n      jump\t// in\n    tag_42:\n      pop\n      swap1\n      jump\t// out\n    tag_43:\n    tag_44:\n      dup1\n      dup3\n      gt\n      iszero\n      tag_45\n      jumpi\n      0x00\n      dup2\n      0x00\n      swap1\n      sstore\n      pop\n      0x01\n      add\n      jump(tag_44)\n    tag_45:\n      pop\n      swap1\n      jump\t// out\n        /* \"#utility.yul\":7:351   */\n    tag_47:\n      0x00\n        /* \"#utility.yul\":110:175   */\n      tag_49\n        /* \"#utility.yul\":125:174   */\n      tag_50\n        /* \"#utility.yul\":167:173   */\n      dup5\n        /* \"#utility.yul\":125:174   */\n      tag_51\n      jump\t// in\n    tag_50:\n        /* \"#utility.yul\":110:175   */\n      tag_52\n      jump\t// in\n    tag_49:\n        /* \"#utility.yul\":101:175   */\n      swap1\n      pop\n        /* \"#utility.yul\":198:204   */\n      dup3\n        /* \"#utility.yul\":191:196   */\n      dup2\n        /* \"#utility.yul\":184:205   */\n      mstore\n        /* \"#utility.yul\":236:240   */\n      0x20\n        /* \"#utility.yul\":229:234   */\n      dup2\n        /* \"#utility.yul\":225:241   */\n      add\n        /* \"#utility.yul\":274:277   */\n      dup5\n        /* \"#utility.yul\":265:271   */\n      dup5\n        /* \"#utility.yul\":260:263   */\n      dup5\n        /* \"#utility.yul\":256:272   */\n      add\n        /* \"#utility.yul\":253:278   */\n      gt\n        /* \"#utility.yul\":250:252   */\n      iszero\n      tag_53\n      jumpi\n        /* \"#utility.yul\":291:292   */\n      0x00\n        /* \"#utility.yul\":288:289   */\n      dup1\n        /* \"#utility.yul\":281:293   */\n      revert\n        /* \"#utility.yul\":250:252   */\n    tag_53:\n        /* \"#utility.yul\":304:345   */\n      tag_54\n        /* \"#utility.yul\":338:344   */\n      dup5\n        /* \"#utility.yul\":333:336   */\n      dup3\n        /* \"#utility.yul\":328:331   */\n      dup6\n        /* \"#utility.yul\":304:345   */\n      tag_55\n      jump\t// in\n    tag_54:\n        /* \"#utility.yul\":91:351   */\n      pop\n      swap4\n      swap3\n      pop\n      pop\n      pop\n      jump\t// out\n        /* \"#utility.yul\":357:496   */\n    tag_56:\n      0x00\n        /* \"#utility.yul\":441:447   */\n      dup2\n        /* \"#utility.yul\":428:448   */\n      calldataload\n        /* \"#utility.yul\":419:448   */\n      swap1\n      pop\n        /* \"#utility.yul\":457:490   */\n      tag_58\n        /* \"#utility.yul\":484:489   */\n      dup2\n        /* \"#utility.yul\":457:490   */\n      tag_59\n      jump\t// in\n    tag_58:\n        /* \"#utility.yul\":409:496   */\n      swap3\n      swap2\n      pop\n      pop\n      jump\t// out\n        /* \"#utility.yul\":516:789   */\n    tag_60:\n      0x00\n        /* \"#utility.yul\":621:624   */\n      dup3\n        /* \"#utility.yul\":614:618   */\n      0x1f\n        /* \"#utility.yul\":606:612   */\n      dup4\n        /* \"#utility.yul\":602:619   */\n      add\n        /* \"#utility.yul\":598:625   */\n      slt\n        /* \"#utility.yul\":588:590   */\n      tag_62\n      jumpi\n        /* \"#utility.yul\":639:640   */\n      0x00\n        /* \"#utility.yul\":636:637   */\n      dup1\n        /* \"#utility.yul\":629:641   */\n      revert\n        /* \"#utility.yul\":588:590   */\n    tag_62:\n        /* \"#utility.yul\":679:685   */\n      dup2\n        /* \"#utility.yul\":666:686   */\n      calldataload\n        /* \"#utility.yul\":704:783   */\n      tag_63\n        /* \"#utility.yul\":779:782   */\n      dup5\n        /* \"#utility.yul\":771:777   */\n      dup3\n        /* \"#utility.yul\":764:768   */\n      0x20\n        /* \"#utility.yul\":756:762   */\n      dup7\n        /* \"#utility.yul\":752:769   */\n      add\n        /* \"#utility.yul\":704:783   */\n      tag_47\n      jump\t// in\n    tag_63:\n        /* \"#utility.yul\":695:783   */\n      swap2\n      pop\n        /* \"#utility.yul\":578:789   */\n      pop\n      swap3\n      swap2\n      pop\n      pop\n      jump\t// out\n        /* \"#utility.yul\":795:934   */\n    tag_64:\n      0x00\n        /* \"#utility.yul\":879:885   */\n      dup2\n        /* \"#utility.yul\":866:886   */\n      calldataload\n        /* \"#utility.yul\":857:886   */\n      swap1\n      pop\n        /* \"#utility.yul\":895:928   */\n      tag_66\n        /* \"#utility.yul\":922:927   */\n      dup2\n        /* \"#utility.yul\":895:928   */\n      tag_67\n      jump\t// in\n    tag_66:\n        /* \"#utility.yul\":847:934   */\n      swap3\n      swap2\n      pop\n      pop\n      jump\t// out\n        /* \"#utility.yul\":940:1202   */\n    tag_11:\n      0x00\n        /* \"#utility.yul\":1048:1050   */\n      0x20\n        /* \"#utility.yul\":1036:1045   */\n      dup3\n        /* \"#utility.yul\":1027:1034   */\n      dup5\n        /* \"#utility.yul\":1023:1046   */\n      sub\n        /* \"#utility.yul\":1019:1051   */\n      slt\n        /* \"#utility.yul\":1016:1018   */\n      iszero\n      tag_69\n      jumpi\n        /* \"#utility.yul\":1064:1065   */\n      0x00\n        /* \"#utility.yul\":1061:1062   */\n      dup1\n        /* \"#utility.yul\":1054:1066   */\n      revert\n        /* \"#utility.yul\":1016:1018   */\n    tag_69:\n        /* \"#utility.yul\":1107:1108   */\n      0x00\n        /* \"#utility.yul\":1132:1185   */\n      tag_70\n        /* \"#utility.yul\":1177:1184   */\n      dup5\n        /* \"#utility.yul\":1168:1174   */\n      dup3\n        /* \"#utility.yul\":1157:1166   */\n      dup6\n        /* \"#utility.yul\":1153:1175   */\n      add\n        /* \"#utility.yul\":1132:1185   */\n      tag_56\n      jump\t// in\n    tag_70:\n        /* \"#utility.yul\":1122:1185   */\n      swap2\n      pop\n        /* \"#utility.yul\":1078:1195   */\n      pop\n        /* \"#utility.yul\":1006:1202   */\n      swap3\n      swap2\n      pop\n      pop\n      jump\t// out\n        /* \"#utility.yul\":1208:2683   */\n    tag_7:\n      0x00\n      dup1\n      0x00\n      dup1\n      0x00\n      dup1\n      0x00\n        /* \"#utility.yul\":1448:1451   */\n      0xe0\n        /* \"#utility.yul\":1436:1445   */\n      dup9\n        /* \"#utility.yul\":1427:1434   */\n      dup11\n        /* \"#utility.yul\":1423:1446   */\n      sub\n        /* \"#utility.yul\":1419:1452   */\n      slt\n        /* \"#utility.yul\":1416:1418   */\n      iszero\n      tag_72\n      jumpi\n        /* \"#utility.yul\":1465:1466   */\n      0x00\n        /* \"#utility.yul\":1462:1463   */\n      dup1\n        /* \"#utility.yul\":1455:1467   */\n      revert\n        /* \"#utility.yul\":1416:1418   */\n    tag_72:\n        /* \"#utility.yul\":1536:1537   */\n      0x00\n        /* \"#utility.yul\":1525:1534   */\n      dup9\n        /* \"#utility.yul\":1521:1538   */\n      add\n        /* \"#utility.yul\":1508:1539   */\n      calldataload\n        /* \"#utility.yul\":1566:1584   */\n      0xffffffffffffffff\n        /* \"#utility.yul\":1558:1564   */\n      dup2\n        /* \"#utility.yul\":1555:1585   */\n      gt\n        /* \"#utility.yul\":1552:1554   */\n      iszero\n      tag_73\n      jumpi\n        /* \"#utility.yul\":1598:1599   */\n      0x00\n        /* \"#utility.yul\":1595:1596   */\n      dup1\n        /* \"#utility.yul\":1588:1600   */\n      revert\n        /* \"#utility.yul\":1552:1554   */\n    tag_73:\n        /* \"#utility.yul\":1626:1689   */\n      tag_74\n        /* \"#utility.yul\":1681:1688   */\n      dup11\n        /* \"#utility.yul\":1672:1678   */\n      dup3\n        /* \"#utility.yul\":1661:1670   */\n      dup12\n        /* \"#utility.yul\":1657:1679   */\n      add\n        /* \"#utility.yul\":1626:1689   */\n      tag_60\n      jump\t// in\n    tag_74:\n        /* \"#utility.yul\":1616:1689   */\n      swap8\n      pop\n        /* \"#utility.yul\":1479:1699   */\n      pop\n        /* \"#utility.yul\":1738:1740   */\n      0x20\n        /* \"#utility.yul\":1764:1817   */\n      tag_75\n        /* \"#utility.yul\":1809:1816   */\n      dup11\n        /* \"#utility.yul\":1800:1806   */\n      dup3\n        /* \"#utility.yul\":1789:1798   */\n      dup12\n        /* \"#utility.yul\":1785:1807   */\n      add\n        /* \"#utility.yul\":1764:1817   */\n      tag_64\n      jump\t// in\n    tag_75:\n        /* \"#utility.yul\":1754:1817   */\n      swap7\n      pop\n        /* \"#utility.yul\":1709:1827   */\n      pop\n        /* \"#utility.yul\":1866:1868   */\n      0x40\n        /* \"#utility.yul\":1892:1945   */\n      tag_76\n        /* \"#utility.yul\":1937:1944   */\n      dup11\n        /* \"#utility.yul\":1928:1934   */\n      dup3\n        /* \"#utility.yul\":1917:1926   */\n      dup12\n        /* \"#utility.yul\":1913:1935   */\n      add\n        /* \"#utility.yul\":1892:1945   */\n      tag_64\n      jump\t// in\n    tag_76:\n        /* \"#utility.yul\":1882:1945   */\n      swap6\n      pop\n        /* \"#utility.yul\":1837:1955   */\n      pop\n        /* \"#utility.yul\":2022:2024   */\n      0x60\n        /* \"#utility.yul\":2011:2020   */\n      dup9\n        /* \"#utility.yul\":2007:2025   */\n      add\n        /* \"#utility.yul\":1994:2026   */\n      calldataload\n        /* \"#utility.yul\":2053:2071   */\n      0xffffffffffffffff\n        /* \"#utility.yul\":2045:2051   */\n      dup2\n        /* \"#utility.yul\":2042:2072   */\n      gt\n        /* \"#utility.yul\":2039:2041   */\n      iszero\n      tag_77\n      jumpi\n        /* \"#utility.yul\":2085:2086   */\n      0x00\n        /* \"#utility.yul\":2082:2083   */\n      dup1\n        /* \"#utility.yul\":2075:2087   */\n      revert\n        /* \"#utility.yul\":2039:2041   */\n    tag_77:\n        /* \"#utility.yul\":2113:2176   */\n      tag_78\n        /* \"#utility.yul\":2168:2175   */\n      dup11\n        /* \"#utility.yul\":2159:2165   */\n      dup3\n        /* \"#utility.yul\":2148:2157   */\n      dup12\n        /* \"#utility.yul\":2144:2166   */\n      add\n        /* \"#utility.yul\":2113:2176   */\n      tag_60\n      jump\t// in\n    tag_78:\n        /* \"#utility.yul\":2103:2176   */\n      swap5\n      pop\n        /* \"#utility.yul\":1965:2186   */\n      pop\n        /* \"#utility.yul\":2225:2228   */\n      0x80\n        /* \"#utility.yul\":2252:2305   */\n      tag_79\n        /* \"#utility.yul\":2297:2304   */\n      dup11\n        /* \"#utility.yul\":2288:2294   */\n      dup3\n        /* \"#utility.yul\":2277:2286   */\n      dup12\n        /* \"#utility.yul\":2273:2295   */\n      add\n        /* \"#utility.yul\":2252:2305   */\n      tag_64\n      jump\t// in\n    tag_79:\n        /* \"#utility.yul\":2242:2305   */\n      swap4\n      pop\n        /* \"#utility.yul\":2196:2315   */\n      pop\n        /* \"#utility.yul\":2382:2385   */\n      0xa0\n        /* \"#utility.yul\":2371:2380   */\n      dup9\n        /* \"#utility.yul\":2367:2386   */\n      add\n        /* \"#utility.yul\":2354:2387   */\n      calldataload\n        /* \"#utility.yul\":2414:2432   */\n      0xffffffffffffffff\n        /* \"#utility.yul\":2406:2412   */\n      dup2\n        /* \"#utility.yul\":2403:2433   */\n      gt\n        /* \"#utility.yul\":2400:2402   */\n      iszero\n      tag_80\n      jumpi\n        /* \"#utility.yul\":2446:2447   */\n      0x00\n        /* \"#utility.yul\":2443:2444   */\n      dup1\n        /* \"#utility.yul\":2436:2448   */\n      revert\n        /* \"#utility.yul\":2400:2402   */\n    tag_80:\n        /* \"#utility.yul\":2474:2537   */\n      tag_81\n        /* \"#utility.yul\":2529:2536   */\n      dup11\n        /* \"#utility.yul\":2520:2526   */\n      dup3\n        /* \"#utility.yul\":2509:2518   */\n      dup12\n        /* \"#utility.yul\":2505:2527   */\n      add\n        /* \"#utility.yul\":2474:2537   */\n      tag_60\n      jump\t// in\n    tag_81:\n        /* \"#utility.yul\":2464:2537   */\n      swap3\n      pop\n        /* \"#utility.yul\":2325:2547   */\n      pop\n        /* \"#utility.yul\":2586:2589   */\n      0xc0\n        /* \"#utility.yul\":2613:2666   */\n      tag_82\n        /* \"#utility.yul\":2658:2665   */\n      dup11\n        /* \"#utility.yul\":2649:2655   */\n      dup3\n        /* \"#utility.yul\":2638:2647   */\n      dup12\n        /* \"#utility.yul\":2634:2656   */\n      add\n        /* \"#utility.yul\":2613:2666   */\n      tag_64\n      jump\t// in\n    tag_82:\n        /* \"#utility.yul\":2603:2666   */\n      swap2\n      pop\n        /* \"#utility.yul\":2557:2676   */\n      pop\n        /* \"#utility.yul\":1406:2683   */\n      swap3\n      swap6\n      swap9\n      swap2\n      swap5\n      swap8\n      pop\n      swap3\n      swap6\n      pop\n      jump\t// out\n        /* \"#utility.yul\":2689:3053   */\n    tag_83:\n      0x00\n        /* \"#utility.yul\":2805:2844   */\n      tag_85\n        /* \"#utility.yul\":2838:2843   */\n      dup3\n        /* \"#utility.yul\":2805:2844   */\n      tag_86\n      jump\t// in\n    tag_85:\n        /* \"#utility.yul\":2860:2931   */\n      tag_87\n        /* \"#utility.yul\":2924:2930   */\n      dup2\n        /* \"#utility.yul\":2919:2922   */\n      dup6\n        /* \"#utility.yul\":2860:2931   */\n      tag_88\n      jump\t// in\n    tag_87:\n        /* \"#utility.yul\":2853:2931   */\n      swap4\n      pop\n        /* \"#utility.yul\":2940:2992   */\n      tag_89\n        /* \"#utility.yul\":2985:2991   */\n      dup2\n        /* \"#utility.yul\":2980:2983   */\n      dup6\n        /* \"#utility.yul\":2973:2977   */\n      0x20\n        /* \"#utility.yul\":2966:2971   */\n      dup7\n        /* \"#utility.yul\":2962:2978   */\n      add\n        /* \"#utility.yul\":2940:2992   */\n      tag_90\n      jump\t// in\n    tag_89:\n        /* \"#utility.yul\":3017:3046   */\n      tag_91\n        /* \"#utility.yul\":3039:3045   */\n      dup2\n        /* \"#utility.yul\":3017:3046   */\n      tag_92\n      jump\t// in\n    tag_91:\n        /* \"#utility.yul\":3012:3015   */\n      dup5\n        /* \"#utility.yul\":3008:3047   */\n      add\n        /* \"#utility.yul\":3001:3047   */\n      swap2\n      pop\n        /* \"#utility.yul\":2781:3053   */\n      pop\n      swap3\n      swap2\n      pop\n      pop\n      jump\t// out\n        /* \"#utility.yul\":3059:3177   */\n    tag_93:\n        /* \"#utility.yul\":3146:3170   */\n      tag_95\n        /* \"#utility.yul\":3164:3169   */\n      dup2\n        /* \"#utility.yul\":3146:3170   */\n      tag_96\n      jump\t// in\n    tag_95:\n        /* \"#utility.yul\":3141:3144   */\n      dup3\n        /* \"#utility.yul\":3134:3171   */\n      mstore\n        /* \"#utility.yul\":3124:3177   */\n      pop\n      pop\n      jump\t// out\n        /* \"#utility.yul\":3183:4342   */\n    tag_14:\n      0x00\n        /* \"#utility.yul\":3542:3545   */\n      0xe0\n        /* \"#utility.yul\":3531:3540   */\n      dup3\n        /* \"#utility.yul\":3527:3546   */\n      add\n        /* \"#utility.yul\":3519:3546   */\n      swap1\n      pop\n        /* \"#utility.yul\":3592:3601   */\n      dup2\n        /* \"#utility.yul\":3586:3590   */\n      dup2\n        /* \"#utility.yul\":3582:3602   */\n      sub\n        /* \"#utility.yul\":3578:3579   */\n      0x00\n        /* \"#utility.yul\":3567:3576   */\n      dup4\n        /* \"#utility.yul\":3563:3580   */\n      add\n        /* \"#utility.yul\":3556:3603   */\n      mstore\n        /* \"#utility.yul\":3620:3698   */\n      tag_98\n        /* \"#utility.yul\":3693:3697   */\n      dup2\n        /* \"#utility.yul\":3684:3690   */\n      dup11\n        /* \"#utility.yul\":3620:3698   */\n      tag_83\n      jump\t// in\n    tag_98:\n        /* \"#utility.yul\":3612:3698   */\n      swap1\n      pop\n        /* \"#utility.yul\":3708:3780   */\n      tag_99\n        /* \"#utility.yul\":3776:3778   */\n      0x20\n        /* \"#utility.yul\":3765:3774   */\n      dup4\n        /* \"#utility.yul\":3761:3779   */\n      add\n        /* \"#utility.yul\":3752:3758   */\n      dup10\n        /* \"#utility.yul\":3708:3780   */\n      tag_93\n      jump\t// in\n    tag_99:\n        /* \"#utility.yul\":3790:3862   */\n      tag_100\n        /* \"#utility.yul\":3858:3860   */\n      0x40\n        /* \"#utility.yul\":3847:3856   */\n      dup4\n        /* \"#utility.yul\":3843:3861   */\n      add\n        /* \"#utility.yul\":3834:3840   */\n      dup9\n        /* \"#utility.yul\":3790:3862   */\n      tag_93\n      jump\t// in\n    tag_100:\n        /* \"#utility.yul\":3909:3918   */\n      dup2\n        /* \"#utility.yul\":3903:3907   */\n      dup2\n        /* \"#utility.yul\":3899:3919   */\n      sub\n        /* \"#utility.yul\":3894:3896   */\n      0x60\n        /* \"#utility.yul\":3883:3892   */\n      dup4\n        /* \"#utility.yul\":3879:3897   */\n      add\n        /* \"#utility.yul\":3872:3920   */\n      mstore\n        /* \"#utility.yul\":3937:4015   */\n      tag_101\n        /* \"#utility.yul\":4010:4014   */\n      dup2\n        /* \"#utility.yul\":4001:4007   */\n      dup8\n        /* \"#utility.yul\":3937:4015   */\n      tag_83\n      jump\t// in\n    tag_101:\n        /* \"#utility.yul\":3929:4015   */\n      swap1\n      pop\n        /* \"#utility.yul\":4025:4098   */\n      tag_102\n        /* \"#utility.yul\":4093:4096   */\n      0x80\n        /* \"#utility.yul\":4082:4091   */\n      dup4\n        /* \"#utility.yul\":4078:4097   */\n      add\n        /* \"#utility.yul\":4069:4075   */\n      dup7\n        /* \"#utility.yul\":4025:4098   */\n      tag_93\n      jump\t// in\n    tag_102:\n        /* \"#utility.yul\":4146:4155   */\n      dup2\n        /* \"#utility.yul\":4140:4144   */\n      dup2\n        /* \"#utility.yul\":4136:4156   */\n      sub\n        /* \"#utility.yul\":4130:4133   */\n      0xa0\n        /* \"#utility.yul\":4119:4128   */\n      dup4\n        /* \"#utility.yul\":4115:4134   */\n      add\n        /* \"#utility.yul\":4108:4157   */\n      mstore\n        /* \"#utility.yul\":4174:4252   */\n      tag_103\n        /* \"#utility.yul\":4247:4251   */\n      dup2\n        /* \"#utility.yul\":4238:4244   */\n      dup6\n        /* \"#utility.yul\":4174:4252   */\n      tag_83\n      jump\t// in\n    tag_103:\n        /* \"#utility.yul\":4166:4252   */\n      swap1\n      pop\n        /* \"#utility.yul\":4262:4335   */\n      tag_104\n        /* \"#utility.yul\":4330:4333   */\n      0xc0\n        /* \"#utility.yul\":4319:4328   */\n      dup4\n        /* \"#utility.yul\":4315:4334   */\n      add\n        /* \"#utility.yul\":4306:4312   */\n      dup5\n        /* \"#utility.yul\":4262:4335   */\n      tag_93\n      jump\t// in\n    tag_104:\n        /* \"#utility.yul\":3509:4342   */\n      swap9\n      swap8\n      pop\n      pop\n      pop\n      pop\n      pop\n      pop\n      pop\n      pop\n      jump\t// out\n        /* \"#utility.yul\":4348:4631   */\n    tag_52:\n      0x00\n        /* \"#utility.yul\":4414:4416   */\n      0x40\n        /* \"#utility.yul\":4408:4417   */\n      mload\n        /* \"#utility.yul\":4398:4417   */\n      swap1\n      pop\n        /* \"#utility.yul\":4456:4460   */\n      dup2\n        /* \"#utility.yul\":4448:4454   */\n      dup2\n        /* \"#utility.yul\":4444:4461   */\n      add\n        /* \"#utility.yul\":4563:4569   */\n      dup2\n        /* \"#utility.yul\":4551:4561   */\n      dup2\n        /* \"#utility.yul\":4548:4570   */\n      lt\n        /* \"#utility.yul\":4527:4545   */\n      0xffffffffffffffff\n        /* \"#utility.yul\":4515:4525   */\n      dup3\n        /* \"#utility.yul\":4512:4546   */\n      gt\n        /* \"#utility.yul\":4509:4571   */\n      or\n        /* \"#utility.yul\":4506:4508   */\n      iszero\n      tag_106\n      jumpi\n        /* \"#utility.yul\":4574:4592   */\n      tag_107\n      tag_108\n      jump\t// in\n    tag_107:\n        /* \"#utility.yul\":4506:4508   */\n    tag_106:\n        /* \"#utility.yul\":4614:4624   */\n      dup1\n        /* \"#utility.yul\":4610:4612   */\n      0x40\n        /* \"#utility.yul\":4603:4625   */\n      mstore\n        /* \"#utility.yul\":4388:4631   */\n      pop\n      swap2\n      swap1\n      pop\n      jump\t// out\n        /* \"#utility.yul\":4637:4969   */\n    tag_51:\n      0x00\n        /* \"#utility.yul\":4789:4807   */\n      0xffffffffffffffff\n        /* \"#utility.yul\":4781:4787   */\n      dup3\n        /* \"#utility.yul\":4778:4808   */\n      gt\n        /* \"#utility.yul\":4775:4777   */\n      iszero\n      tag_110\n      jumpi\n        /* \"#utility.yul\":4811:4829   */\n      tag_111\n      tag_108\n      jump\t// in\n    tag_111:\n        /* \"#utility.yul\":4775:4777   */\n    tag_110:\n        /* \"#utility.yul\":4896:4900   */\n      0x1f\n        /* \"#utility.yul\":4892:4901   */\n      not\n        /* \"#utility.yul\":4885:4889   */\n      0x1f\n        /* \"#utility.yul\":4877:4883   */\n      dup4\n        /* \"#utility.yul\":4873:4890   */\n      add\n        /* \"#utility.yul\":4869:4902   */\n      and\n        /* \"#utility.yul\":4861:4902   */\n      swap1\n      pop\n        /* \"#utility.yul\":4957:4961   */\n      0x20\n        /* \"#utility.yul\":4951:4955   */\n      dup2\n        /* \"#utility.yul\":4947:4962   */\n      add\n        /* \"#utility.yul\":4939:4962   */\n      swap1\n      pop\n        /* \"#utility.yul\":4704:4969   */\n      swap2\n      swap1\n      pop\n      jump\t// out\n        /* \"#utility.yul\":4975:5074   */\n    tag_86:\n      0x00\n        /* \"#utility.yul\":5061:5066   */\n      dup2\n        /* \"#utility.yul\":5055:5067   */\n      mload\n        /* \"#utility.yul\":5045:5067   */\n      swap1\n      pop\n        /* \"#utility.yul\":5034:5074   */\n      swap2\n      swap1\n      pop\n      jump\t// out\n        /* \"#utility.yul\":5080:5249   */\n    tag_88:\n      0x00\n        /* \"#utility.yul\":5198:5204   */\n      dup3\n        /* \"#utility.yul\":5193:5196   */\n      dup3\n        /* \"#utility.yul\":5186:5205   */\n      mstore\n        /* \"#utility.yul\":5238:5242   */\n      0x20\n        /* \"#utility.yul\":5233:5236   */\n      dup3\n        /* \"#utility.yul\":5229:5243   */\n      add\n        /* \"#utility.yul\":5214:5243   */\n      swap1\n      pop\n        /* \"#utility.yul\":5176:5249   */\n      swap3\n      swap2\n      pop\n      pop\n      jump\t// out\n        /* \"#utility.yul\":5255:5351   */\n    tag_114:\n      0x00\n        /* \"#utility.yul\":5321:5345   */\n      tag_116\n        /* \"#utility.yul\":5339:5344   */\n      dup3\n        /* \"#utility.yul\":5321:5345   */\n      tag_117\n      jump\t// in\n    tag_116:\n        /* \"#utility.yul\":5310:5345   */\n      swap1\n      pop\n        /* \"#utility.yul\":5300:5351   */\n      swap2\n      swap1\n      pop\n      jump\t// out\n        /* \"#utility.yul\":5357:5483   */\n    tag_117:\n      0x00\n        /* \"#utility.yul\":5434:5476   */\n      0xffffffffffffffffffffffffffffffffffffffff\n        /* \"#utility.yul\":5427:5432   */\n      dup3\n        /* \"#utility.yul\":5423:5477   */\n      and\n        /* \"#utility.yul\":5412:5477   */\n      swap1\n      pop\n        /* \"#utility.yul\":5402:5483   */\n      swap2\n      swap1\n      pop\n      jump\t// out\n        /* \"#utility.yul\":5489:5566   */\n    tag_96:\n      0x00\n        /* \"#utility.yul\":5555:5560   */\n      dup2\n        /* \"#utility.yul\":5544:5560   */\n      swap1\n      pop\n        /* \"#utility.yul\":5534:5566   */\n      swap2\n      swap1\n      pop\n      jump\t// out\n        /* \"#utility.yul\":5572:5726   */\n    tag_55:\n        /* \"#utility.yul\":5656:5662   */\n      dup3\n        /* \"#utility.yul\":5651:5654   */\n      dup2\n        /* \"#utility.yul\":5646:5649   */\n      dup4\n        /* \"#utility.yul\":5633:5663   */\n      calldatacopy\n        /* \"#utility.yul\":5718:5719   */\n      0x00\n        /* \"#utility.yul\":5709:5715   */\n      dup4\n        /* \"#utility.yul\":5704:5707   */\n      dup4\n        /* \"#utility.yul\":5700:5716   */\n      add\n        /* \"#utility.yul\":5693:5720   */\n      mstore\n        /* \"#utility.yul\":5623:5726   */\n      pop\n      pop\n      pop\n      jump\t// out\n        /* \"#utility.yul\":5732:6039   */\n    tag_90:\n        /* \"#utility.yul\":5800:5801   */\n      0x00\n        /* \"#utility.yul\":5810:5923   */\n    tag_122:\n        /* \"#utility.yul\":5824:5830   */\n      dup4\n        /* \"#utility.yul\":5821:5822   */\n      dup2\n        /* \"#utility.yul\":5818:5831   */\n      lt\n        /* \"#utility.yul\":5810:5923   */\n      iszero\n      tag_124\n      jumpi\n        /* \"#utility.yul\":5909:5910   */\n      dup1\n        /* \"#utility.yul\":5904:5907   */\n      dup3\n        /* \"#utility.yul\":5900:5911   */\n      add\n        /* \"#utility.yul\":5894:5912   */\n      mload\n        /* \"#utility.yul\":5890:5891   */\n      dup2\n        /* \"#utility.yul\":5885:5888   */\n      dup5\n        /* \"#utility.yul\":5881:5892   */\n      add\n        /* \"#utility.yul\":5874:5913   */\n      mstore\n        /* \"#utility.yul\":5846:5848   */\n      0x20\n        /* \"#utility.yul\":5843:5844   */\n      dup2\n        /* \"#utility.yul\":5839:5849   */\n      add\n        /* \"#utility.yul\":5834:5849   */\n      swap1\n      pop\n        /* \"#utility.yul\":5810:5923   */\n      jump(tag_122)\n    tag_124:\n        /* \"#utility.yul\":5941:5947   */\n      dup4\n        /* \"#utility.yul\":5938:5939   */\n      dup2\n        /* \"#utility.yul\":5935:5948   */\n      gt\n        /* \"#utility.yul\":5932:5934   */\n      iszero\n      tag_125\n      jumpi\n        /* \"#utility.yul\":6021:6022   */\n      0x00\n        /* \"#utility.yul\":6012:6018   */\n      dup5\n        /* \"#utility.yul\":6007:6010   */\n      dup5\n        /* \"#utility.yul\":6003:6019   */\n      add\n        /* \"#utility.yul\":5996:6023   */\n      mstore\n        /* \"#utility.yul\":5932:5934   */\n    tag_125:\n        /* \"#utility.yul\":5781:6039   */\n      pop\n      pop\n      pop\n      pop\n      jump\t// out\n        /* \"#utility.yul\":6045:6365   */\n    tag_21:\n      0x00\n        /* \"#utility.yul\":6126:6127   */\n      0x02\n        /* \"#utility.yul\":6120:6124   */\n      dup3\n        /* \"#utility.yul\":6116:6128   */\n      div\n        /* \"#utility.yul\":6106:6128   */\n      swap1\n      pop\n        /* \"#utility.yul\":6173:6174   */\n      0x01\n        /* \"#utility.yul\":6167:6171   */\n      dup3\n        /* \"#utility.yul\":6163:6175   */\n      and\n        /* \"#utility.yul\":6194:6212   */\n      dup1\n        /* \"#utility.yul\":6184:6186   */\n      tag_127\n      jumpi\n        /* \"#utility.yul\":6250:6254   */\n      0x7f\n        /* \"#utility.yul\":6242:6248   */\n      dup3\n        /* \"#utility.yul\":6238:6255   */\n      and\n        /* \"#utility.yul\":6228:6255   */\n      swap2\n      pop\n        /* \"#utility.yul\":6184:6186   */\n    tag_127:\n        /* \"#utility.yul\":6312:6314   */\n      0x20\n        /* \"#utility.yul\":6304:6310   */\n      dup3\n        /* \"#utility.yul\":6301:6315   */\n      lt\n        /* \"#utility.yul\":6281:6299   */\n      dup2\n        /* \"#utility.yul\":6278:6316   */\n      eq\n        /* \"#utility.yul\":6275:6277   */\n      iszero\n      tag_128\n      jumpi\n        /* \"#utility.yul\":6331:6349   */\n      tag_129\n      tag_130\n      jump\t// in\n    tag_129:\n        /* \"#utility.yul\":6275:6277   */\n    tag_128:\n        /* \"#utility.yul\":6096:6365   */\n      pop\n      swap2\n      swap1\n      pop\n      jump\t// out\n        /* \"#utility.yul\":6371:6551   */\n    tag_130:\n        /* \"#utility.yul\":6419:6496   */\n      0x4e487b7100000000000000000000000000000000000000000000000000000000\n        /* \"#utility.yul\":6416:6417   */\n      0x00\n        /* \"#utility.yul\":6409:6497   */\n      mstore\n        /* \"#utility.yul\":6516:6520   */\n      0x22\n        /* \"#utility.yul\":6513:6514   */\n      0x04\n        /* \"#utility.yul\":6506:6521   */\n      mstore\n        /* \"#utility.yul\":6540:6544   */\n      0x24\n        /* \"#utility.yul\":6537:6538   */\n      0x00\n        /* \"#utility.yul\":6530:6545   */\n      revert\n        /* \"#utility.yul\":6557:6737   */\n    tag_108:\n        /* \"#utility.yul\":6605:6682   */\n      0x4e487b7100000000000000000000000000000000000000000000000000000000\n        /* \"#utility.yul\":6602:6603   */\n      0x00\n        /* \"#utility.yul\":6595:6683   */\n      mstore\n        /* \"#utility.yul\":6702:6706   */\n      0x41\n        /* \"#utility.yul\":6699:6700   */\n      0x04\n        /* \"#utility.yul\":6692:6707   */\n      mstore\n        /* \"#utility.yul\":6726:6730   */\n      0x24\n        /* \"#utility.yul\":6723:6724   */\n      0x00\n        /* \"#utility.yul\":6716:6731   */\n      revert\n        /* \"#utility.yul\":6743:6845   */\n    tag_92:\n      0x00\n        /* \"#utility.yul\":6835:6837   */\n      0x1f\n        /* \"#utility.yul\":6831:6838   */\n      not\n        /* \"#utility.yul\":6826:6828   */\n      0x1f\n        /* \"#utility.yul\":6819:6824   */\n      dup4\n        /* \"#utility.yul\":6815:6829   */\n      add\n        /* \"#utility.yul\":6811:6839   */\n      and\n        /* \"#utility.yul\":6801:6839   */\n      swap1\n      pop\n        /* \"#utility.yul\":6791:6845   */\n      swap2\n      swap1\n      pop\n      jump\t// out\n        /* \"#utility.yul\":6851:6973   */\n    tag_59:\n        /* \"#utility.yul\":6924:6948   */\n      tag_135\n        /* \"#utility.yul\":6942:6947   */\n      dup2\n        /* \"#utility.yul\":6924:6948   */\n      tag_114\n      jump\t// in\n    tag_135:\n        /* \"#utility.yul\":6917:6922   */\n      dup2\n        /* \"#utility.yul\":6914:6949   */\n      eq\n        /* \"#utility.yul\":6904:6906   */\n      tag_136\n      jumpi\n        /* \"#utility.yul\":6963:6964   */\n      0x00\n        /* \"#utility.yul\":6960:6961   */\n      dup1\n        /* \"#utility.yul\":6953:6965   */\n      revert\n        /* \"#utility.yul\":6904:6906   */\n    tag_136:\n        /* \"#utility.yul\":6894:6973   */\n      pop\n      jump\t// out\n        /* \"#utility.yul\":6979:7101   */\n    tag_67:\n        /* \"#utility.yul\":7052:7076   */\n      tag_138\n        /* \"#utility.yul\":7070:7075   */\n      dup2\n        /* \"#utility.yul\":7052:7076   */\n      tag_96\n      jump\t// in\n    tag_138:\n        /* \"#utility.yul\":7045:7050   */\n      dup2\n        /* \"#utility.yul\":7042:7077   */\n      eq\n        /* \"#utility.yul\":7032:7034   */\n      tag_139\n      jumpi\n        /* \"#utility.yul\":7091:7092   */\n      0x00\n        /* \"#utility.yul\":7088:7089   */\n      dup1\n        /* \"#utility.yul\":7081:7093   */\n      revert\n        /* \"#utility.yul\":7032:7034   */\n    tag_139:\n        /* \"#utility.yul\":7022:7101   */\n      pop\n      jump\t// out\n\n    auxdata: 0xa2646970667358221220dfd912f38eda9a319d4bc537ee621d5c4aa49f45a6ea9b72ad50ba29b6d6901a64736f6c63430008000033\n}\n",
				"bytecode": {
					"linkReferences": {},
					"object": "608060405234801561001057600080fd5b50610873806100206000396000f3fe608060405234801561001057600080fd5b50600436106100365760003560e01c806370f220d71461003b578063a6c807a914610057575b600080fd5b610055600480360381019061005091906104c1565b61008d565b005b610071600480360381019061006c9190610498565b610189565b60405161008497969594939291906105ef565b60405180910390f35b6040518060e00160405280888152602001878152602001868152602001858152602001848152602001838152602001828152506000803373ffffffffffffffffffffffffffffffffffffffff1673ffffffffffffffffffffffffffffffffffffffff168152602001908152602001600020600082015181600001908051906020019061011a929190610363565b506020820151816001015560408201518160020155606082015181600301908051906020019061014b929190610363565b506080820151816004015560a0820151816005019080519060200190610172929190610363565b5060c0820151816006015590505050505050505050565b60006020528060005260406000206000915090508060000180546101ac9061076e565b80601f01602080910402602001604051908101604052809291908181526020018280546101d89061076e565b80156102255780601f106101fa57610100808354040283529160200191610225565b820191906000526020600020905b81548152906001019060200180831161020857829003601f168201915b5050505050908060010154908060020154908060030180546102469061076e565b80601f01602080910402602001604051908101604052809291908181526020018280546102729061076e565b80156102bf5780601f10610294576101008083540402835291602001916102bf565b820191906000526020600020905b8154815290600101906020018083116102a257829003601f168201915b5050505050908060040154908060050180546102da9061076e565b80601f01602080910402602001604051908101604052809291908181526020018280546103069061076e565b80156103535780601f1061032857610100808354040283529160200191610353565b820191906000526020600020905b81548152906001019060200180831161033657829003601f168201915b5050505050908060060154905087565b82805461036f9061076e565b90600052602060002090601f01602090048101928261039157600085556103d8565b82601f106103aa57805160ff19168380011785556103d8565b828001600101855582156103d8579182015b828111156103d75782518255916020019190600101906103bc565b5b5090506103e591906103e9565b5090565b5b808211156104025760008160009055506001016103ea565b5090565b6000610419610414846106a4565b610673565b90508281526020810184848401111561043157600080fd5b61043c84828561072c565b509392505050565b6000813590506104538161080f565b92915050565b600082601f83011261046a57600080fd5b813561047a848260208601610406565b91505092915050565b60008135905061049281610826565b92915050565b6000602082840312156104aa57600080fd5b60006104b884828501610444565b91505092915050565b600080600080600080600060e0888a0312156104dc57600080fd5b600088013567ffffffffffffffff8111156104f657600080fd5b6105028a828b01610459565b97505060206105138a828b01610483565b96505060406105248a828b01610483565b955050606088013567ffffffffffffffff81111561054157600080fd5b61054d8a828b01610459565b945050608061055e8a828b01610483565b93505060a088013567ffffffffffffffff81111561057b57600080fd5b6105878a828b01610459565b92505060c06105988a828b01610483565b91505092959891949750929550565b60006105b2826106d4565b6105bc81856106df565b93506105cc81856020860161073b565b6105d5816107fe565b840191505092915050565b6105e981610722565b82525050565b600060e0820190508181036000830152610609818a6105a7565b905061061860208301896105e0565b61062560408301886105e0565b818103606083015261063781876105a7565b905061064660808301866105e0565b81810360a083015261065881856105a7565b905061066760c08301846105e0565b98975050505050505050565b6000604051905081810181811067ffffffffffffffff8211171561069a576106996107cf565b5b8060405250919050565b600067ffffffffffffffff8211156106bf576106be6107cf565b5b601f19601f8301169050602081019050919050565b600081519050919050565b600082825260208201905092915050565b60006106fb82610702565b9050919050565b600073ffffffffffffffffffffffffffffffffffffffff82169050919050565b6000819050919050565b82818337600083830152505050565b60005b8381101561075957808201518184015260208101905061073e565b83811115610768576000848401525b50505050565b6000600282049050600182168061078657607f821691505b6020821081141561079a576107996107a0565b5b50919050565b7f4e487b7100000000000000000000000000000000000000000000000000000000600052602260045260246000fd5b7f4e487b7100000000000000000000000000000000000000000000000000000000600052604160045260246000fd5b6000601f19601f8301169050919050565b610818816106f0565b811461082357600080fd5b50565b61082f81610722565b811461083a57600080fd5b5056fea2646970667358221220dfd912f38eda9a319d4bc537ee621d5c4aa49f45a6ea9b72ad50ba29b6d6901a64736f6c63430008000033",
					"opcodes": "PUSH1 0x80 PUSH1 0x40 MSTORE CALLVALUE DUP1 ISZERO PUSH2 0x10 JUMPI PUSH1 0x0 DUP1 REVERT JUMPDEST POP PUSH2 0x873 DUP1 PUSH2 0x20 PUSH1 0x0 CODECOPY PUSH1 0x0 RETURN INVALID PUSH1 0x80 PUSH1 0x40 MSTORE CALLVALUE DUP1 ISZERO PUSH2 0x10 JUMPI PUSH1 0x0 DUP1 REVERT JUMPDEST POP PUSH1 0x4 CALLDATASIZE LT PUSH2 0x36 JUMPI PUSH1 0x0 CALLDATALOAD PUSH1 0xE0 SHR DUP1 PUSH4 0x70F220D7 EQ PUSH2 0x3B JUMPI DUP1 PUSH4 0xA6C807A9 EQ PUSH2 0x57 JUMPI JUMPDEST PUSH1 0x0 DUP1 REVERT JUMPDEST PUSH2 0x55 PUSH1 0x4 DUP1 CALLDATASIZE SUB DUP2 ADD SWAP1 PUSH2 0x50 SWAP2 SWAP1 PUSH2 0x4C1 JUMP JUMPDEST PUSH2 0x8D JUMP JUMPDEST STOP JUMPDEST PUSH2 0x71 PUSH1 0x4 DUP1 CALLDATASIZE SUB DUP2 ADD SWAP1 PUSH2 0x6C SWAP2 SWAP1 PUSH2 0x498 JUMP JUMPDEST PUSH2 0x189 JUMP JUMPDEST PUSH1 0x40 MLOAD PUSH2 0x84 SWAP8 SWAP7 SWAP6 SWAP5 SWAP4 SWAP3 SWAP2 SWAP1 PUSH2 0x5EF JUMP JUMPDEST PUSH1 0x40 MLOAD DUP1 SWAP2 SUB SWAP1 RETURN JUMPDEST PUSH1 0x40 MLOAD DUP1 PUSH1 0xE0 ADD PUSH1 0x40 MSTORE DUP1 DUP9 DUP2 MSTORE PUSH1 0x20 ADD DUP8 DUP2 MSTORE PUSH1 0x20 ADD DUP7 DUP2 MSTORE PUSH1 0x20 ADD DUP6 DUP2 MSTORE PUSH1 0x20 ADD DUP5 DUP2 MSTORE PUSH1 0x20 ADD DUP4 DUP2 MSTORE PUSH1 0x20 ADD DUP3 DUP2 MSTORE POP PUSH1 0x0 DUP1 CALLER PUSH20 0xFFFFFFFFFFFFFFFFFFFFFFFFFFFFFFFFFFFFFFFF AND PUSH20 0xFFFFFFFFFFFFFFFFFFFFFFFFFFFFFFFFFFFFFFFF AND DUP2 MSTORE PUSH1 0x20 ADD SWAP1 DUP2 MSTORE PUSH1 0x20 ADD PUSH1 0x0 KECCAK256 PUSH1 0x0 DUP3 ADD MLOAD DUP2 PUSH1 0x0 ADD SWAP1 DUP1 MLOAD SWAP1 PUSH1 0x20 ADD SWAP1 PUSH2 0x11A SWAP3 SWAP2 SWAP1 PUSH2 0x363 JUMP JUMPDEST POP PUSH1 0x20 DUP3 ADD MLOAD DUP2 PUSH1 0x1 ADD SSTORE PUSH1 0x40 DUP3 ADD MLOAD DUP2 PUSH1 0x2 ADD SSTORE PUSH1 0x60 DUP3 ADD MLOAD DUP2 PUSH1 0x3 ADD SWAP1 DUP1 MLOAD SWAP1 PUSH1 0x20 ADD SWAP1 PUSH2 0x14B SWAP3 SWAP2 SWAP1 PUSH2 0x363 JUMP JUMPDEST POP PUSH1 0x80 DUP3 ADD MLOAD DUP2 PUSH1 0x4 ADD SSTORE PUSH1 0xA0 DUP3 ADD MLOAD DUP2 PUSH1 0x5 ADD SWAP1 DUP1 MLOAD SWAP1 PUSH1 0x20 ADD SWAP1 PUSH2 0x172 SWAP3 SWAP2 SWAP1 PUSH2 0x363 JUMP JUMPDEST POP PUSH1 0xC0 DUP3 ADD MLOAD DUP2 PUSH1 0x6 ADD SSTORE SWAP1 POP POP POP POP POP POP POP POP POP JUMP JUMPDEST PUSH1 0x0 PUSH1 0x20 MSTORE DUP1 PUSH1 0x0 MSTORE PUSH1 0x40 PUSH1 0x0 KECCAK256 PUSH1 0x0 SWAP2 POP SWAP1 POP DUP1 PUSH1 0x0 ADD DUP1 SLOAD PUSH2 0x1AC SWAP1 PUSH2 0x76E JUMP JUMPDEST DUP1 PUSH1 0x1F ADD PUSH1 0x20 DUP1 SWAP2 DIV MUL PUSH1 0x20 ADD PUSH1 0x40 MLOAD SWAP1 DUP2 ADD PUSH1 0x40 MSTORE DUP1 SWAP3 SWAP2 SWAP1 DUP2 DUP2 MSTORE PUSH1 0x20 ADD DUP3 DUP1 SLOAD PUSH2 0x1D8 SWAP1 PUSH2 0x76E JUMP JUMPDEST DUP1 ISZERO PUSH2 0x225 JUMPI DUP1 PUSH1 0x1F LT PUSH2 0x1FA JUMPI PUSH2 0x100 DUP1 DUP4 SLOAD DIV MUL DUP4 MSTORE SWAP2 PUSH1 0x20 ADD SWAP2 PUSH2 0x225 JUMP JUMPDEST DUP3 ADD SWAP2 SWAP1 PUSH1 0x0 MSTORE PUSH1 0x20 PUSH1 0x0 KECCAK256 SWAP1 JUMPDEST DUP2 SLOAD DUP2 MSTORE SWAP1 PUSH1 0x1 ADD SWAP1 PUSH1 0x20 ADD DUP1 DUP4 GT PUSH2 0x208 JUMPI DUP3 SWAP1 SUB PUSH1 0x1F AND DUP3 ADD SWAP2 JUMPDEST POP POP POP POP POP SWAP1 DUP1 PUSH1 0x1 ADD SLOAD SWAP1 DUP1 PUSH1 0x2 ADD SLOAD SWAP1 DUP1 PUSH1 0x3 ADD DUP1 SLOAD PUSH2 0x246 SWAP1 PUSH2 0x76E JUMP JUMPDEST DUP1 PUSH1 0x1F ADD PUSH1 0x20 DUP1 SWAP2 DIV MUL PUSH1 0x20 ADD PUSH1 0x40 MLOAD SWAP1 DUP2 ADD PUSH1 0x40 MSTORE DUP1 SWAP3 SWAP2 SWAP1 DUP2 DUP2 MSTORE PUSH1 0x20 ADD DUP3 DUP1 SLOAD PUSH2 0x272 SWAP1 PUSH2 0x76E JUMP JUMPDEST DUP1 ISZERO PUSH2 0x2BF JUMPI DUP1 PUSH1 0x1F LT PUSH2 0x294 JUMPI PUSH2 0x100 DUP1 DUP4 SLOAD DIV MUL DUP4 MSTORE SWAP2 PUSH1 0x20 ADD SWAP2 PUSH2 0x2BF JUMP JUMPDEST DUP3 ADD SWAP2 SWAP1 PUSH1 0x0 MSTORE PUSH1 0x20 PUSH1 0x0 KECCAK256 SWAP1 JUMPDEST DUP2 SLOAD DUP2 MSTORE SWAP1 PUSH1 0x1 ADD SWAP1 PUSH1 0x20 ADD DUP1 DUP4 GT PUSH2 0x2A2 JUMPI DUP3 SWAP1 SUB PUSH1 0x1F AND DUP3 ADD SWAP2 JUMPDEST POP POP POP POP POP SWAP1 DUP1 PUSH1 0x4 ADD SLOAD SWAP1 DUP1 PUSH1 0x5 ADD DUP1 SLOAD PUSH2 0x2DA SWAP1 PUSH2 0x76E JUMP JUMPDEST DUP1 PUSH1 0x1F ADD PUSH1 0x20 DUP1 SWAP2 DIV MUL PUSH1 0x20 ADD PUSH1 0x40 MLOAD SWAP1 DUP2 ADD PUSH1 0x40 MSTORE DUP1 SWAP3 SWAP2 SWAP1 DUP2 DUP2 MSTORE PUSH1 0x20 ADD DUP3 DUP1 SLOAD PUSH2 0x306 SWAP1 PUSH2 0x76E JUMP JUMPDEST DUP1 ISZERO PUSH2 0x353 JUMPI DUP1 PUSH1 0x1F LT PUSH2 0x328 JUMPI PUSH2 0x100 DUP1 DUP4 SLOAD DIV MUL DUP4 MSTORE SWAP2 PUSH1 0x20 ADD SWAP2 PUSH2 0x353 JUMP JUMPDEST DUP3 ADD SWAP2 SWAP1 PUSH1 0x0 MSTORE PUSH1 0x20 PUSH1 0x0 KECCAK256 SWAP1 JUMPDEST DUP2 SLOAD DUP2 MSTORE SWAP1 PUSH1 0x1 ADD SWAP1 PUSH1 0x20 ADD DUP1 DUP4 GT PUSH2 0x336 JUMPI DUP3 SWAP1 SUB PUSH1 0x1F AND DUP3 ADD SWAP2 JUMPDEST POP POP POP POP POP SWAP1 DUP1 PUSH1 0x6 ADD SLOAD SWAP1 POP DUP8 JUMP JUMPDEST DUP3 DUP1 SLOAD PUSH2 0x36F SWAP1 PUSH2 0x76E JUMP JUMPDEST SWAP1 PUSH1 0x0 MSTORE PUSH1 0x20 PUSH1 0x0 KECCAK256 SWAP1 PUSH1 0x1F ADD PUSH1 0x20 SWAP1 DIV DUP2 ADD SWAP3 DUP3 PUSH2 0x391 JUMPI PUSH1 0x0 DUP6 SSTORE PUSH2 0x3D8 JUMP JUMPDEST DUP3 PUSH1 0x1F LT PUSH2 0x3AA JUMPI DUP1 MLOAD PUSH1 0xFF NOT AND DUP4 DUP1 ADD OR DUP6 SSTORE PUSH2 0x3D8 JUMP JUMPDEST DUP3 DUP1 ADD PUSH1 0x1 ADD DUP6 SSTORE DUP3 ISZERO PUSH2 0x3D8 JUMPI SWAP2 DUP3 ADD JUMPDEST DUP3 DUP2 GT ISZERO PUSH2 0x3D7 JUMPI DUP3 MLOAD DUP3 SSTORE SWAP2 PUSH1 0x20 ADD SWAP2 SWAP1 PUSH1 0x1 ADD SWAP1 PUSH2 0x3BC JUMP JUMPDEST JUMPDEST POP SWAP1 POP PUSH2 0x3E5 SWAP2 SWAP1 PUSH2 0x3E9 JUMP JUMPDEST POP SWAP1 JUMP JUMPDEST JUMPDEST DUP1 DUP3 GT ISZERO PUSH2 0x402 JUMPI PUSH1 0x0 DUP2 PUSH1 0x0 SWAP1 SSTORE POP PUSH1 0x1 ADD PUSH2 0x3EA JUMP JUMPDEST POP SWAP1 JUMP JUMPDEST PUSH1 0x0 PUSH2 0x419 PUSH2 0x414 DUP5 PUSH2 0x6A4 JUMP JUMPDEST PUSH2 0x673 JUMP JUMPDEST SWAP1 POP DUP3 DUP2 MSTORE PUSH1 0x20 DUP2 ADD DUP5 DUP5 DUP5 ADD GT ISZERO PUSH2 0x431 JUMPI PUSH1 0x0 DUP1 REVERT JUMPDEST PUSH2 0x43C DUP5 DUP3 DUP6 PUSH2 0x72C JUMP JUMPDEST POP SWAP4 SWAP3 POP POP POP JUMP JUMPDEST PUSH1 0x0 DUP2 CALLDATALOAD SWAP1 POP PUSH2 0x453 DUP2 PUSH2 0x80F JUMP JUMPDEST SWAP3 SWAP2 POP POP JUMP JUMPDEST PUSH1 0x0 DUP3 PUSH1 0x1F DUP4 ADD SLT PUSH2 0x46A JUMPI PUSH1 0x0 DUP1 REVERT JUMPDEST DUP2 CALLDATALOAD PUSH2 0x47A DUP5 DUP3 PUSH1 0x20 DUP7 ADD PUSH2 0x406 JUMP JUMPDEST SWAP2 POP POP SWAP3 SWAP2 POP POP JUMP JUMPDEST PUSH1 0x0 DUP2 CALLDATALOAD SWAP1 POP PUSH2 0x492 DUP2 PUSH2 0x826 JUMP JUMPDEST SWAP3 SWAP2 POP POP JUMP JUMPDEST PUSH1 0x0 PUSH1 0x20 DUP3 DUP5 SUB SLT ISZERO PUSH2 0x4AA JUMPI PUSH1 0x0 DUP1 REVERT JUMPDEST PUSH1 0x0 PUSH2 0x4B8 DUP5 DUP3 DUP6 ADD PUSH2 0x444 JUMP JUMPDEST SWAP2 POP POP SWAP3 SWAP2 POP POP JUMP JUMPDEST PUSH1 0x0 DUP1 PUSH1 0x0 DUP1 PUSH1 0x0 DUP1 PUSH1 0x0 PUSH1 0xE0 DUP9 DUP11 SUB SLT ISZERO PUSH2 0x4DC JUMPI PUSH1 0x0 DUP1 REVERT JUMPDEST PUSH1 0x0 DUP9 ADD CALLDATALOAD PUSH8 0xFFFFFFFFFFFFFFFF DUP2 GT ISZERO PUSH2 0x4F6 JUMPI PUSH1 0x0 DUP1 REVERT JUMPDEST PUSH2 0x502 DUP11 DUP3 DUP12 ADD PUSH2 0x459 JUMP JUMPDEST SWAP8 POP POP PUSH1 0x20 PUSH2 0x513 DUP11 DUP3 DUP12 ADD PUSH2 0x483 JUMP JUMPDEST SWAP7 POP POP PUSH1 0x40 PUSH2 0x524 DUP11 DUP3 DUP12 ADD PUSH2 0x483 JUMP JUMPDEST SWAP6 POP POP PUSH1 0x60 DUP9 ADD CALLDATALOAD PUSH8 0xFFFFFFFFFFFFFFFF DUP2 GT ISZERO PUSH2 0x541 JUMPI PUSH1 0x0 DUP1 REVERT JUMPDEST PUSH2 0x54D DUP11 DUP3 DUP12 ADD PUSH2 0x459 JUMP JUMPDEST SWAP5 POP POP PUSH1 0x80 PUSH2 0x55E DUP11 DUP3 DUP12 ADD PUSH2 0x483 JUMP JUMPDEST SWAP4 POP POP PUSH1 0xA0 DUP9 ADD CALLDATALOAD PUSH8 0xFFFFFFFFFFFFFFFF DUP2 GT ISZERO PUSH2 0x57B JUMPI PUSH1 0x0 DUP1 REVERT JUMPDEST PUSH2 0x587 DUP11 DUP3 DUP12 ADD PUSH2 0x459 JUMP JUMPDEST SWAP3 POP POP PUSH1 0xC0 PUSH2 0x598 DUP11 DUP3 DUP12 ADD PUSH2 0x483 JUMP JUMPDEST SWAP2 POP POP SWAP3 SWAP6 SWAP9 SWAP2 SWAP5 SWAP8 POP SWAP3 SWAP6 POP JUMP JUMPDEST PUSH1 0x0 PUSH2 0x5B2 DUP3 PUSH2 0x6D4 JUMP JUMPDEST PUSH2 0x5BC DUP2 DUP6 PUSH2 0x6DF JUMP JUMPDEST SWAP4 POP PUSH2 0x5CC DUP2 DUP6 PUSH1 0x20 DUP7 ADD PUSH2 0x73B JUMP JUMPDEST PUSH2 0x5D5 DUP2 PUSH2 0x7FE JUMP JUMPDEST DUP5 ADD SWAP2 POP POP SWAP3 SWAP2 POP POP JUMP JUMPDEST PUSH2 0x5E9 DUP2 PUSH2 0x722 JUMP JUMPDEST DUP3 MSTORE POP POP JUMP JUMPDEST PUSH1 0x0 PUSH1 0xE0 DUP3 ADD SWAP1 POP DUP2 DUP2 SUB PUSH1 0x0 DUP4 ADD MSTORE PUSH2 0x609 DUP2 DUP11 PUSH2 0x5A7 JUMP JUMPDEST SWAP1 POP PUSH2 0x618 PUSH1 0x20 DUP4 ADD DUP10 PUSH2 0x5E0 JUMP JUMPDEST PUSH2 0x625 PUSH1 0x40 DUP4 ADD DUP9 PUSH2 0x5E0 JUMP JUMPDEST DUP2 DUP2 SUB PUSH1 0x60 DUP4 ADD MSTORE PUSH2 0x637 DUP2 DUP8 PUSH2 0x5A7 JUMP JUMPDEST SWAP1 POP PUSH2 0x646 PUSH1 0x80 DUP4 ADD DUP7 PUSH2 0x5E0 JUMP JUMPDEST DUP2 DUP2 SUB PUSH1 0xA0 DUP4 ADD MSTORE PUSH2 0x658 DUP2 DUP6 PUSH2 0x5A7 JUMP JUMPDEST SWAP1 POP PUSH2 0x667 PUSH1 0xC0 DUP4 ADD DUP5 PUSH2 0x5E0 JUMP JUMPDEST SWAP9 SWAP8 POP POP POP POP POP POP POP POP JUMP JUMPDEST PUSH1 0x0 PUSH1 0x40 MLOAD SWAP1 POP DUP2 DUP2 ADD DUP2 DUP2 LT PUSH8 0xFFFFFFFFFFFFFFFF DUP3 GT OR ISZERO PUSH2 0x69A JUMPI PUSH2 0x699 PUSH2 0x7CF JUMP JUMPDEST JUMPDEST DUP1 PUSH1 0x40 MSTORE POP SWAP2 SWAP1 POP JUMP JUMPDEST PUSH1 0x0 PUSH8 0xFFFFFFFFFFFFFFFF DUP3 GT ISZERO PUSH2 0x6BF JUMPI PUSH2 0x6BE PUSH2 0x7CF JUMP JUMPDEST JUMPDEST PUSH1 0x1F NOT PUSH1 0x1F DUP4 ADD AND SWAP1 POP PUSH1 0x20 DUP2 ADD SWAP1 POP SWAP2 SWAP1 POP JUMP JUMPDEST PUSH1 0x0 DUP2 MLOAD SWAP1 POP SWAP2 SWAP1 POP JUMP JUMPDEST PUSH1 0x0 DUP3 DUP3 MSTORE PUSH1 0x20 DUP3 ADD SWAP1 POP SWAP3 SWAP2 POP POP JUMP JUMPDEST PUSH1 0x0 PUSH2 0x6FB DUP3 PUSH2 0x702 JUMP JUMPDEST SWAP1 POP SWAP2 SWAP1 POP JUMP JUMPDEST PUSH1 0x0 PUSH20 0xFFFFFFFFFFFFFFFFFFFFFFFFFFFFFFFFFFFFFFFF DUP3 AND SWAP1 POP SWAP2 SWAP1 POP JUMP JUMPDEST PUSH1 0x0 DUP2 SWAP1 POP SWAP2 SWAP1 POP JUMP JUMPDEST DUP3 DUP2 DUP4 CALLDATACOPY PUSH1 0x0 DUP4 DUP4 ADD MSTORE POP POP POP JUMP JUMPDEST PUSH1 0x0 JUMPDEST DUP4 DUP2 LT ISZERO PUSH2 0x759 JUMPI DUP1 DUP3 ADD MLOAD DUP2 DUP5 ADD MSTORE PUSH1 0x20 DUP2 ADD SWAP1 POP PUSH2 0x73E JUMP JUMPDEST DUP4 DUP2 GT ISZERO PUSH2 0x768 JUMPI PUSH1 0x0 DUP5 DUP5 ADD MSTORE JUMPDEST POP POP POP POP JUMP JUMPDEST PUSH1 0x0 PUSH1 0x2 DUP3 DIV SWAP1 POP PUSH1 0x1 DUP3 AND DUP1 PUSH2 0x786 JUMPI PUSH1 0x7F DUP3 AND SWAP2 POP JUMPDEST PUSH1 0x20 DUP3 LT DUP2 EQ ISZERO PUSH2 0x79A JUMPI PUSH2 0x799 PUSH2 0x7A0 JUMP JUMPDEST JUMPDEST POP SWAP2 SWAP1 POP JUMP JUMPDEST PUSH32 0x4E487B7100000000000000000000000000000000000000000000000000000000 PUSH1 0x0 MSTORE PUSH1 0x22 PUSH1 0x4 MSTORE PUSH1 0x24 PUSH1 0x0 REVERT JUMPDEST PUSH32 0x4E487B7100000000000000000000000000000000000000000000000000000000 PUSH1 0x0 MSTORE PUSH1 0x41 PUSH1 0x4 MSTORE PUSH1 0x24 PUSH1 0x0 REVERT JUMPDEST PUSH1 0x0 PUSH1 0x1F NOT PUSH1 0x1F DUP4 ADD AND SWAP1 POP SWAP2 SWAP1 POP JUMP JUMPDEST PUSH2 0x818 DUP2 PUSH2 0x6F0 JUMP JUMPDEST DUP2 EQ PUSH2 0x823 JUMPI PUSH1 0x0 DUP1 REVERT JUMPDEST POP JUMP JUMPDEST PUSH2 0x82F DUP2 PUSH2 0x722 JUMP JUMPDEST DUP2 EQ PUSH2 0x83A JUMPI PUSH1 0x0 DUP1 REVERT JUMPDEST POP JUMP INVALID LOG2 PUSH5 0x6970667358 0x22 SLT KECCAK256 0xDF 0xD9 SLT RETURN DUP15 0xDA SWAP11 BALANCE SWAP14 0x4B 0xC5 CALLDATACOPY 0xEE PUSH3 0x1D5C4A LOG4 SWAP16 GASLIMIT 0xA6 0xEA SWAP12 PUSH19 0xAD50BA29B6D6901A64736F6C63430008000033 "
				},
				"gasEstimates": {
					"creation": {
						"codeDepositCost": "432600",
						"executionCost": "468",
						"totalCost": "433068"
					},
					"external": {
						"storeStudentData(string,uint256,uint256,string,uint256,string,uint256)": "infinite",
						"students(address)": "infinite"
					}
				},
				"methodIdentifiers": {
					"storeStudentData(string,uint256,uint256,string,uint256,string,uint256)": "70f220d7",
					"students(address)": "a6c807a9"
				}
			},
			"storageLayout": {
				"storage": [
					{
						"astId": 21,
						"contract": "StudentInformation1.sol:StudentInformation",
						"label": "students",
						"offset": 0,
						"slot": "0",
						"type": "t_mapping(t_address,t_struct(Student)16_storage)"
					}
				],
				"types": {
					"t_address": {
						"encoding": "inplace",
						"label": "address",
						"numberOfBytes": "20"
					},
					"t_mapping(t_address,t_struct(Student)16_storage)": {
						"encoding": "mapping",
						"key": "t_address",
						"label": "mapping(address => struct StudentInformation.Student)",
						"numberOfBytes": "32",
						"value": "t_struct(Student)16_storage"
					},
					"t_string_storage": {
						"encoding": "bytes",
						"label": "string",
						"numberOfBytes": "32"
					},
					"t_struct(Student)16_storage": {
						"encoding": "inplace",
						"label": "struct StudentInformation.Student",
						"members": [
							{
								"astId": 3,
								"contract": "StudentInformation1.sol:StudentInformation",
								"label": "name",
								"offset": 0,
								"slot": "0",
								"type": "t_string_storage"
							},
							{
								"astId": 5,
								"contract": "StudentInformation1.sol:StudentInformation",
								"label": "rollNo",
								"offset": 0,
								"slot": "1",
								"type": "t_uint256"
							},
							{
								"astId": 7,
								"contract": "StudentInformation1.sol:StudentInformation",
								"label": "percentage",
								"offset": 0,
								"slot": "2",
								"type": "t_uint256"
							},
							{
								"astId": 9,
								"contract": "StudentInformation1.sol:StudentInformation",
								"label": "email",
								"offset": 0,
								"slot": "3",
								"type": "t_string_storage"
							},
							{
								"astId": 11,
								"contract": "StudentInformation1.sol:StudentInformation",
								"label": "dob",
								"offset": 0,
								"slot": "4",
								"type": "t_uint256"
							},
							{
								"astId": 13,
								"contract": "StudentInformation1.sol:StudentInformation",
								"label": "studentClass",
								"offset": 0,
								"slot": "5",
								"type": "t_string_storage"
							},
							{
								"astId": 15,
								"contract": "StudentInformation1.sol:StudentInformation",
								"label": "admissionYear",
								"offset": 0,
								"slot": "6",
								"type": "t_uint256"
							}
						],
						"numberOfBytes": "224"
					},
					"t_uint256": {
						"encoding": "inplace",
						"label": "uint256",
						"numberOfBytes": "32"
					}
				}
			},
			"userdoc": {
				"kind": "user",
				"methods": {},
				"version": 1
			}
		}
	}
}