{
	"ReverseInteger.sol": {
		"ReverseInteger": {
			"abi": [
				{
					"inputs": [
						{
							"internalType": "uint256",
							"name": "n",
							"type": "uint256"
						}
					],
					"name": "reverse",
					"outputs": [
						{
							"internalType": "uint256",
							"name": "",
							"type": "uint256"
						}
					],
					"stateMutability": "pure",
					"type": "function"
				}
			],
			"devdoc": {
				"kind": "dev",
				"methods": {},
				"version": 1
			},
			"evm": {
				"assembly": "    /* \"ReverseInteger.sol\":58:356  contract ReverseInteger {\r... */\n  mstore(0x40, 0x80)\n  callvalue\n  dup1\n  iszero\n  tag_1\n  jumpi\n  0x00\n  dup1\n  revert\ntag_1:\n  pop\n  dataSize(sub_0)\n  dup1\n  dataOffset(sub_0)\n  0x00\n  codecopy\n  0x00\n  return\nstop\n\nsub_0: assembly {\n        /* \"ReverseInteger.sol\":58:356  contract ReverseInteger {\r... */\n      mstore(0x40, 0x80)\n      callvalue\n      dup1\n      iszero\n      tag_1\n      jumpi\n      0x00\n      dup1\n      revert\n    tag_1:\n      pop\n      jumpi(tag_2, lt(calldatasize, 0x04))\n      shr(0xe0, calldataload(0x00))\n      dup1\n      0x97d15425\n      eq\n      tag_3\n      jumpi\n    tag_2:\n      0x00\n      dup1\n      revert\n        /* \"ReverseInteger.sol\":85:353  function reverse(uint256 n) public pure returns (uint256) {\r... */\n    tag_3:\n      tag_4\n      0x04\n      dup1\n      calldatasize\n      sub\n      dup2\n      add\n      swap1\n      tag_5\n      swap2\n      swap1\n      tag_6\n      jump\t// in\n    tag_5:\n      tag_7\n      jump\t// in\n    tag_4:\n      mload(0x40)\n      tag_8\n      swap2\n      swap1\n      tag_9\n      jump\t// in\n    tag_8:\n      mload(0x40)\n      dup1\n      swap2\n      sub\n      swap1\n      return\n    tag_7:\n        /* \"ReverseInteger.sol\":134:141  uint256 */\n      0x00\n        /* \"ReverseInteger.sol\":157:158  0 */\n      dup1\n        /* \"ReverseInteger.sol\":154:155  n */\n      dup3\n        /* \"ReverseInteger.sol\":154:158  n>=0 */\n      lt\n      iszero\n        /* \"ReverseInteger.sol\":146:194  require(n>=0,\"Input must be a positive integer\") */\n      tag_11\n      jumpi\n      mload(0x40)\n      0x08c379a000000000000000000000000000000000000000000000000000000000\n      dup2\n      mstore\n      0x04\n      add\n      tag_12\n      swap1\n      tag_13\n      jump\t// in\n    tag_12:\n      mload(0x40)\n      dup1\n      swap2\n      sub\n      swap1\n      revert\n    tag_11:\n        /* \"ReverseInteger.sol\":197:213  uint256 reversed */\n      0x00\n        /* \"ReverseInteger.sol\":220:237  uint256 remainder */\n      dup1\n        /* \"ReverseInteger.sol\":240:332  while (n != 0) {\r... */\n    tag_14:\n        /* \"ReverseInteger.sol\":252:253  0 */\n      0x00\n        /* \"ReverseInteger.sol\":247:248  n */\n      dup5\n        /* \"ReverseInteger.sol\":247:253  n != 0 */\n      eq\n        /* \"ReverseInteger.sol\":240:332  while (n != 0) {\r... */\n      tag_15\n      jumpi\n        /* \"ReverseInteger.sol\":274:276  10 */\n      0x0a\n        /* \"ReverseInteger.sol\":270:271  n */\n      dup5\n        /* \"ReverseInteger.sol\":270:276  n % 10 */\n      tag_16\n      swap2\n      swap1\n      tag_17\n      jump\t// in\n    tag_16:\n        /* \"ReverseInteger.sol\":258:276  remainder = n % 10 */\n      swap1\n      pop\n        /* \"ReverseInteger.sol\":306:315  remainder */\n      dup1\n        /* \"ReverseInteger.sol\":301:303  10 */\n      0x0a\n        /* \"ReverseInteger.sol\":290:298  reversed */\n      dup4\n        /* \"ReverseInteger.sol\":290:303  reversed * 10 */\n      tag_18\n      swap2\n      swap1\n      tag_19\n      jump\t// in\n    tag_18:\n        /* \"ReverseInteger.sol\":290:315  reversed * 10 + remainder */\n      tag_20\n      swap2\n      swap1\n      tag_21\n      jump\t// in\n    tag_20:\n        /* \"ReverseInteger.sol\":279:315  reversed = reversed * 10 + remainder */\n      swap2\n      pop\n        /* \"ReverseInteger.sol\":326:328  10 */\n      0x0a\n        /* \"ReverseInteger.sol\":322:323  n */\n      dup5\n        /* \"ReverseInteger.sol\":322:328  n / 10 */\n      tag_22\n      swap2\n      swap1\n      tag_23\n      jump\t// in\n    tag_22:\n        /* \"ReverseInteger.sol\":318:328  n = n / 10 */\n      swap4\n      pop\n        /* \"ReverseInteger.sol\":240:332  while (n != 0) {\r... */\n      jump(tag_14)\n    tag_15:\n        /* \"ReverseInteger.sol\":341:349  reversed */\n      dup2\n        /* \"ReverseInteger.sol\":334:349  return reversed */\n      swap3\n      pop\n      pop\n      pop\n        /* \"ReverseInteger.sol\":85:353  function reverse(uint256 n) public pure returns (uint256) {\r... */\n      swap2\n      swap1\n      pop\n      jump\t// out\n        /* \"#utility.yul\":7:146   */\n    tag_25:\n      0x00\n        /* \"#utility.yul\":91:97   */\n      dup2\n        /* \"#utility.yul\":78:98   */\n      calldataload\n        /* \"#utility.yul\":69:98   */\n      swap1\n      pop\n        /* \"#utility.yul\":107:140   */\n      tag_27\n        /* \"#utility.yul\":134:139   */\n      dup2\n        /* \"#utility.yul\":107:140   */\n      tag_28\n      jump\t// in\n    tag_27:\n        /* \"#utility.yul\":59:146   */\n      swap3\n      swap2\n      pop\n      pop\n      jump\t// out\n        /* \"#utility.yul\":152:414   */\n    tag_6:\n      0x00\n        /* \"#utility.yul\":260:262   */\n      0x20\n        /* \"#utility.yul\":248:257   */\n      dup3\n        /* \"#utility.yul\":239:246   */\n      dup5\n        /* \"#utility.yul\":235:258   */\n      sub\n        /* \"#utility.yul\":231:263   */\n      slt\n        /* \"#utility.yul\":228:230   */\n      iszero\n      tag_30\n      jumpi\n        /* \"#utility.yul\":276:277   */\n      0x00\n        /* \"#utility.yul\":273:274   */\n      dup1\n        /* \"#utility.yul\":266:278   */\n      revert\n        /* \"#utility.yul\":228:230   */\n    tag_30:\n        /* \"#utility.yul\":319:320   */\n      0x00\n        /* \"#utility.yul\":344:397   */\n      tag_31\n        /* \"#utility.yul\":389:396   */\n      dup5\n        /* \"#utility.yul\":380:386   */\n      dup3\n        /* \"#utility.yul\":369:378   */\n      dup6\n        /* \"#utility.yul\":365:387   */\n      add\n        /* \"#utility.yul\":344:397   */\n      tag_25\n      jump\t// in\n    tag_31:\n        /* \"#utility.yul\":334:397   */\n      swap2\n      pop\n        /* \"#utility.yul\":290:407   */\n      pop\n        /* \"#utility.yul\":218:414   */\n      swap3\n      swap2\n      pop\n      pop\n      jump\t// out\n        /* \"#utility.yul\":420:750   */\n    tag_32:\n      0x00\n        /* \"#utility.yul\":583:650   */\n      tag_34\n        /* \"#utility.yul\":647:649   */\n      0x20\n        /* \"#utility.yul\":642:645   */\n      dup4\n        /* \"#utility.yul\":583:650   */\n      tag_35\n      jump\t// in\n    tag_34:\n        /* \"#utility.yul\":576:650   */\n      swap2\n      pop\n        /* \"#utility.yul\":680:714   */\n      0x496e707574206d757374206265206120706f73697469766520696e7465676572\n        /* \"#utility.yul\":676:677   */\n      0x00\n        /* \"#utility.yul\":671:674   */\n      dup4\n        /* \"#utility.yul\":667:678   */\n      add\n        /* \"#utility.yul\":660:715   */\n      mstore\n        /* \"#utility.yul\":741:743   */\n      0x20\n        /* \"#utility.yul\":736:739   */\n      dup3\n        /* \"#utility.yul\":732:744   */\n      add\n        /* \"#utility.yul\":725:744   */\n      swap1\n      pop\n        /* \"#utility.yul\":566:750   */\n      swap2\n      swap1\n      pop\n      jump\t// out\n        /* \"#utility.yul\":756:874   */\n    tag_36:\n        /* \"#utility.yul\":843:867   */\n      tag_38\n        /* \"#utility.yul\":861:866   */\n      dup2\n        /* \"#utility.yul\":843:867   */\n      tag_39\n      jump\t// in\n    tag_38:\n        /* \"#utility.yul\":838:841   */\n      dup3\n        /* \"#utility.yul\":831:868   */\n      mstore\n        /* \"#utility.yul\":821:874   */\n      pop\n      pop\n      jump\t// out\n        /* \"#utility.yul\":880:1299   */\n    tag_13:\n      0x00\n        /* \"#utility.yul\":1084:1086   */\n      0x20\n        /* \"#utility.yul\":1073:1082   */\n      dup3\n        /* \"#utility.yul\":1069:1087   */\n      add\n        /* \"#utility.yul\":1061:1087   */\n      swap1\n      pop\n        /* \"#utility.yul\":1133:1142   */\n      dup2\n        /* \"#utility.yul\":1127:1131   */\n      dup2\n        /* \"#utility.yul\":1123:1143   */\n      sub\n        /* \"#utility.yul\":1119:1120   */\n      0x00\n        /* \"#utility.yul\":1108:1117   */\n      dup4\n        /* \"#utility.yul\":1104:1121   */\n      add\n        /* \"#utility.yul\":1097:1144   */\n      mstore\n        /* \"#utility.yul\":1161:1292   */\n      tag_41\n        /* \"#utility.yul\":1287:1291   */\n      dup2\n        /* \"#utility.yul\":1161:1292   */\n      tag_32\n      jump\t// in\n    tag_41:\n        /* \"#utility.yul\":1153:1292   */\n      swap1\n      pop\n        /* \"#utility.yul\":1051:1299   */\n      swap2\n      swap1\n      pop\n      jump\t// out\n        /* \"#utility.yul\":1305:1527   */\n    tag_9:\n      0x00\n        /* \"#utility.yul\":1436:1438   */\n      0x20\n        /* \"#utility.yul\":1425:1434   */\n      dup3\n        /* \"#utility.yul\":1421:1439   */\n      add\n        /* \"#utility.yul\":1413:1439   */\n      swap1\n      pop\n        /* \"#utility.yul\":1449:1520   */\n      tag_43\n        /* \"#utility.yul\":1517:1518   */\n      0x00\n        /* \"#utility.yul\":1506:1515   */\n      dup4\n        /* \"#utility.yul\":1502:1519   */\n      add\n        /* \"#utility.yul\":1493:1499   */\n      dup5\n        /* \"#utility.yul\":1449:1520   */\n      tag_36\n      jump\t// in\n    tag_43:\n        /* \"#utility.yul\":1403:1527   */\n      swap3\n      swap2\n      pop\n      pop\n      jump\t// out\n        /* \"#utility.yul\":1533:1702   */\n    tag_35:\n      0x00\n        /* \"#utility.yul\":1651:1657   */\n      dup3\n        /* \"#utility.yul\":1646:1649   */\n      dup3\n        /* \"#utility.yul\":1639:1658   */\n      mstore\n        /* \"#utility.yul\":1691:1695   */\n      0x20\n        /* \"#utility.yul\":1686:1689   */\n      dup3\n        /* \"#utility.yul\":1682:1696   */\n      add\n        /* \"#utility.yul\":1667:1696   */\n      swap1\n      pop\n        /* \"#utility.yul\":1629:1702   */\n      swap3\n      swap2\n      pop\n      pop\n      jump\t// out\n        /* \"#utility.yul\":1708:2013   */\n    tag_21:\n      0x00\n        /* \"#utility.yul\":1767:1787   */\n      tag_46\n        /* \"#utility.yul\":1785:1786   */\n      dup3\n        /* \"#utility.yul\":1767:1787   */\n      tag_39\n      jump\t// in\n    tag_46:\n        /* \"#utility.yul\":1762:1787   */\n      swap2\n      pop\n        /* \"#utility.yul\":1801:1821   */\n      tag_47\n        /* \"#utility.yul\":1819:1820   */\n      dup4\n        /* \"#utility.yul\":1801:1821   */\n      tag_39\n      jump\t// in\n    tag_47:\n        /* \"#utility.yul\":1796:1821   */\n      swap3\n      pop\n        /* \"#utility.yul\":1955:1956   */\n      dup3\n        /* \"#utility.yul\":1887:1953   */\n      0xffffffffffffffffffffffffffffffffffffffffffffffffffffffffffffffff\n        /* \"#utility.yul\":1883:1957   */\n      sub\n        /* \"#utility.yul\":1880:1881   */\n      dup3\n        /* \"#utility.yul\":1877:1958   */\n      gt\n        /* \"#utility.yul\":1874:1876   */\n      iszero\n      tag_48\n      jumpi\n        /* \"#utility.yul\":1961:1979   */\n      tag_49\n      tag_50\n      jump\t// in\n    tag_49:\n        /* \"#utility.yul\":1874:1876   */\n    tag_48:\n        /* \"#utility.yul\":2005:2006   */\n      dup3\n        /* \"#utility.yul\":2002:2003   */\n      dup3\n        /* \"#utility.yul\":1998:2007   */\n      add\n        /* \"#utility.yul\":1991:2007   */\n      swap1\n      pop\n        /* \"#utility.yul\":1752:2013   */\n      swap3\n      swap2\n      pop\n      pop\n      jump\t// out\n        /* \"#utility.yul\":2019:2204   */\n    tag_23:\n      0x00\n        /* \"#utility.yul\":2076:2096   */\n      tag_52\n        /* \"#utility.yul\":2094:2095   */\n      dup3\n        /* \"#utility.yul\":2076:2096   */\n      tag_39\n      jump\t// in\n    tag_52:\n        /* \"#utility.yul\":2071:2096   */\n      swap2\n      pop\n        /* \"#utility.yul\":2110:2130   */\n      tag_53\n        /* \"#utility.yul\":2128:2129   */\n      dup4\n        /* \"#utility.yul\":2110:2130   */\n      tag_39\n      jump\t// in\n    tag_53:\n        /* \"#utility.yul\":2105:2130   */\n      swap3\n      pop\n        /* \"#utility.yul\":2149:2150   */\n      dup3\n        /* \"#utility.yul\":2139:2141   */\n      tag_54\n      jumpi\n        /* \"#utility.yul\":2154:2172   */\n      tag_55\n      tag_56\n      jump\t// in\n    tag_55:\n        /* \"#utility.yul\":2139:2141   */\n    tag_54:\n        /* \"#utility.yul\":2196:2197   */\n      dup3\n        /* \"#utility.yul\":2193:2194   */\n      dup3\n        /* \"#utility.yul\":2189:2198   */\n      div\n        /* \"#utility.yul\":2184:2198   */\n      swap1\n      pop\n        /* \"#utility.yul\":2061:2204   */\n      swap3\n      swap2\n      pop\n      pop\n      jump\t// out\n        /* \"#utility.yul\":2210:2558   */\n    tag_19:\n      0x00\n        /* \"#utility.yul\":2273:2293   */\n      tag_58\n        /* \"#utility.yul\":2291:2292   */\n      dup3\n        /* \"#utility.yul\":2273:2293   */\n      tag_39\n      jump\t// in\n    tag_58:\n        /* \"#utility.yul\":2268:2293   */\n      swap2\n      pop\n        /* \"#utility.yul\":2307:2327   */\n      tag_59\n        /* \"#utility.yul\":2325:2326   */\n      dup4\n        /* \"#utility.yul\":2307:2327   */\n      tag_39\n      jump\t// in\n    tag_59:\n        /* \"#utility.yul\":2302:2327   */\n      swap3\n      pop\n        /* \"#utility.yul\":2495:2496   */\n      dup2\n        /* \"#utility.yul\":2427:2493   */\n      0xffffffffffffffffffffffffffffffffffffffffffffffffffffffffffffffff\n        /* \"#utility.yul\":2423:2497   */\n      div\n        /* \"#utility.yul\":2420:2421   */\n      dup4\n        /* \"#utility.yul\":2417:2498   */\n      gt\n        /* \"#utility.yul\":2412:2413   */\n      dup3\n        /* \"#utility.yul\":2405:2414   */\n      iszero\n        /* \"#utility.yul\":2398:2415   */\n      iszero\n        /* \"#utility.yul\":2394:2499   */\n      and\n        /* \"#utility.yul\":2391:2393   */\n      iszero\n      tag_60\n      jumpi\n        /* \"#utility.yul\":2502:2520   */\n      tag_61\n      tag_50\n      jump\t// in\n    tag_61:\n        /* \"#utility.yul\":2391:2393   */\n    tag_60:\n        /* \"#utility.yul\":2550:2551   */\n      dup3\n        /* \"#utility.yul\":2547:2548   */\n      dup3\n        /* \"#utility.yul\":2543:2552   */\n      mul\n        /* \"#utility.yul\":2532:2552   */\n      swap1\n      pop\n        /* \"#utility.yul\":2258:2558   */\n      swap3\n      swap2\n      pop\n      pop\n      jump\t// out\n        /* \"#utility.yul\":2564:2641   */\n    tag_39:\n      0x00\n        /* \"#utility.yul\":2630:2635   */\n      dup2\n        /* \"#utility.yul\":2619:2635   */\n      swap1\n      pop\n        /* \"#utility.yul\":2609:2641   */\n      swap2\n      swap1\n      pop\n      jump\t// out\n        /* \"#utility.yul\":2647:2823   */\n    tag_17:\n      0x00\n        /* \"#utility.yul\":2696:2716   */\n      tag_64\n        /* \"#utility.yul\":2714:2715   */\n      dup3\n        /* \"#utility.yul\":2696:2716   */\n      tag_39\n      jump\t// in\n    tag_64:\n        /* \"#utility.yul\":2691:2716   */\n      swap2\n      pop\n        /* \"#utility.yul\":2730:2750   */\n      tag_65\n        /* \"#utility.yul\":2748:2749   */\n      dup4\n        /* \"#utility.yul\":2730:2750   */\n      tag_39\n      jump\t// in\n    tag_65:\n        /* \"#utility.yul\":2725:2750   */\n      swap3\n      pop\n        /* \"#utility.yul\":2769:2770   */\n      dup3\n        /* \"#utility.yul\":2759:2761   */\n      tag_66\n      jumpi\n        /* \"#utility.yul\":2774:2792   */\n      tag_67\n      tag_56\n      jump\t// in\n    tag_67:\n        /* \"#utility.yul\":2759:2761   */\n    tag_66:\n        /* \"#utility.yul\":2815:2816   */\n      dup3\n        /* \"#utility.yul\":2812:2813   */\n      dup3\n        /* \"#utility.yul\":2808:2817   */\n      mod\n        /* \"#utility.yul\":2803:2817   */\n      swap1\n      pop\n        /* \"#utility.yul\":2681:2823   */\n      swap3\n      swap2\n      pop\n      pop\n      jump\t// out\n        /* \"#utility.yul\":2829:3009   */\n    tag_50:\n        /* \"#utility.yul\":2877:2954   */\n      0x4e487b7100000000000000000000000000000000000000000000000000000000\n        /* \"#utility.yul\":2874:2875   */\n      0x00\n        /* \"#utility.yul\":2867:2955   */\n      mstore\n        /* \"#utility.yul\":2974:2978   */\n      0x11\n        /* \"#utility.yul\":2971:2972   */\n      0x04\n        /* \"#utility.yul\":2964:2979   */\n      mstore\n        /* \"#utility.yul\":2998:3002   */\n      0x24\n        /* \"#utility.yul\":2995:2996   */\n      0x00\n        /* \"#utility.yul\":2988:3003   */\n      revert\n        /* \"#utility.yul\":3015:3195   */\n    tag_56:\n        /* \"#utility.yul\":3063:3140   */\n      0x4e487b7100000000000000000000000000000000000000000000000000000000\n        /* \"#utility.yul\":3060:3061   */\n      0x00\n        /* \"#utility.yul\":3053:3141   */\n      mstore\n        /* \"#utility.yul\":3160:3164   */\n      0x12\n        /* \"#utility.yul\":3157:3158   */\n      0x04\n        /* \"#utility.yul\":3150:3165   */\n      mstore\n        /* \"#utility.yul\":3184:3188   */\n      0x24\n        /* \"#utility.yul\":3181:3182   */\n      0x00\n        /* \"#utility.yul\":3174:3189   */\n      revert\n        /* \"#utility.yul\":3201:3323   */\n    tag_28:\n        /* \"#utility.yul\":3274:3298   */\n      tag_71\n        /* \"#utility.yul\":3292:3297   */\n      dup2\n        /* \"#utility.yul\":3274:3298   */\n      tag_39\n      jump\t// in\n    tag_71:\n        /* \"#utility.yul\":3267:3272   */\n      dup2\n        /* \"#utility.yul\":3264:3299   */\n      eq\n        /* \"#utility.yul\":3254:3256   */\n      tag_72\n      jumpi\n        /* \"#utility.yul\":3313:3314   */\n      0x00\n        /* \"#utility.yul\":3310:3311   */\n      dup1\n        /* \"#utility.yul\":3303:3315   */\n      revert\n        /* \"#utility.yul\":3254:3256   */\n    tag_72:\n        /* \"#utility.yul\":3244:3323   */\n      pop\n      jump\t// out\n\n    auxdata: 0xa2646970667358221220a92fb2c37f8dcc4f366fa6be31ec62f443d918a91f09409ce245b10ae72a3e7c64736f6c63430008000033\n}\n",
				"bytecode": {
					"linkReferences": {},
					"object": "608060405234801561001057600080fd5b50610398806100206000396000f3fe608060405234801561001057600080fd5b506004361061002b5760003560e01c806397d1542514610030575b600080fd5b61004a6004803603810190610045919061010d565b610060565b60405161005791906101a5565b60405180910390f35b6000808210156100a5576040517f08c379a000000000000000000000000000000000000000000000000000000000815260040161009c90610185565b60405180910390fd5b6000805b600084146100ee57600a846100be91906102bc565b905080600a836100ce9190610258565b6100d891906101d1565b9150600a846100e79190610227565b93506100a9565b8192505050919050565b6000813590506101078161034b565b92915050565b60006020828403121561011f57600080fd5b600061012d848285016100f8565b91505092915050565b60006101436020836101c0565b91507f496e707574206d757374206265206120706f73697469766520696e74656765726000830152602082019050919050565b61017f816102b2565b82525050565b6000602082019050818103600083015261019e81610136565b9050919050565b60006020820190506101ba6000830184610176565b92915050565b600082825260208201905092915050565b60006101dc826102b2565b91506101e7836102b2565b9250827fffffffffffffffffffffffffffffffffffffffffffffffffffffffffffffffff0382111561021c5761021b6102ed565b5b828201905092915050565b6000610232826102b2565b915061023d836102b2565b92508261024d5761024c61031c565b5b828204905092915050565b6000610263826102b2565b915061026e836102b2565b9250817fffffffffffffffffffffffffffffffffffffffffffffffffffffffffffffffff04831182151516156102a7576102a66102ed565b5b828202905092915050565b6000819050919050565b60006102c7826102b2565b91506102d2836102b2565b9250826102e2576102e161031c565b5b828206905092915050565b7f4e487b7100000000000000000000000000000000000000000000000000000000600052601160045260246000fd5b7f4e487b7100000000000000000000000000000000000000000000000000000000600052601260045260246000fd5b610354816102b2565b811461035f57600080fd5b5056fea2646970667358221220a92fb2c37f8dcc4f366fa6be31ec62f443d918a91f09409ce245b10ae72a3e7c64736f6c63430008000033",
					"opcodes": "PUSH1 0x80 PUSH1 0x40 MSTORE CALLVALUE DUP1 ISZERO PUSH2 0x10 JUMPI PUSH1 0x0 DUP1 REVERT JUMPDEST POP PUSH2 0x398 DUP1 PUSH2 0x20 PUSH1 0x0 CODECOPY PUSH1 0x0 RETURN INVALID PUSH1 0x80 PUSH1 0x40 MSTORE CALLVALUE DUP1 ISZERO PUSH2 0x10 JUMPI PUSH1 0x0 DUP1 REVERT JUMPDEST POP PUSH1 0x4 CALLDATASIZE LT PUSH2 0x2B JUMPI PUSH1 0x0 CALLDATALOAD PUSH1 0xE0 SHR DUP1 PUSH4 0x97D15425 EQ PUSH2 0x30 JUMPI JUMPDEST PUSH1 0x0 DUP1 REVERT JUMPDEST PUSH2 0x4A PUSH1 0x4 DUP1 CALLDATASIZE SUB DUP2 ADD SWAP1 PUSH2 0x45 SWAP2 SWAP1 PUSH2 0x10D JUMP JUMPDEST PUSH2 0x60 JUMP JUMPDEST PUSH1 0x40 MLOAD PUSH2 0x57 SWAP2 SWAP1 PUSH2 0x1A5 JUMP JUMPDEST PUSH1 0x40 MLOAD DUP1 SWAP2 SUB SWAP1 RETURN JUMPDEST PUSH1 0x0 DUP1 DUP3 LT ISZERO PUSH2 0xA5 JUMPI PUSH1 0x40 MLOAD PUSH32 0x8C379A000000000000000000000000000000000000000000000000000000000 DUP2 MSTORE PUSH1 0x4 ADD PUSH2 0x9C SWAP1 PUSH2 0x185 JUMP JUMPDEST PUSH1 0x40 MLOAD DUP1 SWAP2 SUB SWAP1 REVERT JUMPDEST PUSH1 0x0 DUP1 JUMPDEST PUSH1 0x0 DUP5 EQ PUSH2 0xEE JUMPI PUSH1 0xA DUP5 PUSH2 0xBE SWAP2 SWAP1 PUSH2 0x2BC JUMP JUMPDEST SWAP1 POP DUP1 PUSH1 0xA DUP4 PUSH2 0xCE SWAP2 SWAP1 PUSH2 0x258 JUMP JUMPDEST PUSH2 0xD8 SWAP2 SWAP1 PUSH2 0x1D1 JUMP JUMPDEST SWAP2 POP PUSH1 0xA DUP5 PUSH2 0xE7 SWAP2 SWAP1 PUSH2 0x227 JUMP JUMPDEST SWAP4 POP PUSH2 0xA9 JUMP JUMPDEST DUP2 SWAP3 POP POP POP SWAP2 SWAP1 POP JUMP JUMPDEST PUSH1 0x0 DUP2 CALLDATALOAD SWAP1 POP PUSH2 0x107 DUP2 PUSH2 0x34B JUMP JUMPDEST SWAP3 SWAP2 POP POP JUMP JUMPDEST PUSH1 0x0 PUSH1 0x20 DUP3 DUP5 SUB SLT ISZERO PUSH2 0x11F JUMPI PUSH1 0x0 DUP1 REVERT JUMPDEST PUSH1 0x0 PUSH2 0x12D DUP5 DUP3 DUP6 ADD PUSH2 0xF8 JUMP JUMPDEST SWAP2 POP POP SWAP3 SWAP2 POP POP JUMP JUMPDEST PUSH1 0x0 PUSH2 0x143 PUSH1 0x20 DUP4 PUSH2 0x1C0 JUMP JUMPDEST SWAP2 POP PUSH32 0x496E707574206D757374206265206120706F73697469766520696E7465676572 PUSH1 0x0 DUP4 ADD MSTORE PUSH1 0x20 DUP3 ADD SWAP1 POP SWAP2 SWAP1 POP JUMP JUMPDEST PUSH2 0x17F DUP2 PUSH2 0x2B2 JUMP JUMPDEST DUP3 MSTORE POP POP JUMP JUMPDEST PUSH1 0x0 PUSH1 0x20 DUP3 ADD SWAP1 POP DUP2 DUP2 SUB PUSH1 0x0 DUP4 ADD MSTORE PUSH2 0x19E DUP2 PUSH2 0x136 JUMP JUMPDEST SWAP1 POP SWAP2 SWAP1 POP JUMP JUMPDEST PUSH1 0x0 PUSH1 0x20 DUP3 ADD SWAP1 POP PUSH2 0x1BA PUSH1 0x0 DUP4 ADD DUP5 PUSH2 0x176 JUMP JUMPDEST SWAP3 SWAP2 POP POP JUMP JUMPDEST PUSH1 0x0 DUP3 DUP3 MSTORE PUSH1 0x20 DUP3 ADD SWAP1 POP SWAP3 SWAP2 POP POP JUMP JUMPDEST PUSH1 0x0 PUSH2 0x1DC DUP3 PUSH2 0x2B2 JUMP JUMPDEST SWAP2 POP PUSH2 0x1E7 DUP4 PUSH2 0x2B2 JUMP JUMPDEST SWAP3 POP DUP3 PUSH32 0xFFFFFFFFFFFFFFFFFFFFFFFFFFFFFFFFFFFFFFFFFFFFFFFFFFFFFFFFFFFFFFFF SUB DUP3 GT ISZERO PUSH2 0x21C JUMPI PUSH2 0x21B PUSH2 0x2ED JUMP JUMPDEST JUMPDEST DUP3 DUP3 ADD SWAP1 POP SWAP3 SWAP2 POP POP JUMP JUMPDEST PUSH1 0x0 PUSH2 0x232 DUP3 PUSH2 0x2B2 JUMP JUMPDEST SWAP2 POP PUSH2 0x23D DUP4 PUSH2 0x2B2 JUMP JUMPDEST SWAP3 POP DUP3 PUSH2 0x24D JUMPI PUSH2 0x24C PUSH2 0x31C JUMP JUMPDEST JUMPDEST DUP3 DUP3 DIV SWAP1 POP SWAP3 SWAP2 POP POP JUMP JUMPDEST PUSH1 0x0 PUSH2 0x263 DUP3 PUSH2 0x2B2 JUMP JUMPDEST SWAP2 POP PUSH2 0x26E DUP4 PUSH2 0x2B2 JUMP JUMPDEST SWAP3 POP DUP2 PUSH32 0xFFFFFFFFFFFFFFFFFFFFFFFFFFFFFFFFFFFFFFFFFFFFFFFFFFFFFFFFFFFFFFFF DIV DUP4 GT DUP3 ISZERO ISZERO AND ISZERO PUSH2 0x2A7 JUMPI PUSH2 0x2A6 PUSH2 0x2ED JUMP JUMPDEST JUMPDEST DUP3 DUP3 MUL SWAP1 POP SWAP3 SWAP2 POP POP JUMP JUMPDEST PUSH1 0x0 DUP2 SWAP1 POP SWAP2 SWAP1 POP JUMP JUMPDEST PUSH1 0x0 PUSH2 0x2C7 DUP3 PUSH2 0x2B2 JUMP JUMPDEST SWAP2 POP PUSH2 0x2D2 DUP4 PUSH2 0x2B2 JUMP JUMPDEST SWAP3 POP DUP3 PUSH2 0x2E2 JUMPI PUSH2 0x2E1 PUSH2 0x31C JUMP JUMPDEST JUMPDEST DUP3 DUP3 MOD SWAP1 POP SWAP3 SWAP2 POP POP JUMP JUMPDEST PUSH32 0x4E487B7100000000000000000000000000000000000000000000000000000000 PUSH1 0x0 MSTORE PUSH1 0x11 PUSH1 0x4 MSTORE PUSH1 0x24 PUSH1 0x0 REVERT JUMPDEST PUSH32 0x4E487B7100000000000000000000000000000000000000000000000000000000 PUSH1 0x0 MSTORE PUSH1 0x12 PUSH1 0x4 MSTORE PUSH1 0x24 PUSH1 0x0 REVERT JUMPDEST PUSH2 0x354 DUP2 PUSH2 0x2B2 JUMP JUMPDEST DUP2 EQ PUSH2 0x35F JUMPI PUSH1 0x0 DUP1 REVERT JUMPDEST POP JUMP INVALID LOG2 PUSH5 0x6970667358 0x22 SLT KECCAK256 0xA9 0x2F 0xB2 0xC3 PUSH32 0x8DCC4F366FA6BE31EC62F443D918A91F09409CE245B10AE72A3E7C64736F6C63 NUMBER STOP ADDMOD STOP STOP CALLER "
				},
				"gasEstimates": {
					"creation": {
						"codeDepositCost": "184000",
						"executionCost": "226",
						"totalCost": "184226"
					},
					"external": {
						"reverse(uint256)": "infinite"
					}
				},
				"methodIdentifiers": {
					"reverse(uint256)": "97d15425"
				}
			},
			"storageLayout": {
				"storage": [],
				"types": null
			},
			"userdoc": {
				"kind": "user",
				"methods": {},
				"version": 1
			}
		}
	}
}