{
	"PrimeNumberSum.sol": {
		"PrimeNumberSum": {
			"abi": [
				{
					"inputs": [],
					"name": "sumPrimes",
					"outputs": [
						{
							"internalType": "uint256",
							"name": "",
							"type": "uint256"
						}
					],
					"stateMutability": "pure",
					"type": "function"
				}
			],
			"devdoc": {
				"kind": "dev",
				"methods": {},
				"version": 1
			},
			"evm": {
				"assembly": "    /* \"PrimeNumberSum.sol\":58:460  contract PrimeNumberSum {\r... */\n  mstore(0x40, 0x80)\n  callvalue\n  dup1\n  iszero\n  tag_1\n  jumpi\n  0x00\n  dup1\n  revert\ntag_1:\n  pop\n  dataSize(sub_0)\n  dup1\n  dataOffset(sub_0)\n  0x00\n  codecopy\n  0x00\n  return\nstop\n\nsub_0: assembly {\n        /* \"PrimeNumberSum.sol\":58:460  contract PrimeNumberSum {\r... */\n      mstore(0x40, 0x80)\n      callvalue\n      dup1\n      iszero\n      tag_1\n      jumpi\n      0x00\n      dup1\n      revert\n    tag_1:\n      pop\n      jumpi(tag_2, lt(calldatasize, 0x04))\n      shr(0xe0, calldataload(0x00))\n      dup1\n      0x351dcf81\n      eq\n      tag_3\n      jumpi\n    tag_2:\n      0x00\n      dup1\n      revert\n        /* \"PrimeNumberSum.sol\":295:457  function sumPrimes() public pure returns (uint256) {\r... */\n    tag_3:\n      tag_4\n      tag_5\n      jump\t// in\n    tag_4:\n      mload(0x40)\n      tag_6\n      swap2\n      swap1\n      tag_7\n      jump\t// in\n    tag_6:\n      mload(0x40)\n      dup1\n      swap2\n      sub\n      swap1\n      return\n    tag_5:\n        /* \"PrimeNumberSum.sol\":337:344  uint256 */\n      0x00\n        /* \"PrimeNumberSum.sol\":349:360  uint256 sum */\n      dup1\n        /* \"PrimeNumberSum.sol\":363:364  0 */\n      0x00\n        /* \"PrimeNumberSum.sol\":349:364  uint256 sum = 0 */\n      swap1\n      pop\n        /* \"PrimeNumberSum.sol\":372:381  uint256 i */\n      0x00\n        /* \"PrimeNumberSum.sol\":384:385  2 */\n      0x02\n        /* \"PrimeNumberSum.sol\":372:385  uint256 i = 2 */\n      swap1\n      pop\n        /* \"PrimeNumberSum.sol\":367:441  for (uint256 i = 2; i <= 300; i++) {\r... */\n    tag_9:\n        /* \"PrimeNumberSum.sol\":392:395  300 */\n      0x012c\n        /* \"PrimeNumberSum.sol\":387:388  i */\n      dup2\n        /* \"PrimeNumberSum.sol\":387:395  i <= 300 */\n      gt\n        /* \"PrimeNumberSum.sol\":367:441  for (uint256 i = 2; i <= 300; i++) {\r... */\n      tag_10\n      jumpi\n        /* \"PrimeNumberSum.sol\":409:419  isPrime(i) */\n      tag_12\n        /* \"PrimeNumberSum.sol\":417:418  i */\n      dup2\n        /* \"PrimeNumberSum.sol\":409:416  isPrime */\n      tag_13\n        /* \"PrimeNumberSum.sol\":409:419  isPrime(i) */\n      jump\t// in\n    tag_12:\n        /* \"PrimeNumberSum.sol\":405:438  if (isPrime(i)) {\r... */\n      iszero\n      tag_14\n      jumpi\n        /* \"PrimeNumberSum.sol\":431:432  i */\n      dup1\n        /* \"PrimeNumberSum.sol\":424:432  sum += i */\n      dup3\n      tag_15\n      swap2\n      swap1\n      tag_16\n      jump\t// in\n    tag_15:\n      swap2\n      pop\n        /* \"PrimeNumberSum.sol\":405:438  if (isPrime(i)) {\r... */\n    tag_14:\n        /* \"PrimeNumberSum.sol\":397:400  i++ */\n      dup1\n      dup1\n      tag_17\n      swap1\n      tag_18\n      jump\t// in\n    tag_17:\n      swap2\n      pop\n      pop\n        /* \"PrimeNumberSum.sol\":367:441  for (uint256 i = 2; i <= 300; i++) {\r... */\n      jump(tag_9)\n    tag_10:\n      pop\n        /* \"PrimeNumberSum.sol\":450:453  sum */\n      dup1\n        /* \"PrimeNumberSum.sol\":443:453  return sum */\n      swap2\n      pop\n      pop\n        /* \"PrimeNumberSum.sol\":295:457  function sumPrimes() public pure returns (uint256) {\r... */\n      swap1\n      jump\t// out\n        /* \"PrimeNumberSum.sol\":85:293  function isPrime(uint256 number) internal pure returns (bool) {\r... */\n    tag_13:\n        /* \"PrimeNumberSum.sol\":141:145  bool */\n      0x00\n        /* \"PrimeNumberSum.sol\":164:165  1 */\n      0x01\n        /* \"PrimeNumberSum.sol\":154:160  number */\n      dup3\n        /* \"PrimeNumberSum.sol\":154:165  number <= 1 */\n      gt\n        /* \"PrimeNumberSum.sol\":150:186  if (number <= 1) {\r... */\n      tag_20\n      jumpi\n        /* \"PrimeNumberSum.sol\":177:182  false */\n      0x00\n        /* \"PrimeNumberSum.sol\":170:182  return false */\n      swap1\n      pop\n      jump(tag_19)\n        /* \"PrimeNumberSum.sol\":150:186  if (number <= 1) {\r... */\n    tag_20:\n        /* \"PrimeNumberSum.sol\":193:202  uint256 i */\n      0x00\n        /* \"PrimeNumberSum.sol\":205:206  2 */\n      0x02\n        /* \"PrimeNumberSum.sol\":193:206  uint256 i = 2 */\n      swap1\n      pop\n        /* \"PrimeNumberSum.sol\":188:276  for (uint256 i = 2; i <= number / 2; i++) {\r... */\n    tag_21:\n        /* \"PrimeNumberSum.sol\":222:223  2 */\n      0x02\n        /* \"PrimeNumberSum.sol\":213:219  number */\n      dup4\n        /* \"PrimeNumberSum.sol\":213:223  number / 2 */\n      tag_24\n      swap2\n      swap1\n      tag_25\n      jump\t// in\n    tag_24:\n        /* \"PrimeNumberSum.sol\":208:209  i */\n      dup2\n        /* \"PrimeNumberSum.sol\":208:223  i <= number / 2 */\n      gt\n        /* \"PrimeNumberSum.sol\":188:276  for (uint256 i = 2; i <= number / 2; i++) {\r... */\n      tag_22\n      jumpi\n        /* \"PrimeNumberSum.sol\":251:252  0 */\n      0x00\n        /* \"PrimeNumberSum.sol\":246:247  i */\n      dup2\n        /* \"PrimeNumberSum.sol\":237:243  number */\n      dup5\n        /* \"PrimeNumberSum.sol\":237:247  number % i */\n      tag_26\n      swap2\n      swap1\n      tag_27\n      jump\t// in\n    tag_26:\n        /* \"PrimeNumberSum.sol\":237:252  number % i == 0 */\n      eq\n        /* \"PrimeNumberSum.sol\":233:273  if (number % i == 0) {\r... */\n      iszero\n      tag_28\n      jumpi\n        /* \"PrimeNumberSum.sol\":264:269  false */\n      0x00\n        /* \"PrimeNumberSum.sol\":257:269  return false */\n      swap2\n      pop\n      pop\n      jump(tag_19)\n        /* \"PrimeNumberSum.sol\":233:273  if (number % i == 0) {\r... */\n    tag_28:\n        /* \"PrimeNumberSum.sol\":225:228  i++ */\n      dup1\n      dup1\n      tag_29\n      swap1\n      tag_18\n      jump\t// in\n    tag_29:\n      swap2\n      pop\n      pop\n        /* \"PrimeNumberSum.sol\":188:276  for (uint256 i = 2; i <= number / 2; i++) {\r... */\n      jump(tag_21)\n    tag_22:\n      pop\n        /* \"PrimeNumberSum.sol\":285:289  true */\n      0x01\n        /* \"PrimeNumberSum.sol\":278:289  return true */\n      swap1\n      pop\n        /* \"PrimeNumberSum.sol\":85:293  function isPrime(uint256 number) internal pure returns (bool) {\r... */\n    tag_19:\n      swap2\n      swap1\n      pop\n      jump\t// out\n        /* \"#utility.yul\":7:125   */\n    tag_31:\n        /* \"#utility.yul\":94:118   */\n      tag_33\n        /* \"#utility.yul\":112:117   */\n      dup2\n        /* \"#utility.yul\":94:118   */\n      tag_34\n      jump\t// in\n    tag_33:\n        /* \"#utility.yul\":89:92   */\n      dup3\n        /* \"#utility.yul\":82:119   */\n      mstore\n        /* \"#utility.yul\":72:125   */\n      pop\n      pop\n      jump\t// out\n        /* \"#utility.yul\":131:353   */\n    tag_7:\n      0x00\n        /* \"#utility.yul\":262:264   */\n      0x20\n        /* \"#utility.yul\":251:260   */\n      dup3\n        /* \"#utility.yul\":247:265   */\n      add\n        /* \"#utility.yul\":239:265   */\n      swap1\n      pop\n        /* \"#utility.yul\":275:346   */\n      tag_36\n        /* \"#utility.yul\":343:344   */\n      0x00\n        /* \"#utility.yul\":332:341   */\n      dup4\n        /* \"#utility.yul\":328:345   */\n      add\n        /* \"#utility.yul\":319:325   */\n      dup5\n        /* \"#utility.yul\":275:346   */\n      tag_31\n      jump\t// in\n    tag_36:\n        /* \"#utility.yul\":229:353   */\n      swap3\n      swap2\n      pop\n      pop\n      jump\t// out\n        /* \"#utility.yul\":359:664   */\n    tag_16:\n      0x00\n        /* \"#utility.yul\":418:438   */\n      tag_38\n        /* \"#utility.yul\":436:437   */\n      dup3\n        /* \"#utility.yul\":418:438   */\n      tag_34\n      jump\t// in\n    tag_38:\n        /* \"#utility.yul\":413:438   */\n      swap2\n      pop\n        /* \"#utility.yul\":452:472   */\n      tag_39\n        /* \"#utility.yul\":470:471   */\n      dup4\n        /* \"#utility.yul\":452:472   */\n      tag_34\n      jump\t// in\n    tag_39:\n        /* \"#utility.yul\":447:472   */\n      swap3\n      pop\n        /* \"#utility.yul\":606:607   */\n      dup3\n        /* \"#utility.yul\":538:604   */\n      0xffffffffffffffffffffffffffffffffffffffffffffffffffffffffffffffff\n        /* \"#utility.yul\":534:608   */\n      sub\n        /* \"#utility.yul\":531:532   */\n      dup3\n        /* \"#utility.yul\":528:609   */\n      gt\n        /* \"#utility.yul\":525:527   */\n      iszero\n      tag_40\n      jumpi\n        /* \"#utility.yul\":612:630   */\n      tag_41\n      tag_42\n      jump\t// in\n    tag_41:\n        /* \"#utility.yul\":525:527   */\n    tag_40:\n        /* \"#utility.yul\":656:657   */\n      dup3\n        /* \"#utility.yul\":653:654   */\n      dup3\n        /* \"#utility.yul\":649:658   */\n      add\n        /* \"#utility.yul\":642:658   */\n      swap1\n      pop\n        /* \"#utility.yul\":403:664   */\n      swap3\n      swap2\n      pop\n      pop\n      jump\t// out\n        /* \"#utility.yul\":670:855   */\n    tag_25:\n      0x00\n        /* \"#utility.yul\":727:747   */\n      tag_44\n        /* \"#utility.yul\":745:746   */\n      dup3\n        /* \"#utility.yul\":727:747   */\n      tag_34\n      jump\t// in\n    tag_44:\n        /* \"#utility.yul\":722:747   */\n      swap2\n      pop\n        /* \"#utility.yul\":761:781   */\n      tag_45\n        /* \"#utility.yul\":779:780   */\n      dup4\n        /* \"#utility.yul\":761:781   */\n      tag_34\n      jump\t// in\n    tag_45:\n        /* \"#utility.yul\":756:781   */\n      swap3\n      pop\n        /* \"#utility.yul\":800:801   */\n      dup3\n        /* \"#utility.yul\":790:792   */\n      tag_46\n      jumpi\n        /* \"#utility.yul\":805:823   */\n      tag_47\n      tag_48\n      jump\t// in\n    tag_47:\n        /* \"#utility.yul\":790:792   */\n    tag_46:\n        /* \"#utility.yul\":847:848   */\n      dup3\n        /* \"#utility.yul\":844:845   */\n      dup3\n        /* \"#utility.yul\":840:849   */\n      div\n        /* \"#utility.yul\":835:849   */\n      swap1\n      pop\n        /* \"#utility.yul\":712:855   */\n      swap3\n      swap2\n      pop\n      pop\n      jump\t// out\n        /* \"#utility.yul\":861:938   */\n    tag_34:\n      0x00\n        /* \"#utility.yul\":927:932   */\n      dup2\n        /* \"#utility.yul\":916:932   */\n      swap1\n      pop\n        /* \"#utility.yul\":906:938   */\n      swap2\n      swap1\n      pop\n      jump\t// out\n        /* \"#utility.yul\":944:1177   */\n    tag_18:\n      0x00\n        /* \"#utility.yul\":1006:1030   */\n      tag_51\n        /* \"#utility.yul\":1024:1029   */\n      dup3\n        /* \"#utility.yul\":1006:1030   */\n      tag_34\n      jump\t// in\n    tag_51:\n        /* \"#utility.yul\":997:1030   */\n      swap2\n      pop\n        /* \"#utility.yul\":1052:1118   */\n      0xffffffffffffffffffffffffffffffffffffffffffffffffffffffffffffffff\n        /* \"#utility.yul\":1045:1050   */\n      dup3\n        /* \"#utility.yul\":1042:1119   */\n      eq\n        /* \"#utility.yul\":1039:1041   */\n      iszero\n      tag_52\n      jumpi\n        /* \"#utility.yul\":1122:1140   */\n      tag_53\n      tag_42\n      jump\t// in\n    tag_53:\n        /* \"#utility.yul\":1039:1041   */\n    tag_52:\n        /* \"#utility.yul\":1169:1170   */\n      0x01\n        /* \"#utility.yul\":1162:1167   */\n      dup3\n        /* \"#utility.yul\":1158:1171   */\n      add\n        /* \"#utility.yul\":1151:1171   */\n      swap1\n      pop\n        /* \"#utility.yul\":987:1177   */\n      swap2\n      swap1\n      pop\n      jump\t// out\n        /* \"#utility.yul\":1183:1359   */\n    tag_27:\n      0x00\n        /* \"#utility.yul\":1232:1252   */\n      tag_55\n        /* \"#utility.yul\":1250:1251   */\n      dup3\n        /* \"#utility.yul\":1232:1252   */\n      tag_34\n      jump\t// in\n    tag_55:\n        /* \"#utility.yul\":1227:1252   */\n      swap2\n      pop\n        /* \"#utility.yul\":1266:1286   */\n      tag_56\n        /* \"#utility.yul\":1284:1285   */\n      dup4\n        /* \"#utility.yul\":1266:1286   */\n      tag_34\n      jump\t// in\n    tag_56:\n        /* \"#utility.yul\":1261:1286   */\n      swap3\n      pop\n        /* \"#utility.yul\":1305:1306   */\n      dup3\n        /* \"#utility.yul\":1295:1297   */\n      tag_57\n      jumpi\n        /* \"#utility.yul\":1310:1328   */\n      tag_58\n      tag_48\n      jump\t// in\n    tag_58:\n        /* \"#utility.yul\":1295:1297   */\n    tag_57:\n        /* \"#utility.yul\":1351:1352   */\n      dup3\n        /* \"#utility.yul\":1348:1349   */\n      dup3\n        /* \"#utility.yul\":1344:1353   */\n      mod\n        /* \"#utility.yul\":1339:1353   */\n      swap1\n      pop\n        /* \"#utility.yul\":1217:1359   */\n      swap3\n      swap2\n      pop\n      pop\n      jump\t// out\n        /* \"#utility.yul\":1365:1545   */\n    tag_42:\n        /* \"#utility.yul\":1413:1490   */\n      0x4e487b7100000000000000000000000000000000000000000000000000000000\n        /* \"#utility.yul\":1410:1411   */\n      0x00\n        /* \"#utility.yul\":1403:1491   */\n      mstore\n        /* \"#utility.yul\":1510:1514   */\n      0x11\n        /* \"#utility.yul\":1507:1508   */\n      0x04\n        /* \"#utility.yul\":1500:1515   */\n      mstore\n        /* \"#utility.yul\":1534:1538   */\n      0x24\n        /* \"#utility.yul\":1531:1532   */\n      0x00\n        /* \"#utility.yul\":1524:1539   */\n      revert\n        /* \"#utility.yul\":1551:1731   */\n    tag_48:\n        /* \"#utility.yul\":1599:1676   */\n      0x4e487b7100000000000000000000000000000000000000000000000000000000\n        /* \"#utility.yul\":1596:1597   */\n      0x00\n        /* \"#utility.yul\":1589:1677   */\n      mstore\n        /* \"#utility.yul\":1696:1700   */\n      0x12\n        /* \"#utility.yul\":1693:1694   */\n      0x04\n        /* \"#utility.yul\":1686:1701   */\n      mstore\n        /* \"#utility.yul\":1720:1724   */\n      0x24\n        /* \"#utility.yul\":1717:1718   */\n      0x00\n        /* \"#utility.yul\":1710:1725   */\n      revert\n\n    auxdata: 0xa264697066735822122001647603b23a045f3ffabe5eff5c24d394938d690ba26020310a69a1f1c2703364736f6c63430008000033\n}\n",
				"bytecode": {
					"linkReferences": {},
					"object": "608060405234801561001057600080fd5b506102cf806100206000396000f3fe608060405234801561001057600080fd5b506004361061002b5760003560e01c8063351dcf8114610030575b600080fd5b61003861004e565b6040516100459190610115565b60405180910390f35b600080600090506000600290505b61012c81116100955761006e8161009d565b1561008257808261007f9190610130565b91505b808061008d906101c1565b91505061005c565b508091505090565b6000600182116100b05760009050610101565b6000600290505b6002836100c49190610186565b81116100fb57600081846100d8919061020a565b14156100e8576000915050610101565b80806100f3906101c1565b9150506100b7565b50600190505b919050565b61010f816101b7565b82525050565b600060208201905061012a6000830184610106565b92915050565b600061013b826101b7565b9150610146836101b7565b9250827fffffffffffffffffffffffffffffffffffffffffffffffffffffffffffffffff0382111561017b5761017a61023b565b5b828201905092915050565b6000610191826101b7565b915061019c836101b7565b9250826101ac576101ab61026a565b5b828204905092915050565b6000819050919050565b60006101cc826101b7565b91507fffffffffffffffffffffffffffffffffffffffffffffffffffffffffffffffff8214156101ff576101fe61023b565b5b600182019050919050565b6000610215826101b7565b9150610220836101b7565b9250826102305761022f61026a565b5b828206905092915050565b7f4e487b7100000000000000000000000000000000000000000000000000000000600052601160045260246000fd5b7f4e487b7100000000000000000000000000000000000000000000000000000000600052601260045260246000fdfea264697066735822122001647603b23a045f3ffabe5eff5c24d394938d690ba26020310a69a1f1c2703364736f6c63430008000033",
					"opcodes": "PUSH1 0x80 PUSH1 0x40 MSTORE CALLVALUE DUP1 ISZERO PUSH2 0x10 JUMPI PUSH1 0x0 DUP1 REVERT JUMPDEST POP PUSH2 0x2CF DUP1 PUSH2 0x20 PUSH1 0x0 CODECOPY PUSH1 0x0 RETURN INVALID PUSH1 0x80 PUSH1 0x40 MSTORE CALLVALUE DUP1 ISZERO PUSH2 0x10 JUMPI PUSH1 0x0 DUP1 REVERT JUMPDEST POP PUSH1 0x4 CALLDATASIZE LT PUSH2 0x2B JUMPI PUSH1 0x0 CALLDATALOAD PUSH1 0xE0 SHR DUP1 PUSH4 0x351DCF81 EQ PUSH2 0x30 JUMPI JUMPDEST PUSH1 0x0 DUP1 REVERT JUMPDEST PUSH2 0x38 PUSH2 0x4E JUMP JUMPDEST PUSH1 0x40 MLOAD PUSH2 0x45 SWAP2 SWAP1 PUSH2 0x115 JUMP JUMPDEST PUSH1 0x40 MLOAD DUP1 SWAP2 SUB SWAP1 RETURN JUMPDEST PUSH1 0x0 DUP1 PUSH1 0x0 SWAP1 POP PUSH1 0x0 PUSH1 0x2 SWAP1 POP JUMPDEST PUSH2 0x12C DUP2 GT PUSH2 0x95 JUMPI PUSH2 0x6E DUP2 PUSH2 0x9D JUMP JUMPDEST ISZERO PUSH2 0x82 JUMPI DUP1 DUP3 PUSH2 0x7F SWAP2 SWAP1 PUSH2 0x130 JUMP JUMPDEST SWAP2 POP JUMPDEST DUP1 DUP1 PUSH2 0x8D SWAP1 PUSH2 0x1C1 JUMP JUMPDEST SWAP2 POP POP PUSH2 0x5C JUMP JUMPDEST POP DUP1 SWAP2 POP POP SWAP1 JUMP JUMPDEST PUSH1 0x0 PUSH1 0x1 DUP3 GT PUSH2 0xB0 JUMPI PUSH1 0x0 SWAP1 POP PUSH2 0x101 JUMP JUMPDEST PUSH1 0x0 PUSH1 0x2 SWAP1 POP JUMPDEST PUSH1 0x2 DUP4 PUSH2 0xC4 SWAP2 SWAP1 PUSH2 0x186 JUMP JUMPDEST DUP2 GT PUSH2 0xFB JUMPI PUSH1 0x0 DUP2 DUP5 PUSH2 0xD8 SWAP2 SWAP1 PUSH2 0x20A JUMP JUMPDEST EQ ISZERO PUSH2 0xE8 JUMPI PUSH1 0x0 SWAP2 POP POP PUSH2 0x101 JUMP JUMPDEST DUP1 DUP1 PUSH2 0xF3 SWAP1 PUSH2 0x1C1 JUMP JUMPDEST SWAP2 POP POP PUSH2 0xB7 JUMP JUMPDEST POP PUSH1 0x1 SWAP1 POP JUMPDEST SWAP2 SWAP1 POP JUMP JUMPDEST PUSH2 0x10F DUP2 PUSH2 0x1B7 JUMP JUMPDEST DUP3 MSTORE POP POP JUMP JUMPDEST PUSH1 0x0 PUSH1 0x20 DUP3 ADD SWAP1 POP PUSH2 0x12A PUSH1 0x0 DUP4 ADD DUP5 PUSH2 0x106 JUMP JUMPDEST SWAP3 SWAP2 POP POP JUMP JUMPDEST PUSH1 0x0 PUSH2 0x13B DUP3 PUSH2 0x1B7 JUMP JUMPDEST SWAP2 POP PUSH2 0x146 DUP4 PUSH2 0x1B7 JUMP JUMPDEST SWAP3 POP DUP3 PUSH32 0xFFFFFFFFFFFFFFFFFFFFFFFFFFFFFFFFFFFFFFFFFFFFFFFFFFFFFFFFFFFFFFFF SUB DUP3 GT ISZERO PUSH2 0x17B JUMPI PUSH2 0x17A PUSH2 0x23B JUMP JUMPDEST JUMPDEST DUP3 DUP3 ADD SWAP1 POP SWAP3 SWAP2 POP POP JUMP JUMPDEST PUSH1 0x0 PUSH2 0x191 DUP3 PUSH2 0x1B7 JUMP JUMPDEST SWAP2 POP PUSH2 0x19C DUP4 PUSH2 0x1B7 JUMP JUMPDEST SWAP3 POP DUP3 PUSH2 0x1AC JUMPI PUSH2 0x1AB PUSH2 0x26A JUMP JUMPDEST JUMPDEST DUP3 DUP3 DIV SWAP1 POP SWAP3 SWAP2 POP POP JUMP JUMPDEST PUSH1 0x0 DUP2 SWAP1 POP SWAP2 SWAP1 POP JUMP JUMPDEST PUSH1 0x0 PUSH2 0x1CC DUP3 PUSH2 0x1B7 JUMP JUMPDEST SWAP2 POP PUSH32 0xFFFFFFFFFFFFFFFFFFFFFFFFFFFFFFFFFFFFFFFFFFFFFFFFFFFFFFFFFFFFFFFF DUP3 EQ ISZERO PUSH2 0x1FF JUMPI PUSH2 0x1FE PUSH2 0x23B JUMP JUMPDEST JUMPDEST PUSH1 0x1 DUP3 ADD SWAP1 POP SWAP2 SWAP1 POP JUMP JUMPDEST PUSH1 0x0 PUSH2 0x215 DUP3 PUSH2 0x1B7 JUMP JUMPDEST SWAP2 POP PUSH2 0x220 DUP4 PUSH2 0x1B7 JUMP JUMPDEST SWAP3 POP DUP3 PUSH2 0x230 JUMPI PUSH2 0x22F PUSH2 0x26A JUMP JUMPDEST JUMPDEST DUP3 DUP3 MOD SWAP1 POP SWAP3 SWAP2 POP POP JUMP JUMPDEST PUSH32 0x4E487B7100000000000000000000000000000000000000000000000000000000 PUSH1 0x0 MSTORE PUSH1 0x11 PUSH1 0x4 MSTORE PUSH1 0x24 PUSH1 0x0 REVERT JUMPDEST PUSH32 0x4E487B7100000000000000000000000000000000000000000000000000000000 PUSH1 0x0 MSTORE PUSH1 0x12 PUSH1 0x4 MSTORE PUSH1 0x24 PUSH1 0x0 REVERT INVALID LOG2 PUSH5 0x6970667358 0x22 SLT KECCAK256 ADD PUSH5 0x7603B23A04 0x5F EXTCODEHASH STATICCALL 0xBE 0x5E SELFDESTRUCT 0x5C 0x24 0xD3 SWAP5 SWAP4 DUP14 PUSH10 0xBA26020310A69A1F1C2 PUSH17 0x3364736F6C634300080000330000000000 "
				},
				"gasEstimates": {
					"creation": {
						"codeDepositCost": "143800",
						"executionCost": "190",
						"totalCost": "143990"
					},
					"external": {
						"sumPrimes()": "infinite"
					},
					"internal": {
						"isPrime(uint256)": "infinite"
					}
				},
				"methodIdentifiers": {
					"sumPrimes()": "351dcf81"
				}
			},
			"storageLayout": {
				"storage": [],
				"types": null
			},
			"userdoc": {
				"kind": "user",
				"methods": {},
				"version": 1
			}
		}
	}
}